{"contracts/NFT.sol":{"NFT":{"abi":[{"inputs":[{"internalType":"string","name":"_name","type":"string"},{"internalType":"string","name":"_symbol","type":"string"},{"internalType":"string","name":"_baseTokenURI","type":"string"}],"stateMutability":"nonpayable","type":"constructor"},{"inputs":[],"name":"ApprovalCallerNotOwnerNorApproved","type":"error"},{"inputs":[],"name":"ApprovalQueryForNonexistentToken","type":"error"},{"inputs":[],"name":"BalanceQueryForZeroAddress","type":"error"},{"inputs":[],"name":"MintERC2309QuantityExceedsLimit","type":"error"},{"inputs":[],"name":"MintToZeroAddress","type":"error"},{"inputs":[],"name":"MintZeroQuantity","type":"error"},{"inputs":[],"name":"OwnerQueryForNonexistentToken","type":"error"},{"inputs":[],"name":"OwnershipNotInitializedForExtraData","type":"error"},{"inputs":[],"name":"TransferCallerNotOwnerNorApproved","type":"error"},{"inputs":[],"name":"TransferFromIncorrectOwner","type":"error"},{"inputs":[],"name":"TransferToNonERC721ReceiverImplementer","type":"error"},{"inputs":[],"name":"TransferToZeroAddress","type":"error"},{"inputs":[],"name":"URIQueryForNonexistentToken","type":"error"},{"anonymous":false,"inputs":[{"indexed":true,"internalType":"address","name":"owner","type":"address"},{"indexed":true,"internalType":"address","name":"approved","type":"address"},{"indexed":true,"internalType":"uint256","name":"tokenId","type":"uint256"}],"name":"Approval","type":"event"},{"anonymous":false,"inputs":[{"indexed":true,"internalType":"address","name":"owner","type":"address"},{"indexed":true,"internalType":"address","name":"operator","type":"address"},{"indexed":false,"internalType":"bool","name":"approved","type":"bool"}],"name":"ApprovalForAll","type":"event"},{"anonymous":false,"inputs":[{"indexed":true,"internalType":"uint256","name":"fromTokenId","type":"uint256"},{"indexed":false,"internalType":"uint256","name":"toTokenId","type":"uint256"},{"indexed":true,"internalType":"address","name":"from","type":"address"},{"indexed":true,"internalType":"address","name":"to","type":"address"}],"name":"ConsecutiveTransfer","type":"event"},{"anonymous":false,"inputs":[{"indexed":true,"internalType":"address","name":"previousOwner","type":"address"},{"indexed":true,"internalType":"address","name":"newOwner","type":"address"}],"name":"OwnershipTransferred","type":"event"},{"anonymous":false,"inputs":[{"indexed":true,"internalType":"address","name":"from","type":"address"},{"indexed":true,"internalType":"address","name":"to","type":"address"},{"indexed":true,"internalType":"uint256","name":"tokenId","type":"uint256"}],"name":"Transfer","type":"event"},{"inputs":[],"name":"MAX_SUPPLY","outputs":[{"internalType":"uint256","name":"","type":"uint256"}],"stateMutability":"view","type":"function"},{"inputs":[{"internalType":"address","name":"","type":"address"}],"name":"_mintedCounts","outputs":[{"internalType":"uint256","name":"","type":"uint256"}],"stateMutability":"view","type":"function"},{"inputs":[{"internalType":"address","name":"","type":"address"}],"name":"_mintedCountsPublic","outputs":[{"internalType":"uint256","name":"","type":"uint256"}],"stateMutability":"view","type":"function"},{"inputs":[{"internalType":"address","name":"","type":"address"}],"name":"_mintedCountsPublicSecond","outputs":[{"internalType":"uint256","name":"","type":"uint256"}],"stateMutability":"view","type":"function"},{"inputs":[{"internalType":"address","name":"to","type":"address"},{"internalType":"uint256","name":"tokenId","type":"uint256"}],"name":"approve","outputs":[],"stateMutability":"payable","type":"function"},{"inputs":[{"internalType":"address","name":"owner","type":"address"}],"name":"balanceOf","outputs":[{"internalType":"uint256","name":"","type":"uint256"}],"stateMutability":"view","type":"function"},{"inputs":[],"name":"freeMintCount","outputs":[{"internalType":"uint256","name":"","type":"uint256"}],"stateMutability":"view","type":"function"},{"inputs":[],"name":"freeMintLimit","outputs":[{"internalType":"uint256","name":"","type":"uint256"}],"stateMutability":"view","type":"function"},{"inputs":[{"internalType":"uint256","name":"tokenId","type":"uint256"}],"name":"getApproved","outputs":[{"internalType":"address","name":"","type":"address"}],"stateMutability":"view","type":"function"},{"inputs":[{"internalType":"address","name":"owner","type":"address"},{"internalType":"address","name":"operator","type":"address"}],"name":"isApprovedForAll","outputs":[{"internalType":"bool","name":"","type":"bool"}],"stateMutability":"view","type":"function"},{"inputs":[],"name":"maxPublicMintSecondLimitPerAddr","outputs":[{"internalType":"uint256","name":"","type":"uint256"}],"stateMutability":"view","type":"function"},{"inputs":[],"name":"maxWhitelistMintLimitPerAddr","outputs":[{"internalType":"uint256","name":"","type":"uint256"}],"stateMutability":"view","type":"function"},{"inputs":[],"name":"mintPrice","outputs":[{"internalType":"uint256","name":"","type":"uint256"}],"stateMutability":"view","type":"function"},{"inputs":[],"name":"mintPriceSecond","outputs":[{"internalType":"uint256","name":"","type":"uint256"}],"stateMutability":"view","type":"function"},{"inputs":[],"name":"name","outputs":[{"internalType":"string","name":"","type":"string"}],"stateMutability":"view","type":"function"},{"inputs":[],"name":"owner","outputs":[{"internalType":"address","name":"","type":"address"}],"stateMutability":"view","type":"function"},{"inputs":[{"internalType":"uint256","name":"tokenId","type":"uint256"}],"name":"ownerOf","outputs":[{"internalType":"address","name":"","type":"address"}],"stateMutability":"view","type":"function"},{"inputs":[{"internalType":"address","name":"to","type":"address"},{"internalType":"uint256","name":"amount","type":"uint256"}],"name":"publicMintFirst","outputs":[],"stateMutability":"payable","type":"function"},{"inputs":[{"internalType":"address","name":"to","type":"address"},{"internalType":"uint256","name":"amount","type":"uint256"}],"name":"publicMintSecond","outputs":[],"stateMutability":"payable","type":"function"},{"inputs":[],"name":"publicMintSecondStartTime","outputs":[{"internalType":"uint256","name":"","type":"uint256"}],"stateMutability":"view","type":"function"},{"inputs":[],"name":"publicMintStartTime","outputs":[{"internalType":"uint256","name":"","type":"uint256"}],"stateMutability":"view","type":"function"},{"inputs":[],"name":"renounceOwnership","outputs":[],"stateMutability":"nonpayable","type":"function"},{"inputs":[{"internalType":"address","name":"to","type":"address"},{"internalType":"uint256","name":"amount","type":"uint256"}],"name":"reserve","outputs":[],"stateMutability":"nonpayable","type":"function"},{"inputs":[],"name":"reserver","outputs":[{"internalType":"address","name":"","type":"address"}],"stateMutability":"view","type":"function"},{"inputs":[{"internalType":"address","name":"from","type":"address"},{"internalType":"address","name":"to","type":"address"},{"internalType":"uint256","name":"tokenId","type":"uint256"}],"name":"safeTransferFrom","outputs":[],"stateMutability":"payable","type":"function"},{"inputs":[{"internalType":"address","name":"from","type":"address"},{"internalType":"address","name":"to","type":"address"},{"internalType":"uint256","name":"tokenId","type":"uint256"},{"internalType":"bytes","name":"_data","type":"bytes"}],"name":"safeTransferFrom","outputs":[],"stateMutability":"payable","type":"function"},{"inputs":[{"internalType":"address","name":"operator","type":"address"},{"internalType":"bool","name":"approved","type":"bool"}],"name":"setApprovalForAll","outputs":[],"stateMutability":"nonpayable","type":"function"},{"inputs":[{"internalType":"string","name":"baseURI","type":"string"}],"name":"setBaseURI","outputs":[],"stateMutability":"nonpayable","type":"function"},{"inputs":[{"internalType":"bytes4","name":"interfaceId","type":"bytes4"}],"name":"supportsInterface","outputs":[{"internalType":"bool","name":"","type":"bool"}],"stateMutability":"view","type":"function"},{"inputs":[],"name":"symbol","outputs":[{"internalType":"string","name":"","type":"string"}],"stateMutability":"view","type":"function"},{"inputs":[],"name":"testMintStartTime","outputs":[{"internalType":"uint256","name":"","type":"uint256"}],"stateMutability":"view","type":"function"},{"inputs":[{"internalType":"uint256","name":"tokenId","type":"uint256"}],"name":"tokenURI","outputs":[{"internalType":"string","name":"","type":"string"}],"stateMutability":"view","type":"function"},{"inputs":[],"name":"totalSupply","outputs":[{"internalType":"uint256","name":"","type":"uint256"}],"stateMutability":"view","type":"function"},{"inputs":[{"internalType":"address","name":"from","type":"address"},{"internalType":"address","name":"to","type":"address"},{"internalType":"uint256","name":"tokenId","type":"uint256"}],"name":"transferFrom","outputs":[],"stateMutability":"payable","type":"function"},{"inputs":[{"internalType":"address","name":"newOwner","type":"address"}],"name":"transferOwnership","outputs":[],"stateMutability":"nonpayable","type":"function"},{"inputs":[{"components":[{"internalType":"address","name":"redeemer","type":"address"}],"internalType":"struct NFT.NFTVoucher","name":"voucher","type":"tuple"},{"internalType":"bytes","name":"signature","type":"bytes"},{"internalType":"address","name":"to","type":"address"}],"name":"verify","outputs":[{"internalType":"string","name":"","type":"string"}],"stateMutability":"view","type":"function"},{"inputs":[{"components":[{"internalType":"address","name":"redeemer","type":"address"}],"internalType":"struct NFT.NFTVoucher","name":"voucher","type":"tuple"},{"internalType":"bytes","name":"signature","type":"bytes"},{"internalType":"uint256","name":"amount","type":"uint256"},{"internalType":"address","name":"to","type":"address"}],"name":"whitelistMint","outputs":[],"stateMutability":"payable","type":"function"},{"inputs":[],"name":"whitelistMintStartTime","outputs":[{"internalType":"uint256","name":"","type":"uint256"}],"stateMutability":"view","type":"function"},{"inputs":[],"name":"withdraw","outputs":[],"stateMutability":"nonpayable","type":"function"}],"evm":{"bytecode":{"linkReferences":{},"object":"6101406040526000600a553480156200001757600080fd5b50604051620050b1380380620050b183398181016040528101906200003d919062000449565b826040518060400160405280600181526020017f31000000000000000000000000000000000000000000000000000000000000008152508484620000966200008a6200019f60201b60201c565b620001a760201b60201c565b8160039081620000a791906200074d565b508060049081620000b991906200074d565b50620000ca6200026b60201b60201c565b600181905550505060008280519060200120905060008280519060200120905060007f8b73c3c69bb8fe3d512ecc4cf759cc79239f7b179b0ffacaa9a75d522b39400f90508260e081815250508161010081815250504660a081815250506200013b8184846200027060201b60201c565b608081815250503073ffffffffffffffffffffffffffffffffffffffff1660c08173ffffffffffffffffffffffffffffffffffffffff1681525050806101208181525050505050505080600990816200019591906200074d565b5050505062000902565b600033905090565b60008060009054906101000a900473ffffffffffffffffffffffffffffffffffffffff169050816000806101000a81548173ffffffffffffffffffffffffffffffffffffffff021916908373ffffffffffffffffffffffffffffffffffffffff1602179055508173ffffffffffffffffffffffffffffffffffffffff168173ffffffffffffffffffffffffffffffffffffffff167f8be0079c531659141344cd1fd0a4f28419497f9722a3daafe3b4186f6b6457e060405160405180910390a35050565b600090565b600083838346306040516020016200028d959493929190620008a5565b6040516020818303038152906040528051906020012090509392505050565b6000604051905090565b600080fd5b600080fd5b600080fd5b600080fd5b6000601f19601f8301169050919050565b7f4e487b7100000000000000000000000000000000000000000000000000000000600052604160045260246000fd5b6200031582620002ca565b810181811067ffffffffffffffff82111715620003375762000336620002db565b5b80604052505050565b60006200034c620002ac565b90506200035a82826200030a565b919050565b600067ffffffffffffffff8211156200037d576200037c620002db565b5b6200038882620002ca565b9050602081019050919050565b60005b83811015620003b557808201518184015260208101905062000398565b83811115620003c5576000848401525b50505050565b6000620003e2620003dc846200035f565b62000340565b905082815260208101848484011115620004015762000400620002c5565b5b6200040e84828562000395565b509392505050565b600082601f8301126200042e576200042d620002c0565b5b815162000440848260208601620003cb565b91505092915050565b600080600060608486031215620004655762000464620002b6565b5b600084015167ffffffffffffffff811115620004865762000485620002bb565b5b620004948682870162000416565b935050602084015167ffffffffffffffff811115620004b857620004b7620002bb565b5b620004c68682870162000416565b925050604084015167ffffffffffffffff811115620004ea57620004e9620002bb565b5b620004f88682870162000416565b9150509250925092565b600081519050919050565b7f4e487b7100000000000000000000000000000000000000000000000000000000600052602260045260246000fd5b600060028204905060018216806200055557607f821691505b6020821081036200056b576200056a6200050d565b5b50919050565b60008190508160005260206000209050919050565b60006020601f8301049050919050565b600082821b905092915050565b600060088302620005d57fffffffffffffffffffffffffffffffffffffffffffffffffffffffffffffffff8262000596565b620005e1868362000596565b95508019841693508086168417925050509392505050565b6000819050919050565b6000819050919050565b60006200062e620006286200062284620005f9565b62000603565b620005f9565b9050919050565b6000819050919050565b6200064a836200060d565b62000662620006598262000635565b848454620005a3565b825550505050565b600090565b620006796200066a565b620006868184846200063f565b505050565b5b81811015620006ae57620006a26000826200066f565b6001810190506200068c565b5050565b601f821115620006fd57620006c78162000571565b620006d28462000586565b81016020851015620006e2578190505b620006fa620006f18562000586565b8301826200068b565b50505b505050565b600082821c905092915050565b6000620007226000198460080262000702565b1980831691505092915050565b60006200073d83836200070f565b9150826002028217905092915050565b620007588262000502565b67ffffffffffffffff811115620007745762000773620002db565b5b6200078082546200053c565b6200078d828285620006b2565b600060209050601f831160018114620007c55760008415620007b0578287015190505b620007bc85826200072f565b8655506200082c565b601f198416620007d58662000571565b60005b82811015620007ff57848901518255600182019150602085019450602081019050620007d8565b868310156200081f57848901516200081b601f8916826200070f565b8355505b6001600288020188555050505b505050505050565b6000819050919050565b620008498162000834565b82525050565b6200085a81620005f9565b82525050565b600073ffffffffffffffffffffffffffffffffffffffff82169050919050565b60006200088d8262000860565b9050919050565b6200089f8162000880565b82525050565b600060a082019050620008bc60008301886200083e565b620008cb60208301876200083e565b620008da60408301866200083e565b620008e960608301856200084f565b620008f8608083018462000894565b9695505050505050565b60805160a05160c05160e051610100516101205161475f6200095260003960006127b5015260006127f7015260006127d60152600061270b015260006127610152600061278a015261475f6000f3fe6080604052600436106102305760003560e01c80636817c76c1161012e578063b88d4fde116100ab578063dcd315eb1161006f578063dcd315eb146107f6578063e55f58bb14610821578063e985e9c51461084c578063f2fde38b14610889578063f43463f7146108b257610230565b8063b88d4fde1461072d578063c87b56dd14610749578063cc47a40b14610786578063d27adb6c146107af578063d3cf00a3146107cb57610230565b80638da5cb5b116100f25780638da5cb5b1461065557806395d89b4114610680578063a22cb465146106ab578063afe11c03146106d4578063b7764688146106f057610230565b80636817c76c1461058f5780636dab9cd2146105ba57806370a08231146105d6578063715018a61461061357806379ac23b21461062a57610230565b806321489288116101bc5780633ccfd60b116101805780633ccfd60b146104b957806342842e0e146104d05780634b6a223e146104ec57806355f804b3146105295780636352211e1461055257610230565b806321489288146103df57806323b872dd1461041c5780632bb1a91a1461043857806332cb6b0c146104635780633798470a1461048e57610230565b8063095ea7b311610203578063095ea7b31461030557806318160ddd14610321578063188cf2d11461034c5780631892feb11461037757806319da5b8a146103a257610230565b806301ffc9a71461023557806306fdde0314610272578063081812fc1461029d57806308346d85146102da575b600080fd5b34801561024157600080fd5b5061025c60048036038101906102579190612f25565b6108dd565b6040516102699190612f6d565b60405180910390f35b34801561027e57600080fd5b5061028761096f565b6040516102949190613021565b60405180910390f35b3480156102a957600080fd5b506102c460048036038101906102bf9190613079565b610a01565b6040516102d191906130e7565b60405180910390f35b3480156102e657600080fd5b506102ef610a80565b6040516102fc9190613111565b60405180910390f35b61031f600480360381019061031a9190613158565b610a86565b005b34801561032d57600080fd5b50610336610bca565b6040516103439190613111565b60405180910390f35b34801561035857600080fd5b50610361610be1565b60405161036e9190613111565b60405180910390f35b34801561038357600080fd5b5061038c610be6565b6040516103999190613111565b60405180910390f35b3480156103ae57600080fd5b506103c960048036038101906103c49190613221565b610beb565b6040516103d69190613021565b60405180910390f35b3480156103eb57600080fd5b5061040660048036038101906104019190613295565b610dc5565b6040516104139190613111565b60405180910390f35b610436600480360381019061043191906132c2565b610ddd565b005b34801561044457600080fd5b5061044d6110ff565b60405161045a9190613111565b60405180910390f35b34801561046f57600080fd5b50610478611107565b6040516104859190613111565b60405180910390f35b34801561049a57600080fd5b506104a361110d565b6040516104b09190613111565b60405180910390f35b3480156104c557600080fd5b506104ce611112565b005b6104ea60048036038101906104e591906132c2565b6111f2565b005b3480156104f857600080fd5b50610513600480360381019061050e9190613295565b611212565b6040516105209190613111565b60405180910390f35b34801561053557600080fd5b50610550600480360381019061054b9190613445565b61122a565b005b34801561055e57600080fd5b5061057960048036038101906105749190613079565b61130a565b60405161058691906130e7565b60405180910390f35b34801561059b57600080fd5b506105a461131c565b6040516105b19190613111565b60405180910390f35b6105d460048036038101906105cf9190613158565b611327565b005b3480156105e257600080fd5b506105fd60048036038101906105f89190613295565b611509565b60405161060a9190613111565b60405180910390f35b34801561061f57600080fd5b506106286115c1565b005b34801561063657600080fd5b5061063f611649565b60405161064c9190613111565b60405180910390f35b34801561066157600080fd5b5061066a611654565b60405161067791906130e7565b60405180910390f35b34801561068c57600080fd5b5061069561167d565b6040516106a29190613021565b60405180910390f35b3480156106b757600080fd5b506106d260048036038101906106cd91906134ba565b61170f565b005b6106ee60048036038101906106e99190613158565b61181a565b005b3480156106fc57600080fd5b5061071760048036038101906107129190613295565b611a13565b6040516107249190613111565b60405180910390f35b6107476004803603810190610742919061359b565b611a2b565b005b34801561075557600080fd5b50610770600480360381019061076b9190613079565b611a9e565b60405161077d9190613021565b60405180910390f35b34801561079257600080fd5b506107ad60048036038101906107a89190613158565b611b3c565b005b6107c960048036038101906107c4919061361e565b611cf1565b005b3480156107d757600080fd5b506107e0611efb565b6040516107ed9190613111565b60405180910390f35b34801561080257600080fd5b5061080b611f03565b60405161081891906130e7565b60405180910390f35b34801561082d57600080fd5b50610836611f1b565b6040516108439190613111565b60405180910390f35b34801561085857600080fd5b50610873600480360381019061086e91906136a6565b611f21565b6040516108809190612f6d565b60405180910390f35b34801561089557600080fd5b506108b060048036038101906108ab9190613295565b611fb5565b005b3480156108be57600080fd5b506108c76120ac565b6040516108d49190613111565b60405180910390f35b60006301ffc9a760e01b827bffffffffffffffffffffffffffffffffffffffffffffffffffffffff1916148061093857506380ac58cd60e01b827bffffffffffffffffffffffffffffffffffffffffffffffffffffffff1916145b806109685750635b5e139f60e01b827bffffffffffffffffffffffffffffffffffffffffffffffffffffffff1916145b9050919050565b60606003805461097e90613715565b80601f01602080910402602001604051908101604052809291908181526020018280546109aa90613715565b80156109f75780601f106109cc576101008083540402835291602001916109f7565b820191906000526020600020905b8154815290600101906020018083116109da57829003601f168201915b5050505050905090565b6000610a0c826120b4565b610a42576040517fcf4700e400000000000000000000000000000000000000000000000000000000815260040160405180910390fd5b6007600083815260200190815260200160002060000160009054906101000a900473ffffffffffffffffffffffffffffffffffffffff169050919050565b6101f481565b6000610a918261130a565b90508073ffffffffffffffffffffffffffffffffffffffff16610ab2612113565b73ffffffffffffffffffffffffffffffffffffffff1614610b1557610ade81610ad9612113565b611f21565b610b14576040517fcfb3b94200000000000000000000000000000000000000000000000000000000815260040160405180910390fd5b5b826007600084815260200190815260200160002060000160006101000a81548173ffffffffffffffffffffffffffffffffffffffff021916908373ffffffffffffffffffffffffffffffffffffffff160217905550818373ffffffffffffffffffffffffffffffffffffffff168273ffffffffffffffffffffffffffffffffffffffff167f8c5be1e5ebec7d5bd14f71427d1e84f3dd0314c0f7b2291e5b200ac8c7c3b92560405160405180910390a4505050565b6000610bd461211b565b6002546001540303905090565b600c81565b600081565b60608173ffffffffffffffffffffffffffffffffffffffff16856000016020810190610c179190613295565b73ffffffffffffffffffffffffffffffffffffffff1614610c6d576040517f08c379a0000000000000000000000000000000000000000000000000000000008152600401610c64906137b8565b60405180910390fd5b6000610cc07fdabea70844bf24d9249fbcd43ff305a229af24da603ae5c43f957f44dcbd0bed84604051602001610ca59291906137f1565b60405160208183030381529060405280519060200120612120565b9050610d108186868080601f016020809104026020016040519081016040528093929190818152602001838380828437600081840152601f19601f8201169050808301925050505050505061213a565b73ffffffffffffffffffffffffffffffffffffffff16610d2e611654565b73ffffffffffffffffffffffffffffffffffffffff1614610d84576040517f08c379a0000000000000000000000000000000000000000000000000000000008152600401610d7b9061388c565b60405180910390fd5b6040518060400160405280600381526020017f3132330000000000000000000000000000000000000000000000000000000000815250915050949350505050565b600b6020528060005260406000206000915090505481565b6000610de882612161565b90508373ffffffffffffffffffffffffffffffffffffffff168173ffffffffffffffffffffffffffffffffffffffff1614610e4f576040517fa114810000000000000000000000000000000000000000000000000000000000815260040160405180910390fd5b600080610e5b8461222d565b91509150610e718187610e6c612113565b612254565b610ebd57610e8686610e81612113565b611f21565b610ebc576040517f59c896be00000000000000000000000000000000000000000000000000000000815260040160405180910390fd5b5b600073ffffffffffffffffffffffffffffffffffffffff168573ffffffffffffffffffffffffffffffffffffffff1603610f23576040517fea553b3400000000000000000000000000000000000000000000000000000000815260040160405180910390fd5b610f308686866001612298565b8015610f3b57600082555b600660008773ffffffffffffffffffffffffffffffffffffffff1673ffffffffffffffffffffffffffffffffffffffff168152602001908152602001600020600081546001900391905081905550600660008673ffffffffffffffffffffffffffffffffffffffff1673ffffffffffffffffffffffffffffffffffffffff168152602001908152602001600020600081546001019190508190555061100985610fe588888761229e565b7c0200000000000000000000000000000000000000000000000000000000176122c6565b600560008681526020019081526020016000208190555060007c020000000000000000000000000000000000000000000000000000000084160361108f576000600185019050600060056000838152602001908152602001600020540361108d57600154811461108c578360056000838152602001908152602001600020819055505b5b505b838573ffffffffffffffffffffffffffffffffffffffff168773ffffffffffffffffffffffffffffffffffffffff167fddf252ad1be2c89b69c2b068fc378daa952ba7f163c4a11628f55a4df523b3ef60405160405180910390a46110f786868660016122f1565b505050505050565b6362bfc2c081565b61271081565b603281565b730278137e8e2c38111297c9991815507eb16eaf2573ffffffffffffffffffffffffffffffffffffffff166111456122f7565b73ffffffffffffffffffffffffffffffffffffffff1614806111a0575061116a611654565b73ffffffffffffffffffffffffffffffffffffffff166111886122f7565b73ffffffffffffffffffffffffffffffffffffffff16145b6111df576040517f08c379a00000000000000000000000000000000000000000000000000000000081526004016111d6906138f8565b60405180910390fd5b6111f06111ea6122f7565b476122ff565b565b61120d83838360405180602001604052806000815250611a2b565b505050565b600d6020528060005260406000206000915090505481565b730278137e8e2c38111297c9991815507eb16eaf2573ffffffffffffffffffffffffffffffffffffffff1661125d6122f7565b73ffffffffffffffffffffffffffffffffffffffff1614806112b85750611282611654565b73ffffffffffffffffffffffffffffffffffffffff166112a06122f7565b73ffffffffffffffffffffffffffffffffffffffff16145b6112f7576040517f08c379a00000000000000000000000000000000000000000000000000000000081526004016112ee906138f8565b60405180910390fd5b80600990816113069190613ac4565b5050565b600061131582612161565b9050919050565b66038d7ea4c6800081565b600042101561136b576040517f08c379a000000000000000000000000000000000000000000000000000000000815260040161136290613be2565b60405180910390fd5b6032600d60008473ffffffffffffffffffffffffffffffffffffffff1673ffffffffffffffffffffffffffffffffffffffff16815260200190815260200160002054826113b89190613c31565b11156113f9576040517f08c379a00000000000000000000000000000000000000000000000000000000081526004016113f090613cf9565b60405180910390fd5b61271081611405610bca565b61140f9190613c31565b1115611450576040517f08c379a000000000000000000000000000000000000000000000000000000000815260040161144790613d65565b60405180910390fd5b8066038d7ea4c680006114639190613d85565b3410156114a5576040517f08c379a000000000000000000000000000000000000000000000000000000000815260040161149c90613e2b565b60405180910390fd5b6114af82826123f3565b80600d60008473ffffffffffffffffffffffffffffffffffffffff1673ffffffffffffffffffffffffffffffffffffffff16815260200190815260200160002060008282546114fe9190613c31565b925050819055505050565b60008073ffffffffffffffffffffffffffffffffffffffff168273ffffffffffffffffffffffffffffffffffffffff1603611570576040517f8f4eb60400000000000000000000000000000000000000000000000000000000815260040160405180910390fd5b67ffffffffffffffff600660008473ffffffffffffffffffffffffffffffffffffffff1673ffffffffffffffffffffffffffffffffffffffff16815260200190815260200160002054169050919050565b6115c96122f7565b73ffffffffffffffffffffffffffffffffffffffff166115e7611654565b73ffffffffffffffffffffffffffffffffffffffff161461163d576040517f08c379a000000000000000000000000000000000000000000000000000000000815260040161163490613e97565b60405180910390fd5b6116476000612411565b565b66038d7ea4c6800081565b60008060009054906101000a900473ffffffffffffffffffffffffffffffffffffffff16905090565b60606004805461168c90613715565b80601f01602080910402602001604051908101604052809291908181526020018280546116b890613715565b80156117055780601f106116da57610100808354040283529160200191611705565b820191906000526020600020905b8154815290600101906020018083116116e857829003601f168201915b5050505050905090565b806008600061171c612113565b73ffffffffffffffffffffffffffffffffffffffff1673ffffffffffffffffffffffffffffffffffffffff16815260200190815260200160002060008473ffffffffffffffffffffffffffffffffffffffff1673ffffffffffffffffffffffffffffffffffffffff16815260200190815260200160002060006101000a81548160ff0219169083151502179055508173ffffffffffffffffffffffffffffffffffffffff166117c9612113565b73ffffffffffffffffffffffffffffffffffffffff167f17307eab39ab6107e8899845ad3d59bd9653f200f220920489ca2b5937696c318360405161180e9190612f6d565b60405180910390a35050565b600042101561185e576040517f08c379a000000000000000000000000000000000000000000000000000000000815260040161185590613be2565b60405180910390fd5b600c8060008473ffffffffffffffffffffffffffffffffffffffff1673ffffffffffffffffffffffffffffffffffffffff16815260200190815260200160002054826118aa9190613c31565b11156118eb576040517f08c379a00000000000000000000000000000000000000000000000000000000081526004016118e290613f29565b60405180910390fd5b6127106005826118fb9190613d85565b611903610bca565b61190d9190613c31565b111561194e576040517f08c379a000000000000000000000000000000000000000000000000000000000815260040161194590613f95565b60405180910390fd5b8066038d7ea4c680006119619190613d85565b3410156119a3576040517f08c379a000000000000000000000000000000000000000000000000000000000815260040161199a90613e2b565b60405180910390fd5b6119b9826005836119b49190613d85565b6123f3565b80600c60008473ffffffffffffffffffffffffffffffffffffffff1673ffffffffffffffffffffffffffffffffffffffff1681526020019081526020016000206000828254611a089190613c31565b925050819055505050565b600c6020528060005260406000206000915090505481565b611a36848484610ddd565b60008373ffffffffffffffffffffffffffffffffffffffff163b14611a9857611a61848484846124d5565b611a97576040517fd1a57ed600000000000000000000000000000000000000000000000000000000815260040160405180910390fd5b5b50505050565b6060611aa9826120b4565b611adf576040517fa14c4b5000000000000000000000000000000000000000000000000000000000815260040160405180910390fd5b6000611ae9612625565b90506000815103611b095760405180602001604052806000815250611b34565b80611b13846126b7565b604051602001611b24929190613ff1565b6040516020818303038152906040525b915050919050565b730278137e8e2c38111297c9991815507eb16eaf2573ffffffffffffffffffffffffffffffffffffffff16611b6f6122f7565b73ffffffffffffffffffffffffffffffffffffffff161480611bca5750611b94611654565b73ffffffffffffffffffffffffffffffffffffffff16611bb26122f7565b73ffffffffffffffffffffffffffffffffffffffff16145b611c09576040517f08c379a0000000000000000000000000000000000000000000000000000000008152600401611c00906138f8565b60405180910390fd5b6101f481600a54611c1a9190613c31565b1115611c5b576040517f08c379a0000000000000000000000000000000000000000000000000000000008152600401611c5290614061565b60405180910390fd5b612710600582611c6b9190613d85565b611c73610bca565b611c7d9190613c31565b1115611cbe576040517f08c379a0000000000000000000000000000000000000000000000000000000008152600401611cb590613f95565b60405180910390fd5b611cd482600583611ccf9190613d85565b6123f3565b80600a6000828254611ce69190613c31565b925050819055505050565b611cfd85858584610beb565b506000421015611d42576040517f08c379a0000000000000000000000000000000000000000000000000000000008152600401611d3990613be2565b60405180910390fd5b600c600b60008373ffffffffffffffffffffffffffffffffffffffff1673ffffffffffffffffffffffffffffffffffffffff1681526020019081526020016000205483611d8f9190613c31565b1115611dd0576040517f08c379a0000000000000000000000000000000000000000000000000000000008152600401611dc790613f29565b60405180910390fd5b612710600583611de09190613d85565b611de8610bca565b611df29190613c31565b1115611e33576040517f08c379a0000000000000000000000000000000000000000000000000000000008152600401611e2a90613f95565b60405180910390fd5b8166038d7ea4c68000611e469190613d85565b341015611e88576040517f08c379a0000000000000000000000000000000000000000000000000000000008152600401611e7f906140cd565b60405180910390fd5b611e9e81600584611e999190613d85565b6123f3565b81600b60008373ffffffffffffffffffffffffffffffffffffffff1673ffffffffffffffffffffffffffffffffffffffff1681526020019081526020016000206000828254611eed9190613c31565b925050819055505050505050565b6362c3b74081565b730278137e8e2c38111297c9991815507eb16eaf2581565b600a5481565b6000600860008473ffffffffffffffffffffffffffffffffffffffff1673ffffffffffffffffffffffffffffffffffffffff16815260200190815260200160002060008373ffffffffffffffffffffffffffffffffffffffff1673ffffffffffffffffffffffffffffffffffffffff16815260200190815260200160002060009054906101000a900460ff16905092915050565b611fbd6122f7565b73ffffffffffffffffffffffffffffffffffffffff16611fdb611654565b73ffffffffffffffffffffffffffffffffffffffff1614612031576040517f08c379a000000000000000000000000000000000000000000000000000000000815260040161202890613e97565b60405180910390fd5b600073ffffffffffffffffffffffffffffffffffffffff168173ffffffffffffffffffffffffffffffffffffffff16036120a0576040517f08c379a00000000000000000000000000000000000000000000000000000000081526004016120979061415f565b60405180910390fd5b6120a981612411565b50565b6362d237c081565b6000816120bf61211b565b111580156120ce575060015482105b801561210c575060007c0100000000000000000000000000000000000000000000000000000000600560008581526020019081526020016000205416145b9050919050565b600033905090565b600090565b600061213361212d612707565b83612821565b9050919050565b60008060006121498585612854565b91509150612156816128d5565b819250505092915050565b6000808290508061217061211b565b116121f6576001548110156121f55760006005600083815260200190815260200160002054905060007c01000000000000000000000000000000000000000000000000000000008216036121f3575b600081036121e95760056000836001900393508381526020019081526020016000205490506121bf565b8092505050612228565b505b5b6040517fdf2d9b4200000000000000000000000000000000000000000000000000000000815260040160405180910390fd5b919050565b60008060006007600085815260200190815260200160002090508092508254915050915091565b600073ffffffffffffffffffffffffffffffffffffffff8316925073ffffffffffffffffffffffffffffffffffffffff821691508382148383141790509392505050565b50505050565b60008060e883901c905060e86122b5868684612aa1565b62ffffff16901b9150509392505050565b600073ffffffffffffffffffffffffffffffffffffffff83169250814260a01b178317905092915050565b50505050565b600033905090565b80471015612342576040517f08c379a0000000000000000000000000000000000000000000000000000000008152600401612339906141cb565b60405180910390fd5b60008273ffffffffffffffffffffffffffffffffffffffff16826040516123689061421c565b60006040518083038185875af1925050503d80600081146123a5576040519150601f19603f3d011682016040523d82523d6000602084013e6123aa565b606091505b50509050806123ee576040517f08c379a00000000000000000000000000000000000000000000000000000000081526004016123e5906142a3565b60405180910390fd5b505050565b61240d828260405180602001604052806000815250612aaa565b5050565b60008060009054906101000a900473ffffffffffffffffffffffffffffffffffffffff169050816000806101000a81548173ffffffffffffffffffffffffffffffffffffffff021916908373ffffffffffffffffffffffffffffffffffffffff1602179055508173ffffffffffffffffffffffffffffffffffffffff168173ffffffffffffffffffffffffffffffffffffffff167f8be0079c531659141344cd1fd0a4f28419497f9722a3daafe3b4186f6b6457e060405160405180910390a35050565b60008373ffffffffffffffffffffffffffffffffffffffff1663150b7a026124fb612113565b8786866040518563ffffffff1660e01b815260040161251d9493929190614318565b6020604051808303816000875af192505050801561255957506040513d601f19601f820116820180604052508101906125569190614379565b60015b6125d2573d8060008114612589576040519150601f19603f3d011682016040523d82523d6000602084013e61258e565b606091505b5060008151036125ca576040517fd1a57ed600000000000000000000000000000000000000000000000000000000815260040160405180910390fd5b805181602001fd5b63150b7a0260e01b7bffffffffffffffffffffffffffffffffffffffffffffffffffffffff1916817bffffffffffffffffffffffffffffffffffffffffffffffffffffffff191614915050949350505050565b60606009805461263490613715565b80601f016020809104026020016040519081016040528092919081815260200182805461266090613715565b80156126ad5780601f10612682576101008083540402835291602001916126ad565b820191906000526020600020905b81548152906001019060200180831161269057829003601f168201915b5050505050905090565b606060a060405101806040526020810391506000825281835b6001156126f257600184039350600a81066030018453600a81049050806126d0575b50828103602084039350808452505050919050565b60007f000000000000000000000000000000000000000000000000000000000000000073ffffffffffffffffffffffffffffffffffffffff163073ffffffffffffffffffffffffffffffffffffffff1614801561278357507f000000000000000000000000000000000000000000000000000000000000000046145b156127b0577f0000000000000000000000000000000000000000000000000000000000000000905061281e565b61281b7f00000000000000000000000000000000000000000000000000000000000000007f00000000000000000000000000000000000000000000000000000000000000007f0000000000000000000000000000000000000000000000000000000000000000612b48565b90505b90565b60008282604051602001612836929190614413565b60405160208183030381529060405280519060200120905092915050565b60008060418351036128955760008060006020860151925060408601519150606086015160001a905061288987828585612b82565b945094505050506128ce565b60408351036128c55760008060208501519150604085015190506128ba868383612c8e565b9350935050506128ce565b60006002915091505b9250929050565b600060048111156128e9576128e861444a565b5b8160048111156128fc576128fb61444a565b5b0315612a9e57600160048111156129165761291561444a565b5b8160048111156129295761292861444a565b5b03612969576040517f08c379a0000000000000000000000000000000000000000000000000000000008152600401612960906144c5565b60405180910390fd5b6002600481111561297d5761297c61444a565b5b8160048111156129905761298f61444a565b5b036129d0576040517f08c379a00000000000000000000000000000000000000000000000000000000081526004016129c790614531565b60405180910390fd5b600360048111156129e4576129e361444a565b5b8160048111156129f7576129f661444a565b5b03612a37576040517f08c379a0000000000000000000000000000000000000000000000000000000008152600401612a2e906145c3565b60405180910390fd5b600480811115612a4a57612a4961444a565b5b816004811115612a5d57612a5c61444a565b5b03612a9d576040517f08c379a0000000000000000000000000000000000000000000000000000000008152600401612a9490614655565b60405180910390fd5b5b50565b60009392505050565b612ab48383612ced565b60008373ffffffffffffffffffffffffffffffffffffffff163b14612b435760006001549050600083820390505b612af560008683806001019450866124d5565b612b2b576040517fd1a57ed600000000000000000000000000000000000000000000000000000000815260040160405180910390fd5b818110612ae2578160015414612b4057600080fd5b50505b505050565b60008383834630604051602001612b63959493929190614675565b6040516020818303038152906040528051906020012090509392505050565b6000807f7fffffffffffffffffffffffffffffff5d576e7357a4501ddfe92f46681b20a08360001c1115612bbd576000600391509150612c85565b601b8560ff1614158015612bd55750601c8560ff1614155b15612be7576000600491509150612c85565b600060018787878760405160008152602001604052604051612c0c94939291906146e4565b6020604051602081039080840390855afa158015612c2e573d6000803e3d6000fd5b505050602060405103519050600073ffffffffffffffffffffffffffffffffffffffff168173ffffffffffffffffffffffffffffffffffffffff1603612c7c57600060019250925050612c85565b80600092509250505b94509492505050565b60008060007f7fffffffffffffffffffffffffffffffffffffffffffffffffffffffffffffff60001b841690506000601b60ff8660001c901c612cd19190613c31565b9050612cdf87828885612b82565b935093505050935093915050565b6000600154905060008203612d2e576040517fb562e8dd00000000000000000000000000000000000000000000000000000000815260040160405180910390fd5b612d3b6000848385612298565b600160406001901b178202600660008573ffffffffffffffffffffffffffffffffffffffff1673ffffffffffffffffffffffffffffffffffffffff16815260200190815260200160002060008282540192505081905550612db283612da3600086600061229e565b612dac85612ea9565b176122c6565b6005600083815260200190815260200160002081905550600080838301905073ffffffffffffffffffffffffffffffffffffffff85169150828260007fddf252ad1be2c89b69c2b068fc378daa952ba7f163c4a11628f55a4df523b3ef600080a4600183015b818114612e5357808360007fddf252ad1be2c89b69c2b068fc378daa952ba7f163c4a11628f55a4df523b3ef600080a4600181019050612e18565b5060008203612e8e576040517f2e07630000000000000000000000000000000000000000000000000000000000815260040160405180910390fd5b806001819055505050612ea460008483856122f1565b505050565b60006001821460e11b9050919050565b6000604051905090565b600080fd5b600080fd5b60007fffffffff0000000000000000000000000000000000000000000000000000000082169050919050565b612f0281612ecd565b8114612f0d57600080fd5b50565b600081359050612f1f81612ef9565b92915050565b600060208284031215612f3b57612f3a612ec3565b5b6000612f4984828501612f10565b91505092915050565b60008115159050919050565b612f6781612f52565b82525050565b6000602082019050612f826000830184612f5e565b92915050565b600081519050919050565b600082825260208201905092915050565b60005b83811015612fc2578082015181840152602081019050612fa7565b83811115612fd1576000848401525b50505050565b6000601f19601f8301169050919050565b6000612ff382612f88565b612ffd8185612f93565b935061300d818560208601612fa4565b61301681612fd7565b840191505092915050565b6000602082019050818103600083015261303b8184612fe8565b905092915050565b6000819050919050565b61305681613043565b811461306157600080fd5b50565b6000813590506130738161304d565b92915050565b60006020828403121561308f5761308e612ec3565b5b600061309d84828501613064565b91505092915050565b600073ffffffffffffffffffffffffffffffffffffffff82169050919050565b60006130d1826130a6565b9050919050565b6130e1816130c6565b82525050565b60006020820190506130fc60008301846130d8565b92915050565b61310b81613043565b82525050565b60006020820190506131266000830184613102565b92915050565b613135816130c6565b811461314057600080fd5b50565b6000813590506131528161312c565b92915050565b6000806040838503121561316f5761316e612ec3565b5b600061317d85828601613143565b925050602061318e85828601613064565b9150509250929050565b600080fd5b6000602082840312156131b3576131b2613198565b5b81905092915050565b600080fd5b600080fd5b600080fd5b60008083601f8401126131e1576131e06131bc565b5b8235905067ffffffffffffffff8111156131fe576131fd6131c1565b5b60208301915083600182028301111561321a576132196131c6565b5b9250929050565b6000806000806060858703121561323b5761323a612ec3565b5b60006132498782880161319d565b945050602085013567ffffffffffffffff81111561326a57613269612ec8565b5b613276878288016131cb565b9350935050604061328987828801613143565b91505092959194509250565b6000602082840312156132ab576132aa612ec3565b5b60006132b984828501613143565b91505092915050565b6000806000606084860312156132db576132da612ec3565b5b60006132e986828701613143565b93505060206132fa86828701613143565b925050604061330b86828701613064565b9150509250925092565b600080fd5b7f4e487b7100000000000000000000000000000000000000000000000000000000600052604160045260246000fd5b61335282612fd7565b810181811067ffffffffffffffff821117156133715761337061331a565b5b80604052505050565b6000613384612eb9565b90506133908282613349565b919050565b600067ffffffffffffffff8211156133b0576133af61331a565b5b6133b982612fd7565b9050602081019050919050565b82818337600083830152505050565b60006133e86133e384613395565b61337a565b90508281526020810184848401111561340457613403613315565b5b61340f8482856133c6565b509392505050565b600082601f83011261342c5761342b6131bc565b5b813561343c8482602086016133d5565b91505092915050565b60006020828403121561345b5761345a612ec3565b5b600082013567ffffffffffffffff81111561347957613478612ec8565b5b61348584828501613417565b91505092915050565b61349781612f52565b81146134a257600080fd5b50565b6000813590506134b48161348e565b92915050565b600080604083850312156134d1576134d0612ec3565b5b60006134df85828601613143565b92505060206134f0858286016134a5565b9150509250929050565b600067ffffffffffffffff8211156135155761351461331a565b5b61351e82612fd7565b9050602081019050919050565b600061353e613539846134fa565b61337a565b90508281526020810184848401111561355a57613559613315565b5b6135658482856133c6565b509392505050565b600082601f830112613582576135816131bc565b5b813561359284826020860161352b565b91505092915050565b600080600080608085870312156135b5576135b4612ec3565b5b60006135c387828801613143565b94505060206135d487828801613143565b93505060406135e587828801613064565b925050606085013567ffffffffffffffff81111561360657613605612ec8565b5b6136128782880161356d565b91505092959194509250565b60008060008060006080868803121561363a57613639612ec3565b5b60006136488882890161319d565b955050602086013567ffffffffffffffff81111561366957613668612ec8565b5b613675888289016131cb565b9450945050604061368888828901613064565b925050606061369988828901613143565b9150509295509295909350565b600080604083850312156136bd576136bc612ec3565b5b60006136cb85828601613143565b92505060206136dc85828601613143565b9150509250929050565b7f4e487b7100000000000000000000000000000000000000000000000000000000600052602260045260246000fd5b6000600282049050600182168061372d57607f821691505b6020821081036137405761373f6136e6565b5b50919050565b7f566f7563686572206e6f74206f776e6564206279207468652072656465656d6560008201527f7200000000000000000000000000000000000000000000000000000000000000602082015250565b60006137a2602183612f93565b91506137ad82613746565b604082019050919050565b600060208201905081810360008301526137d181613795565b9050919050565b6000819050919050565b6137eb816137d8565b82525050565b600060408201905061380660008301856137e2565b61381360208301846130d8565b9392505050565b7f5369676e617475726520696e76616c6964206f7220756e617574686f72697a6560008201527f6400000000000000000000000000000000000000000000000000000000000000602082015250565b6000613876602183612f93565b91506138818261381a565b604082019050919050565b600060208201905081810360008301526138a581613869565b9050919050565b7f4e6f2061636365737320746f2072657365727665204e46540000000000000000600082015250565b60006138e2601883612f93565b91506138ed826138ac565b602082019050919050565b60006020820190508181036000830152613911816138d5565b9050919050565b60008190508160005260206000209050919050565b60006020601f8301049050919050565b600082821b905092915050565b60006008830261397a7fffffffffffffffffffffffffffffffffffffffffffffffffffffffffffffffff8261393d565b613984868361393d565b95508019841693508086168417925050509392505050565b6000819050919050565b60006139c16139bc6139b784613043565b61399c565b613043565b9050919050565b6000819050919050565b6139db836139a6565b6139ef6139e7826139c8565b84845461394a565b825550505050565b600090565b613a046139f7565b613a0f8184846139d2565b505050565b5b81811015613a3357613a286000826139fc565b600181019050613a15565b5050565b601f821115613a7857613a4981613918565b613a528461392d565b81016020851015613a61578190505b613a75613a6d8561392d565b830182613a14565b50505b505050565b600082821c905092915050565b6000613a9b60001984600802613a7d565b1980831691505092915050565b6000613ab48383613a8a565b9150826002028217905092915050565b613acd82612f88565b67ffffffffffffffff811115613ae657613ae561331a565b5b613af08254613715565b613afb828285613a37565b600060209050601f831160018114613b2e5760008415613b1c578287015190505b613b268582613aa8565b865550613b8e565b601f198416613b3c86613918565b60005b82811015613b6457848901518255600182019150602085019450602081019050613b3f565b86831015613b815784890151613b7d601f891682613a8a565b8355505b6001600288020188555050505b505050505050565b7f53616c65206e6f74207374617274656400000000000000000000000000000000600082015250565b6000613bcc601083612f93565b9150613bd782613b96565b602082019050919050565b60006020820190508181036000830152613bfb81613bbf565b9050919050565b7f4e487b7100000000000000000000000000000000000000000000000000000000600052601160045260246000fd5b6000613c3c82613043565b9150613c4783613043565b9250827fffffffffffffffffffffffffffffffffffffffffffffffffffffffffffffffff03821115613c7c57613c7b613c02565b5b828201905092915050565b7f4e6f7420656e6f756768206d61784d696e74436f756e7420706572206164647260008201527f6573732070657220616464726573730000000000000000000000000000000000602082015250565b6000613ce3602f83612f93565b9150613cee82613c87565b604082019050919050565b60006020820190508181036000830152613d1281613cd6565b9050919050565b7f457863656564206d617820746f74616c207570706c7900000000000000000000600082015250565b6000613d4f601683612f93565b9150613d5a82613d19565b602082019050919050565b60006020820190508181036000830152613d7e81613d42565b9050919050565b6000613d9082613043565b9150613d9b83613043565b9250817fffffffffffffffffffffffffffffffffffffffffffffffffffffffffffffffff0483118215151615613dd457613dd3613c02565b5b828202905092915050565b7f4e6f7420656e6f7567682066756e6420746f206d696e74204e46540000000000600082015250565b6000613e15601b83612f93565b9150613e2082613ddf565b602082019050919050565b60006020820190508181036000830152613e4481613e08565b9050919050565b7f4f776e61626c653a2063616c6c6572206973206e6f7420746865206f776e6572600082015250565b6000613e81602083612f93565b9150613e8c82613e4b565b602082019050919050565b60006020820190508181036000830152613eb081613e74565b9050919050565b7f4e6f7420656e6f756768206d61784d696e74436f756e7420706572206164647260008201527f6573730000000000000000000000000000000000000000000000000000000000602082015250565b6000613f13602383612f93565b9150613f1e82613eb7565b604082019050919050565b60006020820190508181036000830152613f4281613f06565b9050919050565b7f457863656564206d617820746f74616c20737570706c79000000000000000000600082015250565b6000613f7f601783612f93565b9150613f8a82613f49565b602082019050919050565b60006020820190508181036000830152613fae81613f72565b9050919050565b600081905092915050565b6000613fcb82612f88565b613fd58185613fb5565b9350613fe5818560208601612fa4565b80840191505092915050565b6000613ffd8285613fc0565b91506140098284613fc0565b91508190509392505050565b7f4578636565642066726565206d696e74206c696d697400000000000000000000600082015250565b600061404b601683612f93565b915061405682614015565b602082019050919050565b6000602082019050818103600083015261407a8161403e565b9050919050565b7f4e6f7420656e6f7567682066756e640000000000000000000000000000000000600082015250565b60006140b7600f83612f93565b91506140c282614081565b602082019050919050565b600060208201905081810360008301526140e6816140aa565b9050919050565b7f4f776e61626c653a206e6577206f776e657220697320746865207a65726f206160008201527f6464726573730000000000000000000000000000000000000000000000000000602082015250565b6000614149602683612f93565b9150614154826140ed565b604082019050919050565b600060208201905081810360008301526141788161413c565b9050919050565b7f416464726573733a20696e73756666696369656e742062616c616e6365000000600082015250565b60006141b5601d83612f93565b91506141c08261417f565b602082019050919050565b600060208201905081810360008301526141e4816141a8565b9050919050565b600081905092915050565b50565b60006142066000836141eb565b9150614211826141f6565b600082019050919050565b6000614227826141f9565b9150819050919050565b7f416464726573733a20756e61626c6520746f2073656e642076616c75652c207260008201527f6563697069656e74206d61792068617665207265766572746564000000000000602082015250565b600061428d603a83612f93565b915061429882614231565b604082019050919050565b600060208201905081810360008301526142bc81614280565b9050919050565b600081519050919050565b600082825260208201905092915050565b60006142ea826142c3565b6142f481856142ce565b9350614304818560208601612fa4565b61430d81612fd7565b840191505092915050565b600060808201905061432d60008301876130d8565b61433a60208301866130d8565b6143476040830185613102565b818103606083015261435981846142df565b905095945050505050565b60008151905061437381612ef9565b92915050565b60006020828403121561438f5761438e612ec3565b5b600061439d84828501614364565b91505092915050565b7f1901000000000000000000000000000000000000000000000000000000000000600082015250565b60006143dc600283613fb5565b91506143e7826143a6565b600282019050919050565b6000819050919050565b61440d614408826137d8565b6143f2565b82525050565b600061441e826143cf565b915061442a82856143fc565b60208201915061443a82846143fc565b6020820191508190509392505050565b7f4e487b7100000000000000000000000000000000000000000000000000000000600052602160045260246000fd5b7f45434453413a20696e76616c6964207369676e61747572650000000000000000600082015250565b60006144af601883612f93565b91506144ba82614479565b602082019050919050565b600060208201905081810360008301526144de816144a2565b9050919050565b7f45434453413a20696e76616c6964207369676e6174757265206c656e67746800600082015250565b600061451b601f83612f93565b9150614526826144e5565b602082019050919050565b6000602082019050818103600083015261454a8161450e565b9050919050565b7f45434453413a20696e76616c6964207369676e6174757265202773272076616c60008201527f7565000000000000000000000000000000000000000000000000000000000000602082015250565b60006145ad602283612f93565b91506145b882614551565b604082019050919050565b600060208201905081810360008301526145dc816145a0565b9050919050565b7f45434453413a20696e76616c6964207369676e6174757265202776272076616c60008201527f7565000000000000000000000000000000000000000000000000000000000000602082015250565b600061463f602283612f93565b915061464a826145e3565b604082019050919050565b6000602082019050818103600083015261466e81614632565b9050919050565b600060a08201905061468a60008301886137e2565b61469760208301876137e2565b6146a460408301866137e2565b6146b16060830185613102565b6146be60808301846130d8565b9695505050505050565b600060ff82169050919050565b6146de816146c8565b82525050565b60006080820190506146f960008301876137e2565b61470660208301866146d5565b61471360408301856137e2565b61472060608301846137e2565b9594505050505056fea26469706673582212207f98157471e093bd34b4daab1c7be4d2abab1b92b28f77d270e3c55640e06b1d64736f6c634300080f0033","opcodes":"PUSH2 0x140 PUSH1 0x40 MSTORE PUSH1 0x0 PUSH1 0xA SSTORE CALLVALUE DUP1 ISZERO PUSH3 0x17 JUMPI PUSH1 0x0 DUP1 REVERT JUMPDEST POP PUSH1 0x40 MLOAD PUSH3 0x50B1 CODESIZE SUB DUP1 PUSH3 0x50B1 DUP4 CODECOPY DUP2 DUP2 ADD PUSH1 0x40 MSTORE DUP2 ADD SWAP1 PUSH3 0x3D SWAP2 SWAP1 PUSH3 0x449 JUMP JUMPDEST DUP3 PUSH1 0x40 MLOAD DUP1 PUSH1 0x40 ADD PUSH1 0x40 MSTORE DUP1 PUSH1 0x1 DUP2 MSTORE PUSH1 0x20 ADD PUSH32 0x3100000000000000000000000000000000000000000000000000000000000000 DUP2 MSTORE POP DUP5 DUP5 PUSH3 0x96 PUSH3 0x8A PUSH3 0x19F PUSH1 0x20 SHL PUSH1 0x20 SHR JUMP JUMPDEST PUSH3 0x1A7 PUSH1 0x20 SHL PUSH1 0x20 SHR JUMP JUMPDEST DUP2 PUSH1 0x3 SWAP1 DUP2 PUSH3 0xA7 SWAP2 SWAP1 PUSH3 0x74D JUMP JUMPDEST POP DUP1 PUSH1 0x4 SWAP1 DUP2 PUSH3 0xB9 SWAP2 SWAP1 PUSH3 0x74D JUMP JUMPDEST POP PUSH3 0xCA PUSH3 0x26B PUSH1 0x20 SHL PUSH1 0x20 SHR JUMP JUMPDEST PUSH1 0x1 DUP2 SWAP1 SSTORE POP POP POP PUSH1 0x0 DUP3 DUP1 MLOAD SWAP1 PUSH1 0x20 ADD KECCAK256 SWAP1 POP PUSH1 0x0 DUP3 DUP1 MLOAD SWAP1 PUSH1 0x20 ADD KECCAK256 SWAP1 POP PUSH1 0x0 PUSH32 0x8B73C3C69BB8FE3D512ECC4CF759CC79239F7B179B0FFACAA9A75D522B39400F SWAP1 POP DUP3 PUSH1 0xE0 DUP2 DUP2 MSTORE POP POP DUP2 PUSH2 0x100 DUP2 DUP2 MSTORE POP POP CHAINID PUSH1 0xA0 DUP2 DUP2 MSTORE POP POP PUSH3 0x13B DUP2 DUP5 DUP5 PUSH3 0x270 PUSH1 0x20 SHL PUSH1 0x20 SHR JUMP JUMPDEST PUSH1 0x80 DUP2 DUP2 MSTORE POP POP ADDRESS PUSH20 0xFFFFFFFFFFFFFFFFFFFFFFFFFFFFFFFFFFFFFFFF AND PUSH1 0xC0 DUP2 PUSH20 0xFFFFFFFFFFFFFFFFFFFFFFFFFFFFFFFFFFFFFFFF AND DUP2 MSTORE POP POP DUP1 PUSH2 0x120 DUP2 DUP2 MSTORE POP POP POP POP POP POP POP DUP1 PUSH1 0x9 SWAP1 DUP2 PUSH3 0x195 SWAP2 SWAP1 PUSH3 0x74D JUMP JUMPDEST POP POP POP POP PUSH3 0x902 JUMP JUMPDEST PUSH1 0x0 CALLER SWAP1 POP SWAP1 JUMP JUMPDEST PUSH1 0x0 DUP1 PUSH1 0x0 SWAP1 SLOAD SWAP1 PUSH2 0x100 EXP SWAP1 DIV PUSH20 0xFFFFFFFFFFFFFFFFFFFFFFFFFFFFFFFFFFFFFFFF AND SWAP1 POP DUP2 PUSH1 0x0 DUP1 PUSH2 0x100 EXP DUP2 SLOAD DUP2 PUSH20 0xFFFFFFFFFFFFFFFFFFFFFFFFFFFFFFFFFFFFFFFF MUL NOT AND SWAP1 DUP4 PUSH20 0xFFFFFFFFFFFFFFFFFFFFFFFFFFFFFFFFFFFFFFFF AND MUL OR SWAP1 SSTORE POP DUP2 PUSH20 0xFFFFFFFFFFFFFFFFFFFFFFFFFFFFFFFFFFFFFFFF AND DUP2 PUSH20 0xFFFFFFFFFFFFFFFFFFFFFFFFFFFFFFFFFFFFFFFF AND PUSH32 0x8BE0079C531659141344CD1FD0A4F28419497F9722A3DAAFE3B4186F6B6457E0 PUSH1 0x40 MLOAD PUSH1 0x40 MLOAD DUP1 SWAP2 SUB SWAP1 LOG3 POP POP JUMP JUMPDEST PUSH1 0x0 SWAP1 JUMP JUMPDEST PUSH1 0x0 DUP4 DUP4 DUP4 CHAINID ADDRESS PUSH1 0x40 MLOAD PUSH1 0x20 ADD PUSH3 0x28D SWAP6 SWAP5 SWAP4 SWAP3 SWAP2 SWAP1 PUSH3 0x8A5 JUMP JUMPDEST PUSH1 0x40 MLOAD PUSH1 0x20 DUP2 DUP4 SUB SUB DUP2 MSTORE SWAP1 PUSH1 0x40 MSTORE DUP1 MLOAD SWAP1 PUSH1 0x20 ADD KECCAK256 SWAP1 POP SWAP4 SWAP3 POP POP POP JUMP JUMPDEST PUSH1 0x0 PUSH1 0x40 MLOAD SWAP1 POP SWAP1 JUMP JUMPDEST PUSH1 0x0 DUP1 REVERT JUMPDEST PUSH1 0x0 DUP1 REVERT JUMPDEST PUSH1 0x0 DUP1 REVERT JUMPDEST PUSH1 0x0 DUP1 REVERT JUMPDEST PUSH1 0x0 PUSH1 0x1F NOT PUSH1 0x1F DUP4 ADD AND SWAP1 POP SWAP2 SWAP1 POP JUMP JUMPDEST PUSH32 0x4E487B7100000000000000000000000000000000000000000000000000000000 PUSH1 0x0 MSTORE PUSH1 0x41 PUSH1 0x4 MSTORE PUSH1 0x24 PUSH1 0x0 REVERT JUMPDEST PUSH3 0x315 DUP3 PUSH3 0x2CA JUMP JUMPDEST DUP2 ADD DUP2 DUP2 LT PUSH8 0xFFFFFFFFFFFFFFFF DUP3 GT OR ISZERO PUSH3 0x337 JUMPI PUSH3 0x336 PUSH3 0x2DB JUMP JUMPDEST JUMPDEST DUP1 PUSH1 0x40 MSTORE POP POP POP JUMP JUMPDEST PUSH1 0x0 PUSH3 0x34C PUSH3 0x2AC JUMP JUMPDEST SWAP1 POP PUSH3 0x35A DUP3 DUP3 PUSH3 0x30A JUMP JUMPDEST SWAP2 SWAP1 POP JUMP JUMPDEST PUSH1 0x0 PUSH8 0xFFFFFFFFFFFFFFFF DUP3 GT ISZERO PUSH3 0x37D JUMPI PUSH3 0x37C PUSH3 0x2DB JUMP JUMPDEST JUMPDEST PUSH3 0x388 DUP3 PUSH3 0x2CA JUMP JUMPDEST SWAP1 POP PUSH1 0x20 DUP2 ADD SWAP1 POP SWAP2 SWAP1 POP JUMP JUMPDEST PUSH1 0x0 JUMPDEST DUP4 DUP2 LT ISZERO PUSH3 0x3B5 JUMPI DUP1 DUP3 ADD MLOAD DUP2 DUP5 ADD MSTORE PUSH1 0x20 DUP2 ADD SWAP1 POP PUSH3 0x398 JUMP JUMPDEST DUP4 DUP2 GT ISZERO PUSH3 0x3C5 JUMPI PUSH1 0x0 DUP5 DUP5 ADD MSTORE JUMPDEST POP POP POP POP JUMP JUMPDEST PUSH1 0x0 PUSH3 0x3E2 PUSH3 0x3DC DUP5 PUSH3 0x35F JUMP JUMPDEST PUSH3 0x340 JUMP JUMPDEST SWAP1 POP DUP3 DUP2 MSTORE PUSH1 0x20 DUP2 ADD DUP5 DUP5 DUP5 ADD GT ISZERO PUSH3 0x401 JUMPI PUSH3 0x400 PUSH3 0x2C5 JUMP JUMPDEST JUMPDEST PUSH3 0x40E DUP5 DUP3 DUP6 PUSH3 0x395 JUMP JUMPDEST POP SWAP4 SWAP3 POP POP POP JUMP JUMPDEST PUSH1 0x0 DUP3 PUSH1 0x1F DUP4 ADD SLT PUSH3 0x42E JUMPI PUSH3 0x42D PUSH3 0x2C0 JUMP JUMPDEST JUMPDEST DUP2 MLOAD PUSH3 0x440 DUP5 DUP3 PUSH1 0x20 DUP7 ADD PUSH3 0x3CB JUMP JUMPDEST SWAP2 POP POP SWAP3 SWAP2 POP POP JUMP JUMPDEST PUSH1 0x0 DUP1 PUSH1 0x0 PUSH1 0x60 DUP5 DUP7 SUB SLT ISZERO PUSH3 0x465 JUMPI PUSH3 0x464 PUSH3 0x2B6 JUMP JUMPDEST JUMPDEST PUSH1 0x0 DUP5 ADD MLOAD PUSH8 0xFFFFFFFFFFFFFFFF DUP2 GT ISZERO PUSH3 0x486 JUMPI PUSH3 0x485 PUSH3 0x2BB JUMP JUMPDEST JUMPDEST PUSH3 0x494 DUP7 DUP3 DUP8 ADD PUSH3 0x416 JUMP JUMPDEST SWAP4 POP POP PUSH1 0x20 DUP5 ADD MLOAD PUSH8 0xFFFFFFFFFFFFFFFF DUP2 GT ISZERO PUSH3 0x4B8 JUMPI PUSH3 0x4B7 PUSH3 0x2BB JUMP JUMPDEST JUMPDEST PUSH3 0x4C6 DUP7 DUP3 DUP8 ADD PUSH3 0x416 JUMP JUMPDEST SWAP3 POP POP PUSH1 0x40 DUP5 ADD MLOAD PUSH8 0xFFFFFFFFFFFFFFFF DUP2 GT ISZERO PUSH3 0x4EA JUMPI PUSH3 0x4E9 PUSH3 0x2BB JUMP JUMPDEST JUMPDEST PUSH3 0x4F8 DUP7 DUP3 DUP8 ADD PUSH3 0x416 JUMP JUMPDEST SWAP2 POP POP SWAP3 POP SWAP3 POP SWAP3 JUMP JUMPDEST PUSH1 0x0 DUP2 MLOAD SWAP1 POP SWAP2 SWAP1 POP JUMP JUMPDEST PUSH32 0x4E487B7100000000000000000000000000000000000000000000000000000000 PUSH1 0x0 MSTORE PUSH1 0x22 PUSH1 0x4 MSTORE PUSH1 0x24 PUSH1 0x0 REVERT JUMPDEST PUSH1 0x0 PUSH1 0x2 DUP3 DIV SWAP1 POP PUSH1 0x1 DUP3 AND DUP1 PUSH3 0x555 JUMPI PUSH1 0x7F DUP3 AND SWAP2 POP JUMPDEST PUSH1 0x20 DUP3 LT DUP2 SUB PUSH3 0x56B JUMPI PUSH3 0x56A PUSH3 0x50D JUMP JUMPDEST JUMPDEST POP SWAP2 SWAP1 POP JUMP JUMPDEST PUSH1 0x0 DUP2 SWAP1 POP DUP2 PUSH1 0x0 MSTORE PUSH1 0x20 PUSH1 0x0 KECCAK256 SWAP1 POP SWAP2 SWAP1 POP JUMP JUMPDEST PUSH1 0x0 PUSH1 0x20 PUSH1 0x1F DUP4 ADD DIV SWAP1 POP SWAP2 SWAP1 POP JUMP JUMPDEST PUSH1 0x0 DUP3 DUP3 SHL SWAP1 POP SWAP3 SWAP2 POP POP JUMP JUMPDEST PUSH1 0x0 PUSH1 0x8 DUP4 MUL PUSH3 0x5D5 PUSH32 0xFFFFFFFFFFFFFFFFFFFFFFFFFFFFFFFFFFFFFFFFFFFFFFFFFFFFFFFFFFFFFFFF DUP3 PUSH3 0x596 JUMP JUMPDEST PUSH3 0x5E1 DUP7 DUP4 PUSH3 0x596 JUMP JUMPDEST SWAP6 POP DUP1 NOT DUP5 AND SWAP4 POP DUP1 DUP7 AND DUP5 OR SWAP3 POP POP POP SWAP4 SWAP3 POP POP POP JUMP JUMPDEST PUSH1 0x0 DUP2 SWAP1 POP SWAP2 SWAP1 POP JUMP JUMPDEST PUSH1 0x0 DUP2 SWAP1 POP SWAP2 SWAP1 POP JUMP JUMPDEST PUSH1 0x0 PUSH3 0x62E PUSH3 0x628 PUSH3 0x622 DUP5 PUSH3 0x5F9 JUMP JUMPDEST PUSH3 0x603 JUMP JUMPDEST PUSH3 0x5F9 JUMP JUMPDEST SWAP1 POP SWAP2 SWAP1 POP JUMP JUMPDEST PUSH1 0x0 DUP2 SWAP1 POP SWAP2 SWAP1 POP JUMP JUMPDEST PUSH3 0x64A DUP4 PUSH3 0x60D JUMP JUMPDEST PUSH3 0x662 PUSH3 0x659 DUP3 PUSH3 0x635 JUMP JUMPDEST DUP5 DUP5 SLOAD PUSH3 0x5A3 JUMP JUMPDEST DUP3 SSTORE POP POP POP POP JUMP JUMPDEST PUSH1 0x0 SWAP1 JUMP JUMPDEST PUSH3 0x679 PUSH3 0x66A JUMP JUMPDEST PUSH3 0x686 DUP2 DUP5 DUP5 PUSH3 0x63F JUMP JUMPDEST POP POP POP JUMP JUMPDEST JUMPDEST DUP2 DUP2 LT ISZERO PUSH3 0x6AE JUMPI PUSH3 0x6A2 PUSH1 0x0 DUP3 PUSH3 0x66F JUMP JUMPDEST PUSH1 0x1 DUP2 ADD SWAP1 POP PUSH3 0x68C JUMP JUMPDEST POP POP JUMP JUMPDEST PUSH1 0x1F DUP3 GT ISZERO PUSH3 0x6FD JUMPI PUSH3 0x6C7 DUP2 PUSH3 0x571 JUMP JUMPDEST PUSH3 0x6D2 DUP5 PUSH3 0x586 JUMP JUMPDEST DUP2 ADD PUSH1 0x20 DUP6 LT ISZERO PUSH3 0x6E2 JUMPI DUP2 SWAP1 POP JUMPDEST PUSH3 0x6FA PUSH3 0x6F1 DUP6 PUSH3 0x586 JUMP JUMPDEST DUP4 ADD DUP3 PUSH3 0x68B JUMP JUMPDEST POP POP JUMPDEST POP POP POP JUMP JUMPDEST PUSH1 0x0 DUP3 DUP3 SHR SWAP1 POP SWAP3 SWAP2 POP POP JUMP JUMPDEST PUSH1 0x0 PUSH3 0x722 PUSH1 0x0 NOT DUP5 PUSH1 0x8 MUL PUSH3 0x702 JUMP JUMPDEST NOT DUP1 DUP4 AND SWAP2 POP POP SWAP3 SWAP2 POP POP JUMP JUMPDEST PUSH1 0x0 PUSH3 0x73D DUP4 DUP4 PUSH3 0x70F JUMP JUMPDEST SWAP2 POP DUP3 PUSH1 0x2 MUL DUP3 OR SWAP1 POP SWAP3 SWAP2 POP POP JUMP JUMPDEST PUSH3 0x758 DUP3 PUSH3 0x502 JUMP JUMPDEST PUSH8 0xFFFFFFFFFFFFFFFF DUP2 GT ISZERO PUSH3 0x774 JUMPI PUSH3 0x773 PUSH3 0x2DB JUMP JUMPDEST JUMPDEST PUSH3 0x780 DUP3 SLOAD PUSH3 0x53C JUMP JUMPDEST PUSH3 0x78D DUP3 DUP3 DUP6 PUSH3 0x6B2 JUMP JUMPDEST PUSH1 0x0 PUSH1 0x20 SWAP1 POP PUSH1 0x1F DUP4 GT PUSH1 0x1 DUP2 EQ PUSH3 0x7C5 JUMPI PUSH1 0x0 DUP5 ISZERO PUSH3 0x7B0 JUMPI DUP3 DUP8 ADD MLOAD SWAP1 POP JUMPDEST PUSH3 0x7BC DUP6 DUP3 PUSH3 0x72F JUMP JUMPDEST DUP7 SSTORE POP PUSH3 0x82C JUMP JUMPDEST PUSH1 0x1F NOT DUP5 AND PUSH3 0x7D5 DUP7 PUSH3 0x571 JUMP JUMPDEST PUSH1 0x0 JUMPDEST DUP3 DUP2 LT ISZERO PUSH3 0x7FF JUMPI DUP5 DUP10 ADD MLOAD DUP3 SSTORE PUSH1 0x1 DUP3 ADD SWAP2 POP PUSH1 0x20 DUP6 ADD SWAP5 POP PUSH1 0x20 DUP2 ADD SWAP1 POP PUSH3 0x7D8 JUMP JUMPDEST DUP7 DUP4 LT ISZERO PUSH3 0x81F JUMPI DUP5 DUP10 ADD MLOAD PUSH3 0x81B PUSH1 0x1F DUP10 AND DUP3 PUSH3 0x70F JUMP JUMPDEST DUP4 SSTORE POP JUMPDEST PUSH1 0x1 PUSH1 0x2 DUP9 MUL ADD DUP9 SSTORE POP POP POP JUMPDEST POP POP POP POP POP POP JUMP JUMPDEST PUSH1 0x0 DUP2 SWAP1 POP SWAP2 SWAP1 POP JUMP JUMPDEST PUSH3 0x849 DUP2 PUSH3 0x834 JUMP JUMPDEST DUP3 MSTORE POP POP JUMP JUMPDEST PUSH3 0x85A DUP2 PUSH3 0x5F9 JUMP JUMPDEST DUP3 MSTORE POP POP JUMP JUMPDEST PUSH1 0x0 PUSH20 0xFFFFFFFFFFFFFFFFFFFFFFFFFFFFFFFFFFFFFFFF DUP3 AND SWAP1 POP SWAP2 SWAP1 POP JUMP JUMPDEST PUSH1 0x0 PUSH3 0x88D DUP3 PUSH3 0x860 JUMP JUMPDEST SWAP1 POP SWAP2 SWAP1 POP JUMP JUMPDEST PUSH3 0x89F DUP2 PUSH3 0x880 JUMP JUMPDEST DUP3 MSTORE POP POP JUMP JUMPDEST PUSH1 0x0 PUSH1 0xA0 DUP3 ADD SWAP1 POP PUSH3 0x8BC PUSH1 0x0 DUP4 ADD DUP9 PUSH3 0x83E JUMP JUMPDEST PUSH3 0x8CB PUSH1 0x20 DUP4 ADD DUP8 PUSH3 0x83E JUMP JUMPDEST PUSH3 0x8DA PUSH1 0x40 DUP4 ADD DUP7 PUSH3 0x83E JUMP JUMPDEST PUSH3 0x8E9 PUSH1 0x60 DUP4 ADD DUP6 PUSH3 0x84F JUMP JUMPDEST PUSH3 0x8F8 PUSH1 0x80 DUP4 ADD DUP5 PUSH3 0x894 JUMP JUMPDEST SWAP7 SWAP6 POP POP POP POP POP POP JUMP JUMPDEST PUSH1 0x80 MLOAD PUSH1 0xA0 MLOAD PUSH1 0xC0 MLOAD PUSH1 0xE0 MLOAD PUSH2 0x100 MLOAD PUSH2 0x120 MLOAD PUSH2 0x475F PUSH3 0x952 PUSH1 0x0 CODECOPY PUSH1 0x0 PUSH2 0x27B5 ADD MSTORE PUSH1 0x0 PUSH2 0x27F7 ADD MSTORE PUSH1 0x0 PUSH2 0x27D6 ADD MSTORE PUSH1 0x0 PUSH2 0x270B ADD MSTORE PUSH1 0x0 PUSH2 0x2761 ADD MSTORE PUSH1 0x0 PUSH2 0x278A ADD MSTORE PUSH2 0x475F PUSH1 0x0 RETURN INVALID PUSH1 0x80 PUSH1 0x40 MSTORE PUSH1 0x4 CALLDATASIZE LT PUSH2 0x230 JUMPI PUSH1 0x0 CALLDATALOAD PUSH1 0xE0 SHR DUP1 PUSH4 0x6817C76C GT PUSH2 0x12E JUMPI DUP1 PUSH4 0xB88D4FDE GT PUSH2 0xAB JUMPI DUP1 PUSH4 0xDCD315EB GT PUSH2 0x6F JUMPI DUP1 PUSH4 0xDCD315EB EQ PUSH2 0x7F6 JUMPI DUP1 PUSH4 0xE55F58BB EQ PUSH2 0x821 JUMPI DUP1 PUSH4 0xE985E9C5 EQ PUSH2 0x84C JUMPI DUP1 PUSH4 0xF2FDE38B EQ PUSH2 0x889 JUMPI DUP1 PUSH4 0xF43463F7 EQ PUSH2 0x8B2 JUMPI PUSH2 0x230 JUMP JUMPDEST DUP1 PUSH4 0xB88D4FDE EQ PUSH2 0x72D JUMPI DUP1 PUSH4 0xC87B56DD EQ PUSH2 0x749 JUMPI DUP1 PUSH4 0xCC47A40B EQ PUSH2 0x786 JUMPI DUP1 PUSH4 0xD27ADB6C EQ PUSH2 0x7AF JUMPI DUP1 PUSH4 0xD3CF00A3 EQ PUSH2 0x7CB JUMPI PUSH2 0x230 JUMP JUMPDEST DUP1 PUSH4 0x8DA5CB5B GT PUSH2 0xF2 JUMPI DUP1 PUSH4 0x8DA5CB5B EQ PUSH2 0x655 JUMPI DUP1 PUSH4 0x95D89B41 EQ PUSH2 0x680 JUMPI DUP1 PUSH4 0xA22CB465 EQ PUSH2 0x6AB JUMPI DUP1 PUSH4 0xAFE11C03 EQ PUSH2 0x6D4 JUMPI DUP1 PUSH4 0xB7764688 EQ PUSH2 0x6F0 JUMPI PUSH2 0x230 JUMP JUMPDEST DUP1 PUSH4 0x6817C76C EQ PUSH2 0x58F JUMPI DUP1 PUSH4 0x6DAB9CD2 EQ PUSH2 0x5BA JUMPI DUP1 PUSH4 0x70A08231 EQ PUSH2 0x5D6 JUMPI DUP1 PUSH4 0x715018A6 EQ PUSH2 0x613 JUMPI DUP1 PUSH4 0x79AC23B2 EQ PUSH2 0x62A JUMPI PUSH2 0x230 JUMP JUMPDEST DUP1 PUSH4 0x21489288 GT PUSH2 0x1BC JUMPI DUP1 PUSH4 0x3CCFD60B GT PUSH2 0x180 JUMPI DUP1 PUSH4 0x3CCFD60B EQ PUSH2 0x4B9 JUMPI DUP1 PUSH4 0x42842E0E EQ PUSH2 0x4D0 JUMPI DUP1 PUSH4 0x4B6A223E EQ PUSH2 0x4EC JUMPI DUP1 PUSH4 0x55F804B3 EQ PUSH2 0x529 JUMPI DUP1 PUSH4 0x6352211E EQ PUSH2 0x552 JUMPI PUSH2 0x230 JUMP JUMPDEST DUP1 PUSH4 0x21489288 EQ PUSH2 0x3DF JUMPI DUP1 PUSH4 0x23B872DD EQ PUSH2 0x41C JUMPI DUP1 PUSH4 0x2BB1A91A EQ PUSH2 0x438 JUMPI DUP1 PUSH4 0x32CB6B0C EQ PUSH2 0x463 JUMPI DUP1 PUSH4 0x3798470A EQ PUSH2 0x48E JUMPI PUSH2 0x230 JUMP JUMPDEST DUP1 PUSH4 0x95EA7B3 GT PUSH2 0x203 JUMPI DUP1 PUSH4 0x95EA7B3 EQ PUSH2 0x305 JUMPI DUP1 PUSH4 0x18160DDD EQ PUSH2 0x321 JUMPI DUP1 PUSH4 0x188CF2D1 EQ PUSH2 0x34C JUMPI DUP1 PUSH4 0x1892FEB1 EQ PUSH2 0x377 JUMPI DUP1 PUSH4 0x19DA5B8A EQ PUSH2 0x3A2 JUMPI PUSH2 0x230 JUMP JUMPDEST DUP1 PUSH4 0x1FFC9A7 EQ PUSH2 0x235 JUMPI DUP1 PUSH4 0x6FDDE03 EQ PUSH2 0x272 JUMPI DUP1 PUSH4 0x81812FC EQ PUSH2 0x29D JUMPI DUP1 PUSH4 0x8346D85 EQ PUSH2 0x2DA JUMPI JUMPDEST PUSH1 0x0 DUP1 REVERT JUMPDEST CALLVALUE DUP1 ISZERO PUSH2 0x241 JUMPI PUSH1 0x0 DUP1 REVERT JUMPDEST POP PUSH2 0x25C PUSH1 0x4 DUP1 CALLDATASIZE SUB DUP2 ADD SWAP1 PUSH2 0x257 SWAP2 SWAP1 PUSH2 0x2F25 JUMP JUMPDEST PUSH2 0x8DD JUMP JUMPDEST PUSH1 0x40 MLOAD PUSH2 0x269 SWAP2 SWAP1 PUSH2 0x2F6D JUMP JUMPDEST PUSH1 0x40 MLOAD DUP1 SWAP2 SUB SWAP1 RETURN JUMPDEST CALLVALUE DUP1 ISZERO PUSH2 0x27E JUMPI PUSH1 0x0 DUP1 REVERT JUMPDEST POP PUSH2 0x287 PUSH2 0x96F JUMP JUMPDEST PUSH1 0x40 MLOAD PUSH2 0x294 SWAP2 SWAP1 PUSH2 0x3021 JUMP JUMPDEST PUSH1 0x40 MLOAD DUP1 SWAP2 SUB SWAP1 RETURN JUMPDEST CALLVALUE DUP1 ISZERO PUSH2 0x2A9 JUMPI PUSH1 0x0 DUP1 REVERT JUMPDEST POP PUSH2 0x2C4 PUSH1 0x4 DUP1 CALLDATASIZE SUB DUP2 ADD SWAP1 PUSH2 0x2BF SWAP2 SWAP1 PUSH2 0x3079 JUMP JUMPDEST PUSH2 0xA01 JUMP JUMPDEST PUSH1 0x40 MLOAD PUSH2 0x2D1 SWAP2 SWAP1 PUSH2 0x30E7 JUMP JUMPDEST PUSH1 0x40 MLOAD DUP1 SWAP2 SUB SWAP1 RETURN JUMPDEST CALLVALUE DUP1 ISZERO PUSH2 0x2E6 JUMPI PUSH1 0x0 DUP1 REVERT JUMPDEST POP PUSH2 0x2EF PUSH2 0xA80 JUMP JUMPDEST PUSH1 0x40 MLOAD PUSH2 0x2FC SWAP2 SWAP1 PUSH2 0x3111 JUMP JUMPDEST PUSH1 0x40 MLOAD DUP1 SWAP2 SUB SWAP1 RETURN JUMPDEST PUSH2 0x31F PUSH1 0x4 DUP1 CALLDATASIZE SUB DUP2 ADD SWAP1 PUSH2 0x31A SWAP2 SWAP1 PUSH2 0x3158 JUMP JUMPDEST PUSH2 0xA86 JUMP JUMPDEST STOP JUMPDEST CALLVALUE DUP1 ISZERO PUSH2 0x32D JUMPI PUSH1 0x0 DUP1 REVERT JUMPDEST POP PUSH2 0x336 PUSH2 0xBCA JUMP JUMPDEST PUSH1 0x40 MLOAD PUSH2 0x343 SWAP2 SWAP1 PUSH2 0x3111 JUMP JUMPDEST PUSH1 0x40 MLOAD DUP1 SWAP2 SUB SWAP1 RETURN JUMPDEST CALLVALUE DUP1 ISZERO PUSH2 0x358 JUMPI PUSH1 0x0 DUP1 REVERT JUMPDEST POP PUSH2 0x361 PUSH2 0xBE1 JUMP JUMPDEST PUSH1 0x40 MLOAD PUSH2 0x36E SWAP2 SWAP1 PUSH2 0x3111 JUMP JUMPDEST PUSH1 0x40 MLOAD DUP1 SWAP2 SUB SWAP1 RETURN JUMPDEST CALLVALUE DUP1 ISZERO PUSH2 0x383 JUMPI PUSH1 0x0 DUP1 REVERT JUMPDEST POP PUSH2 0x38C PUSH2 0xBE6 JUMP JUMPDEST PUSH1 0x40 MLOAD PUSH2 0x399 SWAP2 SWAP1 PUSH2 0x3111 JUMP JUMPDEST PUSH1 0x40 MLOAD DUP1 SWAP2 SUB SWAP1 RETURN JUMPDEST CALLVALUE DUP1 ISZERO PUSH2 0x3AE JUMPI PUSH1 0x0 DUP1 REVERT JUMPDEST POP PUSH2 0x3C9 PUSH1 0x4 DUP1 CALLDATASIZE SUB DUP2 ADD SWAP1 PUSH2 0x3C4 SWAP2 SWAP1 PUSH2 0x3221 JUMP JUMPDEST PUSH2 0xBEB JUMP JUMPDEST PUSH1 0x40 MLOAD PUSH2 0x3D6 SWAP2 SWAP1 PUSH2 0x3021 JUMP JUMPDEST PUSH1 0x40 MLOAD DUP1 SWAP2 SUB SWAP1 RETURN JUMPDEST CALLVALUE DUP1 ISZERO PUSH2 0x3EB JUMPI PUSH1 0x0 DUP1 REVERT JUMPDEST POP PUSH2 0x406 PUSH1 0x4 DUP1 CALLDATASIZE SUB DUP2 ADD SWAP1 PUSH2 0x401 SWAP2 SWAP1 PUSH2 0x3295 JUMP JUMPDEST PUSH2 0xDC5 JUMP JUMPDEST PUSH1 0x40 MLOAD PUSH2 0x413 SWAP2 SWAP1 PUSH2 0x3111 JUMP JUMPDEST PUSH1 0x40 MLOAD DUP1 SWAP2 SUB SWAP1 RETURN JUMPDEST PUSH2 0x436 PUSH1 0x4 DUP1 CALLDATASIZE SUB DUP2 ADD SWAP1 PUSH2 0x431 SWAP2 SWAP1 PUSH2 0x32C2 JUMP JUMPDEST PUSH2 0xDDD JUMP JUMPDEST STOP JUMPDEST CALLVALUE DUP1 ISZERO PUSH2 0x444 JUMPI PUSH1 0x0 DUP1 REVERT JUMPDEST POP PUSH2 0x44D PUSH2 0x10FF JUMP JUMPDEST PUSH1 0x40 MLOAD PUSH2 0x45A SWAP2 SWAP1 PUSH2 0x3111 JUMP JUMPDEST PUSH1 0x40 MLOAD DUP1 SWAP2 SUB SWAP1 RETURN JUMPDEST CALLVALUE DUP1 ISZERO PUSH2 0x46F JUMPI PUSH1 0x0 DUP1 REVERT JUMPDEST POP PUSH2 0x478 PUSH2 0x1107 JUMP JUMPDEST PUSH1 0x40 MLOAD PUSH2 0x485 SWAP2 SWAP1 PUSH2 0x3111 JUMP JUMPDEST PUSH1 0x40 MLOAD DUP1 SWAP2 SUB SWAP1 RETURN JUMPDEST CALLVALUE DUP1 ISZERO PUSH2 0x49A JUMPI PUSH1 0x0 DUP1 REVERT JUMPDEST POP PUSH2 0x4A3 PUSH2 0x110D JUMP JUMPDEST PUSH1 0x40 MLOAD PUSH2 0x4B0 SWAP2 SWAP1 PUSH2 0x3111 JUMP JUMPDEST PUSH1 0x40 MLOAD DUP1 SWAP2 SUB SWAP1 RETURN JUMPDEST CALLVALUE DUP1 ISZERO PUSH2 0x4C5 JUMPI PUSH1 0x0 DUP1 REVERT JUMPDEST POP PUSH2 0x4CE PUSH2 0x1112 JUMP JUMPDEST STOP JUMPDEST PUSH2 0x4EA PUSH1 0x4 DUP1 CALLDATASIZE SUB DUP2 ADD SWAP1 PUSH2 0x4E5 SWAP2 SWAP1 PUSH2 0x32C2 JUMP JUMPDEST PUSH2 0x11F2 JUMP JUMPDEST STOP JUMPDEST CALLVALUE DUP1 ISZERO PUSH2 0x4F8 JUMPI PUSH1 0x0 DUP1 REVERT JUMPDEST POP PUSH2 0x513 PUSH1 0x4 DUP1 CALLDATASIZE SUB DUP2 ADD SWAP1 PUSH2 0x50E SWAP2 SWAP1 PUSH2 0x3295 JUMP JUMPDEST PUSH2 0x1212 JUMP JUMPDEST PUSH1 0x40 MLOAD PUSH2 0x520 SWAP2 SWAP1 PUSH2 0x3111 JUMP JUMPDEST PUSH1 0x40 MLOAD DUP1 SWAP2 SUB SWAP1 RETURN JUMPDEST CALLVALUE DUP1 ISZERO PUSH2 0x535 JUMPI PUSH1 0x0 DUP1 REVERT JUMPDEST POP PUSH2 0x550 PUSH1 0x4 DUP1 CALLDATASIZE SUB DUP2 ADD SWAP1 PUSH2 0x54B SWAP2 SWAP1 PUSH2 0x3445 JUMP JUMPDEST PUSH2 0x122A JUMP JUMPDEST STOP JUMPDEST CALLVALUE DUP1 ISZERO PUSH2 0x55E JUMPI PUSH1 0x0 DUP1 REVERT JUMPDEST POP PUSH2 0x579 PUSH1 0x4 DUP1 CALLDATASIZE SUB DUP2 ADD SWAP1 PUSH2 0x574 SWAP2 SWAP1 PUSH2 0x3079 JUMP JUMPDEST PUSH2 0x130A JUMP JUMPDEST PUSH1 0x40 MLOAD PUSH2 0x586 SWAP2 SWAP1 PUSH2 0x30E7 JUMP JUMPDEST PUSH1 0x40 MLOAD DUP1 SWAP2 SUB SWAP1 RETURN JUMPDEST CALLVALUE DUP1 ISZERO PUSH2 0x59B JUMPI PUSH1 0x0 DUP1 REVERT JUMPDEST POP PUSH2 0x5A4 PUSH2 0x131C JUMP JUMPDEST PUSH1 0x40 MLOAD PUSH2 0x5B1 SWAP2 SWAP1 PUSH2 0x3111 JUMP JUMPDEST PUSH1 0x40 MLOAD DUP1 SWAP2 SUB SWAP1 RETURN JUMPDEST PUSH2 0x5D4 PUSH1 0x4 DUP1 CALLDATASIZE SUB DUP2 ADD SWAP1 PUSH2 0x5CF SWAP2 SWAP1 PUSH2 0x3158 JUMP JUMPDEST PUSH2 0x1327 JUMP JUMPDEST STOP JUMPDEST CALLVALUE DUP1 ISZERO PUSH2 0x5E2 JUMPI PUSH1 0x0 DUP1 REVERT JUMPDEST POP PUSH2 0x5FD PUSH1 0x4 DUP1 CALLDATASIZE SUB DUP2 ADD SWAP1 PUSH2 0x5F8 SWAP2 SWAP1 PUSH2 0x3295 JUMP JUMPDEST PUSH2 0x1509 JUMP JUMPDEST PUSH1 0x40 MLOAD PUSH2 0x60A SWAP2 SWAP1 PUSH2 0x3111 JUMP JUMPDEST PUSH1 0x40 MLOAD DUP1 SWAP2 SUB SWAP1 RETURN JUMPDEST CALLVALUE DUP1 ISZERO PUSH2 0x61F JUMPI PUSH1 0x0 DUP1 REVERT JUMPDEST POP PUSH2 0x628 PUSH2 0x15C1 JUMP JUMPDEST STOP JUMPDEST CALLVALUE DUP1 ISZERO PUSH2 0x636 JUMPI PUSH1 0x0 DUP1 REVERT JUMPDEST POP PUSH2 0x63F PUSH2 0x1649 JUMP JUMPDEST PUSH1 0x40 MLOAD PUSH2 0x64C SWAP2 SWAP1 PUSH2 0x3111 JUMP JUMPDEST PUSH1 0x40 MLOAD DUP1 SWAP2 SUB SWAP1 RETURN JUMPDEST CALLVALUE DUP1 ISZERO PUSH2 0x661 JUMPI PUSH1 0x0 DUP1 REVERT JUMPDEST POP PUSH2 0x66A PUSH2 0x1654 JUMP JUMPDEST PUSH1 0x40 MLOAD PUSH2 0x677 SWAP2 SWAP1 PUSH2 0x30E7 JUMP JUMPDEST PUSH1 0x40 MLOAD DUP1 SWAP2 SUB SWAP1 RETURN JUMPDEST CALLVALUE DUP1 ISZERO PUSH2 0x68C JUMPI PUSH1 0x0 DUP1 REVERT JUMPDEST POP PUSH2 0x695 PUSH2 0x167D JUMP JUMPDEST PUSH1 0x40 MLOAD PUSH2 0x6A2 SWAP2 SWAP1 PUSH2 0x3021 JUMP JUMPDEST PUSH1 0x40 MLOAD DUP1 SWAP2 SUB SWAP1 RETURN JUMPDEST CALLVALUE DUP1 ISZERO PUSH2 0x6B7 JUMPI PUSH1 0x0 DUP1 REVERT JUMPDEST POP PUSH2 0x6D2 PUSH1 0x4 DUP1 CALLDATASIZE SUB DUP2 ADD SWAP1 PUSH2 0x6CD SWAP2 SWAP1 PUSH2 0x34BA JUMP JUMPDEST PUSH2 0x170F JUMP JUMPDEST STOP JUMPDEST PUSH2 0x6EE PUSH1 0x4 DUP1 CALLDATASIZE SUB DUP2 ADD SWAP1 PUSH2 0x6E9 SWAP2 SWAP1 PUSH2 0x3158 JUMP JUMPDEST PUSH2 0x181A JUMP JUMPDEST STOP JUMPDEST CALLVALUE DUP1 ISZERO PUSH2 0x6FC JUMPI PUSH1 0x0 DUP1 REVERT JUMPDEST POP PUSH2 0x717 PUSH1 0x4 DUP1 CALLDATASIZE SUB DUP2 ADD SWAP1 PUSH2 0x712 SWAP2 SWAP1 PUSH2 0x3295 JUMP JUMPDEST PUSH2 0x1A13 JUMP JUMPDEST PUSH1 0x40 MLOAD PUSH2 0x724 SWAP2 SWAP1 PUSH2 0x3111 JUMP JUMPDEST PUSH1 0x40 MLOAD DUP1 SWAP2 SUB SWAP1 RETURN JUMPDEST PUSH2 0x747 PUSH1 0x4 DUP1 CALLDATASIZE SUB DUP2 ADD SWAP1 PUSH2 0x742 SWAP2 SWAP1 PUSH2 0x359B JUMP JUMPDEST PUSH2 0x1A2B JUMP JUMPDEST STOP JUMPDEST CALLVALUE DUP1 ISZERO PUSH2 0x755 JUMPI PUSH1 0x0 DUP1 REVERT JUMPDEST POP PUSH2 0x770 PUSH1 0x4 DUP1 CALLDATASIZE SUB DUP2 ADD SWAP1 PUSH2 0x76B SWAP2 SWAP1 PUSH2 0x3079 JUMP JUMPDEST PUSH2 0x1A9E JUMP JUMPDEST PUSH1 0x40 MLOAD PUSH2 0x77D SWAP2 SWAP1 PUSH2 0x3021 JUMP JUMPDEST PUSH1 0x40 MLOAD DUP1 SWAP2 SUB SWAP1 RETURN JUMPDEST CALLVALUE DUP1 ISZERO PUSH2 0x792 JUMPI PUSH1 0x0 DUP1 REVERT JUMPDEST POP PUSH2 0x7AD PUSH1 0x4 DUP1 CALLDATASIZE SUB DUP2 ADD SWAP1 PUSH2 0x7A8 SWAP2 SWAP1 PUSH2 0x3158 JUMP JUMPDEST PUSH2 0x1B3C JUMP JUMPDEST STOP JUMPDEST PUSH2 0x7C9 PUSH1 0x4 DUP1 CALLDATASIZE SUB DUP2 ADD SWAP1 PUSH2 0x7C4 SWAP2 SWAP1 PUSH2 0x361E JUMP JUMPDEST PUSH2 0x1CF1 JUMP JUMPDEST STOP JUMPDEST CALLVALUE DUP1 ISZERO PUSH2 0x7D7 JUMPI PUSH1 0x0 DUP1 REVERT JUMPDEST POP PUSH2 0x7E0 PUSH2 0x1EFB JUMP JUMPDEST PUSH1 0x40 MLOAD PUSH2 0x7ED SWAP2 SWAP1 PUSH2 0x3111 JUMP JUMPDEST PUSH1 0x40 MLOAD DUP1 SWAP2 SUB SWAP1 RETURN JUMPDEST CALLVALUE DUP1 ISZERO PUSH2 0x802 JUMPI PUSH1 0x0 DUP1 REVERT JUMPDEST POP PUSH2 0x80B PUSH2 0x1F03 JUMP JUMPDEST PUSH1 0x40 MLOAD PUSH2 0x818 SWAP2 SWAP1 PUSH2 0x30E7 JUMP JUMPDEST PUSH1 0x40 MLOAD DUP1 SWAP2 SUB SWAP1 RETURN JUMPDEST CALLVALUE DUP1 ISZERO PUSH2 0x82D JUMPI PUSH1 0x0 DUP1 REVERT JUMPDEST POP PUSH2 0x836 PUSH2 0x1F1B JUMP JUMPDEST PUSH1 0x40 MLOAD PUSH2 0x843 SWAP2 SWAP1 PUSH2 0x3111 JUMP JUMPDEST PUSH1 0x40 MLOAD DUP1 SWAP2 SUB SWAP1 RETURN JUMPDEST CALLVALUE DUP1 ISZERO PUSH2 0x858 JUMPI PUSH1 0x0 DUP1 REVERT JUMPDEST POP PUSH2 0x873 PUSH1 0x4 DUP1 CALLDATASIZE SUB DUP2 ADD SWAP1 PUSH2 0x86E SWAP2 SWAP1 PUSH2 0x36A6 JUMP JUMPDEST PUSH2 0x1F21 JUMP JUMPDEST PUSH1 0x40 MLOAD PUSH2 0x880 SWAP2 SWAP1 PUSH2 0x2F6D JUMP JUMPDEST PUSH1 0x40 MLOAD DUP1 SWAP2 SUB SWAP1 RETURN JUMPDEST CALLVALUE DUP1 ISZERO PUSH2 0x895 JUMPI PUSH1 0x0 DUP1 REVERT JUMPDEST POP PUSH2 0x8B0 PUSH1 0x4 DUP1 CALLDATASIZE SUB DUP2 ADD SWAP1 PUSH2 0x8AB SWAP2 SWAP1 PUSH2 0x3295 JUMP JUMPDEST PUSH2 0x1FB5 JUMP JUMPDEST STOP JUMPDEST CALLVALUE DUP1 ISZERO PUSH2 0x8BE JUMPI PUSH1 0x0 DUP1 REVERT JUMPDEST POP PUSH2 0x8C7 PUSH2 0x20AC JUMP JUMPDEST PUSH1 0x40 MLOAD PUSH2 0x8D4 SWAP2 SWAP1 PUSH2 0x3111 JUMP JUMPDEST PUSH1 0x40 MLOAD DUP1 SWAP2 SUB SWAP1 RETURN JUMPDEST PUSH1 0x0 PUSH4 0x1FFC9A7 PUSH1 0xE0 SHL DUP3 PUSH28 0xFFFFFFFFFFFFFFFFFFFFFFFFFFFFFFFFFFFFFFFFFFFFFFFFFFFFFFFF NOT AND EQ DUP1 PUSH2 0x938 JUMPI POP PUSH4 0x80AC58CD PUSH1 0xE0 SHL DUP3 PUSH28 0xFFFFFFFFFFFFFFFFFFFFFFFFFFFFFFFFFFFFFFFFFFFFFFFFFFFFFFFF NOT AND EQ JUMPDEST DUP1 PUSH2 0x968 JUMPI POP PUSH4 0x5B5E139F PUSH1 0xE0 SHL DUP3 PUSH28 0xFFFFFFFFFFFFFFFFFFFFFFFFFFFFFFFFFFFFFFFFFFFFFFFFFFFFFFFF NOT AND EQ JUMPDEST SWAP1 POP SWAP2 SWAP1 POP JUMP JUMPDEST PUSH1 0x60 PUSH1 0x3 DUP1 SLOAD PUSH2 0x97E SWAP1 PUSH2 0x3715 JUMP JUMPDEST DUP1 PUSH1 0x1F ADD PUSH1 0x20 DUP1 SWAP2 DIV MUL PUSH1 0x20 ADD PUSH1 0x40 MLOAD SWAP1 DUP2 ADD PUSH1 0x40 MSTORE DUP1 SWAP3 SWAP2 SWAP1 DUP2 DUP2 MSTORE PUSH1 0x20 ADD DUP3 DUP1 SLOAD PUSH2 0x9AA SWAP1 PUSH2 0x3715 JUMP JUMPDEST DUP1 ISZERO PUSH2 0x9F7 JUMPI DUP1 PUSH1 0x1F LT PUSH2 0x9CC JUMPI PUSH2 0x100 DUP1 DUP4 SLOAD DIV MUL DUP4 MSTORE SWAP2 PUSH1 0x20 ADD SWAP2 PUSH2 0x9F7 JUMP JUMPDEST DUP3 ADD SWAP2 SWAP1 PUSH1 0x0 MSTORE PUSH1 0x20 PUSH1 0x0 KECCAK256 SWAP1 JUMPDEST DUP2 SLOAD DUP2 MSTORE SWAP1 PUSH1 0x1 ADD SWAP1 PUSH1 0x20 ADD DUP1 DUP4 GT PUSH2 0x9DA JUMPI DUP3 SWAP1 SUB PUSH1 0x1F AND DUP3 ADD SWAP2 JUMPDEST POP POP POP POP POP SWAP1 POP SWAP1 JUMP JUMPDEST PUSH1 0x0 PUSH2 0xA0C DUP3 PUSH2 0x20B4 JUMP JUMPDEST PUSH2 0xA42 JUMPI PUSH1 0x40 MLOAD PUSH32 0xCF4700E400000000000000000000000000000000000000000000000000000000 DUP2 MSTORE PUSH1 0x4 ADD PUSH1 0x40 MLOAD DUP1 SWAP2 SUB SWAP1 REVERT JUMPDEST PUSH1 0x7 PUSH1 0x0 DUP4 DUP2 MSTORE PUSH1 0x20 ADD SWAP1 DUP2 MSTORE PUSH1 0x20 ADD PUSH1 0x0 KECCAK256 PUSH1 0x0 ADD PUSH1 0x0 SWAP1 SLOAD SWAP1 PUSH2 0x100 EXP SWAP1 DIV PUSH20 0xFFFFFFFFFFFFFFFFFFFFFFFFFFFFFFFFFFFFFFFF AND SWAP1 POP SWAP2 SWAP1 POP JUMP JUMPDEST PUSH2 0x1F4 DUP2 JUMP JUMPDEST PUSH1 0x0 PUSH2 0xA91 DUP3 PUSH2 0x130A JUMP JUMPDEST SWAP1 POP DUP1 PUSH20 0xFFFFFFFFFFFFFFFFFFFFFFFFFFFFFFFFFFFFFFFF AND PUSH2 0xAB2 PUSH2 0x2113 JUMP JUMPDEST PUSH20 0xFFFFFFFFFFFFFFFFFFFFFFFFFFFFFFFFFFFFFFFF AND EQ PUSH2 0xB15 JUMPI PUSH2 0xADE DUP2 PUSH2 0xAD9 PUSH2 0x2113 JUMP JUMPDEST PUSH2 0x1F21 JUMP JUMPDEST PUSH2 0xB14 JUMPI PUSH1 0x40 MLOAD PUSH32 0xCFB3B94200000000000000000000000000000000000000000000000000000000 DUP2 MSTORE PUSH1 0x4 ADD PUSH1 0x40 MLOAD DUP1 SWAP2 SUB SWAP1 REVERT JUMPDEST JUMPDEST DUP3 PUSH1 0x7 PUSH1 0x0 DUP5 DUP2 MSTORE PUSH1 0x20 ADD SWAP1 DUP2 MSTORE PUSH1 0x20 ADD PUSH1 0x0 KECCAK256 PUSH1 0x0 ADD PUSH1 0x0 PUSH2 0x100 EXP DUP2 SLOAD DUP2 PUSH20 0xFFFFFFFFFFFFFFFFFFFFFFFFFFFFFFFFFFFFFFFF MUL NOT AND SWAP1 DUP4 PUSH20 0xFFFFFFFFFFFFFFFFFFFFFFFFFFFFFFFFFFFFFFFF AND MUL OR SWAP1 SSTORE POP DUP2 DUP4 PUSH20 0xFFFFFFFFFFFFFFFFFFFFFFFFFFFFFFFFFFFFFFFF AND DUP3 PUSH20 0xFFFFFFFFFFFFFFFFFFFFFFFFFFFFFFFFFFFFFFFF AND PUSH32 0x8C5BE1E5EBEC7D5BD14F71427D1E84F3DD0314C0F7B2291E5B200AC8C7C3B925 PUSH1 0x40 MLOAD PUSH1 0x40 MLOAD DUP1 SWAP2 SUB SWAP1 LOG4 POP POP POP JUMP JUMPDEST PUSH1 0x0 PUSH2 0xBD4 PUSH2 0x211B JUMP JUMPDEST PUSH1 0x2 SLOAD PUSH1 0x1 SLOAD SUB SUB SWAP1 POP SWAP1 JUMP JUMPDEST PUSH1 0xC DUP2 JUMP JUMPDEST PUSH1 0x0 DUP2 JUMP JUMPDEST PUSH1 0x60 DUP2 PUSH20 0xFFFFFFFFFFFFFFFFFFFFFFFFFFFFFFFFFFFFFFFF AND DUP6 PUSH1 0x0 ADD PUSH1 0x20 DUP2 ADD SWAP1 PUSH2 0xC17 SWAP2 SWAP1 PUSH2 0x3295 JUMP JUMPDEST PUSH20 0xFFFFFFFFFFFFFFFFFFFFFFFFFFFFFFFFFFFFFFFF AND EQ PUSH2 0xC6D JUMPI PUSH1 0x40 MLOAD PUSH32 0x8C379A000000000000000000000000000000000000000000000000000000000 DUP2 MSTORE PUSH1 0x4 ADD PUSH2 0xC64 SWAP1 PUSH2 0x37B8 JUMP JUMPDEST PUSH1 0x40 MLOAD DUP1 SWAP2 SUB SWAP1 REVERT JUMPDEST PUSH1 0x0 PUSH2 0xCC0 PUSH32 0xDABEA70844BF24D9249FBCD43FF305A229AF24DA603AE5C43F957F44DCBD0BED DUP5 PUSH1 0x40 MLOAD PUSH1 0x20 ADD PUSH2 0xCA5 SWAP3 SWAP2 SWAP1 PUSH2 0x37F1 JUMP JUMPDEST PUSH1 0x40 MLOAD PUSH1 0x20 DUP2 DUP4 SUB SUB DUP2 MSTORE SWAP1 PUSH1 0x40 MSTORE DUP1 MLOAD SWAP1 PUSH1 0x20 ADD KECCAK256 PUSH2 0x2120 JUMP JUMPDEST SWAP1 POP PUSH2 0xD10 DUP2 DUP7 DUP7 DUP1 DUP1 PUSH1 0x1F ADD PUSH1 0x20 DUP1 SWAP2 DIV MUL PUSH1 0x20 ADD PUSH1 0x40 MLOAD SWAP1 DUP2 ADD PUSH1 0x40 MSTORE DUP1 SWAP4 SWAP3 SWAP2 SWAP1 DUP2 DUP2 MSTORE PUSH1 0x20 ADD DUP4 DUP4 DUP1 DUP3 DUP5 CALLDATACOPY PUSH1 0x0 DUP2 DUP5 ADD MSTORE PUSH1 0x1F NOT PUSH1 0x1F DUP3 ADD AND SWAP1 POP DUP1 DUP4 ADD SWAP3 POP POP POP POP POP POP POP PUSH2 0x213A JUMP JUMPDEST PUSH20 0xFFFFFFFFFFFFFFFFFFFFFFFFFFFFFFFFFFFFFFFF AND PUSH2 0xD2E PUSH2 0x1654 JUMP JUMPDEST PUSH20 0xFFFFFFFFFFFFFFFFFFFFFFFFFFFFFFFFFFFFFFFF AND EQ PUSH2 0xD84 JUMPI PUSH1 0x40 MLOAD PUSH32 0x8C379A000000000000000000000000000000000000000000000000000000000 DUP2 MSTORE PUSH1 0x4 ADD PUSH2 0xD7B SWAP1 PUSH2 0x388C JUMP JUMPDEST PUSH1 0x40 MLOAD DUP1 SWAP2 SUB SWAP1 REVERT JUMPDEST PUSH1 0x40 MLOAD DUP1 PUSH1 0x40 ADD PUSH1 0x40 MSTORE DUP1 PUSH1 0x3 DUP2 MSTORE PUSH1 0x20 ADD PUSH32 0x3132330000000000000000000000000000000000000000000000000000000000 DUP2 MSTORE POP SWAP2 POP POP SWAP5 SWAP4 POP POP POP POP JUMP JUMPDEST PUSH1 0xB PUSH1 0x20 MSTORE DUP1 PUSH1 0x0 MSTORE PUSH1 0x40 PUSH1 0x0 KECCAK256 PUSH1 0x0 SWAP2 POP SWAP1 POP SLOAD DUP2 JUMP JUMPDEST PUSH1 0x0 PUSH2 0xDE8 DUP3 PUSH2 0x2161 JUMP JUMPDEST SWAP1 POP DUP4 PUSH20 0xFFFFFFFFFFFFFFFFFFFFFFFFFFFFFFFFFFFFFFFF AND DUP2 PUSH20 0xFFFFFFFFFFFFFFFFFFFFFFFFFFFFFFFFFFFFFFFF AND EQ PUSH2 0xE4F JUMPI PUSH1 0x40 MLOAD PUSH32 0xA114810000000000000000000000000000000000000000000000000000000000 DUP2 MSTORE PUSH1 0x4 ADD PUSH1 0x40 MLOAD DUP1 SWAP2 SUB SWAP1 REVERT JUMPDEST PUSH1 0x0 DUP1 PUSH2 0xE5B DUP5 PUSH2 0x222D JUMP JUMPDEST SWAP2 POP SWAP2 POP PUSH2 0xE71 DUP2 DUP8 PUSH2 0xE6C PUSH2 0x2113 JUMP JUMPDEST PUSH2 0x2254 JUMP JUMPDEST PUSH2 0xEBD JUMPI PUSH2 0xE86 DUP7 PUSH2 0xE81 PUSH2 0x2113 JUMP JUMPDEST PUSH2 0x1F21 JUMP JUMPDEST PUSH2 0xEBC JUMPI PUSH1 0x40 MLOAD PUSH32 0x59C896BE00000000000000000000000000000000000000000000000000000000 DUP2 MSTORE PUSH1 0x4 ADD PUSH1 0x40 MLOAD DUP1 SWAP2 SUB SWAP1 REVERT JUMPDEST JUMPDEST PUSH1 0x0 PUSH20 0xFFFFFFFFFFFFFFFFFFFFFFFFFFFFFFFFFFFFFFFF AND DUP6 PUSH20 0xFFFFFFFFFFFFFFFFFFFFFFFFFFFFFFFFFFFFFFFF AND SUB PUSH2 0xF23 JUMPI PUSH1 0x40 MLOAD PUSH32 0xEA553B3400000000000000000000000000000000000000000000000000000000 DUP2 MSTORE PUSH1 0x4 ADD PUSH1 0x40 MLOAD DUP1 SWAP2 SUB SWAP1 REVERT JUMPDEST PUSH2 0xF30 DUP7 DUP7 DUP7 PUSH1 0x1 PUSH2 0x2298 JUMP JUMPDEST DUP1 ISZERO PUSH2 0xF3B JUMPI PUSH1 0x0 DUP3 SSTORE JUMPDEST PUSH1 0x6 PUSH1 0x0 DUP8 PUSH20 0xFFFFFFFFFFFFFFFFFFFFFFFFFFFFFFFFFFFFFFFF AND PUSH20 0xFFFFFFFFFFFFFFFFFFFFFFFFFFFFFFFFFFFFFFFF AND DUP2 MSTORE PUSH1 0x20 ADD SWAP1 DUP2 MSTORE PUSH1 0x20 ADD PUSH1 0x0 KECCAK256 PUSH1 0x0 DUP2 SLOAD PUSH1 0x1 SWAP1 SUB SWAP2 SWAP1 POP DUP2 SWAP1 SSTORE POP PUSH1 0x6 PUSH1 0x0 DUP7 PUSH20 0xFFFFFFFFFFFFFFFFFFFFFFFFFFFFFFFFFFFFFFFF AND PUSH20 0xFFFFFFFFFFFFFFFFFFFFFFFFFFFFFFFFFFFFFFFF AND DUP2 MSTORE PUSH1 0x20 ADD SWAP1 DUP2 MSTORE PUSH1 0x20 ADD PUSH1 0x0 KECCAK256 PUSH1 0x0 DUP2 SLOAD PUSH1 0x1 ADD SWAP2 SWAP1 POP DUP2 SWAP1 SSTORE POP PUSH2 0x1009 DUP6 PUSH2 0xFE5 DUP9 DUP9 DUP8 PUSH2 0x229E JUMP JUMPDEST PUSH29 0x200000000000000000000000000000000000000000000000000000000 OR PUSH2 0x22C6 JUMP JUMPDEST PUSH1 0x5 PUSH1 0x0 DUP7 DUP2 MSTORE PUSH1 0x20 ADD SWAP1 DUP2 MSTORE PUSH1 0x20 ADD PUSH1 0x0 KECCAK256 DUP2 SWAP1 SSTORE POP PUSH1 0x0 PUSH29 0x200000000000000000000000000000000000000000000000000000000 DUP5 AND SUB PUSH2 0x108F JUMPI PUSH1 0x0 PUSH1 0x1 DUP6 ADD SWAP1 POP PUSH1 0x0 PUSH1 0x5 PUSH1 0x0 DUP4 DUP2 MSTORE PUSH1 0x20 ADD SWAP1 DUP2 MSTORE PUSH1 0x20 ADD PUSH1 0x0 KECCAK256 SLOAD SUB PUSH2 0x108D JUMPI PUSH1 0x1 SLOAD DUP2 EQ PUSH2 0x108C JUMPI DUP4 PUSH1 0x5 PUSH1 0x0 DUP4 DUP2 MSTORE PUSH1 0x20 ADD SWAP1 DUP2 MSTORE PUSH1 0x20 ADD PUSH1 0x0 KECCAK256 DUP2 SWAP1 SSTORE POP JUMPDEST JUMPDEST POP JUMPDEST DUP4 DUP6 PUSH20 0xFFFFFFFFFFFFFFFFFFFFFFFFFFFFFFFFFFFFFFFF AND DUP8 PUSH20 0xFFFFFFFFFFFFFFFFFFFFFFFFFFFFFFFFFFFFFFFF AND PUSH32 0xDDF252AD1BE2C89B69C2B068FC378DAA952BA7F163C4A11628F55A4DF523B3EF PUSH1 0x40 MLOAD PUSH1 0x40 MLOAD DUP1 SWAP2 SUB SWAP1 LOG4 PUSH2 0x10F7 DUP7 DUP7 DUP7 PUSH1 0x1 PUSH2 0x22F1 JUMP JUMPDEST POP POP POP POP POP POP JUMP JUMPDEST PUSH4 0x62BFC2C0 DUP2 JUMP JUMPDEST PUSH2 0x2710 DUP2 JUMP JUMPDEST PUSH1 0x32 DUP2 JUMP JUMPDEST PUSH20 0x278137E8E2C38111297C9991815507EB16EAF25 PUSH20 0xFFFFFFFFFFFFFFFFFFFFFFFFFFFFFFFFFFFFFFFF AND PUSH2 0x1145 PUSH2 0x22F7 JUMP JUMPDEST PUSH20 0xFFFFFFFFFFFFFFFFFFFFFFFFFFFFFFFFFFFFFFFF AND EQ DUP1 PUSH2 0x11A0 JUMPI POP PUSH2 0x116A PUSH2 0x1654 JUMP JUMPDEST PUSH20 0xFFFFFFFFFFFFFFFFFFFFFFFFFFFFFFFFFFFFFFFF AND PUSH2 0x1188 PUSH2 0x22F7 JUMP JUMPDEST PUSH20 0xFFFFFFFFFFFFFFFFFFFFFFFFFFFFFFFFFFFFFFFF AND EQ JUMPDEST PUSH2 0x11DF JUMPI PUSH1 0x40 MLOAD PUSH32 0x8C379A000000000000000000000000000000000000000000000000000000000 DUP2 MSTORE PUSH1 0x4 ADD PUSH2 0x11D6 SWAP1 PUSH2 0x38F8 JUMP JUMPDEST PUSH1 0x40 MLOAD DUP1 SWAP2 SUB SWAP1 REVERT JUMPDEST PUSH2 0x11F0 PUSH2 0x11EA PUSH2 0x22F7 JUMP JUMPDEST SELFBALANCE PUSH2 0x22FF JUMP JUMPDEST JUMP JUMPDEST PUSH2 0x120D DUP4 DUP4 DUP4 PUSH1 0x40 MLOAD DUP1 PUSH1 0x20 ADD PUSH1 0x40 MSTORE DUP1 PUSH1 0x0 DUP2 MSTORE POP PUSH2 0x1A2B JUMP JUMPDEST POP POP POP JUMP JUMPDEST PUSH1 0xD PUSH1 0x20 MSTORE DUP1 PUSH1 0x0 MSTORE PUSH1 0x40 PUSH1 0x0 KECCAK256 PUSH1 0x0 SWAP2 POP SWAP1 POP SLOAD DUP2 JUMP JUMPDEST PUSH20 0x278137E8E2C38111297C9991815507EB16EAF25 PUSH20 0xFFFFFFFFFFFFFFFFFFFFFFFFFFFFFFFFFFFFFFFF AND PUSH2 0x125D PUSH2 0x22F7 JUMP JUMPDEST PUSH20 0xFFFFFFFFFFFFFFFFFFFFFFFFFFFFFFFFFFFFFFFF AND EQ DUP1 PUSH2 0x12B8 JUMPI POP PUSH2 0x1282 PUSH2 0x1654 JUMP JUMPDEST PUSH20 0xFFFFFFFFFFFFFFFFFFFFFFFFFFFFFFFFFFFFFFFF AND PUSH2 0x12A0 PUSH2 0x22F7 JUMP JUMPDEST PUSH20 0xFFFFFFFFFFFFFFFFFFFFFFFFFFFFFFFFFFFFFFFF AND EQ JUMPDEST PUSH2 0x12F7 JUMPI PUSH1 0x40 MLOAD PUSH32 0x8C379A000000000000000000000000000000000000000000000000000000000 DUP2 MSTORE PUSH1 0x4 ADD PUSH2 0x12EE SWAP1 PUSH2 0x38F8 JUMP JUMPDEST PUSH1 0x40 MLOAD DUP1 SWAP2 SUB SWAP1 REVERT JUMPDEST DUP1 PUSH1 0x9 SWAP1 DUP2 PUSH2 0x1306 SWAP2 SWAP1 PUSH2 0x3AC4 JUMP JUMPDEST POP POP JUMP JUMPDEST PUSH1 0x0 PUSH2 0x1315 DUP3 PUSH2 0x2161 JUMP JUMPDEST SWAP1 POP SWAP2 SWAP1 POP JUMP JUMPDEST PUSH7 0x38D7EA4C68000 DUP2 JUMP JUMPDEST PUSH1 0x0 TIMESTAMP LT ISZERO PUSH2 0x136B JUMPI PUSH1 0x40 MLOAD PUSH32 0x8C379A000000000000000000000000000000000000000000000000000000000 DUP2 MSTORE PUSH1 0x4 ADD PUSH2 0x1362 SWAP1 PUSH2 0x3BE2 JUMP JUMPDEST PUSH1 0x40 MLOAD DUP1 SWAP2 SUB SWAP1 REVERT JUMPDEST PUSH1 0x32 PUSH1 0xD PUSH1 0x0 DUP5 PUSH20 0xFFFFFFFFFFFFFFFFFFFFFFFFFFFFFFFFFFFFFFFF AND PUSH20 0xFFFFFFFFFFFFFFFFFFFFFFFFFFFFFFFFFFFFFFFF AND DUP2 MSTORE PUSH1 0x20 ADD SWAP1 DUP2 MSTORE PUSH1 0x20 ADD PUSH1 0x0 KECCAK256 SLOAD DUP3 PUSH2 0x13B8 SWAP2 SWAP1 PUSH2 0x3C31 JUMP JUMPDEST GT ISZERO PUSH2 0x13F9 JUMPI PUSH1 0x40 MLOAD PUSH32 0x8C379A000000000000000000000000000000000000000000000000000000000 DUP2 MSTORE PUSH1 0x4 ADD PUSH2 0x13F0 SWAP1 PUSH2 0x3CF9 JUMP JUMPDEST PUSH1 0x40 MLOAD DUP1 SWAP2 SUB SWAP1 REVERT JUMPDEST PUSH2 0x2710 DUP2 PUSH2 0x1405 PUSH2 0xBCA JUMP JUMPDEST PUSH2 0x140F SWAP2 SWAP1 PUSH2 0x3C31 JUMP JUMPDEST GT ISZERO PUSH2 0x1450 JUMPI PUSH1 0x40 MLOAD PUSH32 0x8C379A000000000000000000000000000000000000000000000000000000000 DUP2 MSTORE PUSH1 0x4 ADD PUSH2 0x1447 SWAP1 PUSH2 0x3D65 JUMP JUMPDEST PUSH1 0x40 MLOAD DUP1 SWAP2 SUB SWAP1 REVERT JUMPDEST DUP1 PUSH7 0x38D7EA4C68000 PUSH2 0x1463 SWAP2 SWAP1 PUSH2 0x3D85 JUMP JUMPDEST CALLVALUE LT ISZERO PUSH2 0x14A5 JUMPI PUSH1 0x40 MLOAD PUSH32 0x8C379A000000000000000000000000000000000000000000000000000000000 DUP2 MSTORE PUSH1 0x4 ADD PUSH2 0x149C SWAP1 PUSH2 0x3E2B JUMP JUMPDEST PUSH1 0x40 MLOAD DUP1 SWAP2 SUB SWAP1 REVERT JUMPDEST PUSH2 0x14AF DUP3 DUP3 PUSH2 0x23F3 JUMP JUMPDEST DUP1 PUSH1 0xD PUSH1 0x0 DUP5 PUSH20 0xFFFFFFFFFFFFFFFFFFFFFFFFFFFFFFFFFFFFFFFF AND PUSH20 0xFFFFFFFFFFFFFFFFFFFFFFFFFFFFFFFFFFFFFFFF AND DUP2 MSTORE PUSH1 0x20 ADD SWAP1 DUP2 MSTORE PUSH1 0x20 ADD PUSH1 0x0 KECCAK256 PUSH1 0x0 DUP3 DUP3 SLOAD PUSH2 0x14FE SWAP2 SWAP1 PUSH2 0x3C31 JUMP JUMPDEST SWAP3 POP POP DUP2 SWAP1 SSTORE POP POP POP JUMP JUMPDEST PUSH1 0x0 DUP1 PUSH20 0xFFFFFFFFFFFFFFFFFFFFFFFFFFFFFFFFFFFFFFFF AND DUP3 PUSH20 0xFFFFFFFFFFFFFFFFFFFFFFFFFFFFFFFFFFFFFFFF AND SUB PUSH2 0x1570 JUMPI PUSH1 0x40 MLOAD PUSH32 0x8F4EB60400000000000000000000000000000000000000000000000000000000 DUP2 MSTORE PUSH1 0x4 ADD PUSH1 0x40 MLOAD DUP1 SWAP2 SUB SWAP1 REVERT JUMPDEST PUSH8 0xFFFFFFFFFFFFFFFF PUSH1 0x6 PUSH1 0x0 DUP5 PUSH20 0xFFFFFFFFFFFFFFFFFFFFFFFFFFFFFFFFFFFFFFFF AND PUSH20 0xFFFFFFFFFFFFFFFFFFFFFFFFFFFFFFFFFFFFFFFF AND DUP2 MSTORE PUSH1 0x20 ADD SWAP1 DUP2 MSTORE PUSH1 0x20 ADD PUSH1 0x0 KECCAK256 SLOAD AND SWAP1 POP SWAP2 SWAP1 POP JUMP JUMPDEST PUSH2 0x15C9 PUSH2 0x22F7 JUMP JUMPDEST PUSH20 0xFFFFFFFFFFFFFFFFFFFFFFFFFFFFFFFFFFFFFFFF AND PUSH2 0x15E7 PUSH2 0x1654 JUMP JUMPDEST PUSH20 0xFFFFFFFFFFFFFFFFFFFFFFFFFFFFFFFFFFFFFFFF AND EQ PUSH2 0x163D JUMPI PUSH1 0x40 MLOAD PUSH32 0x8C379A000000000000000000000000000000000000000000000000000000000 DUP2 MSTORE PUSH1 0x4 ADD PUSH2 0x1634 SWAP1 PUSH2 0x3E97 JUMP JUMPDEST PUSH1 0x40 MLOAD DUP1 SWAP2 SUB SWAP1 REVERT JUMPDEST PUSH2 0x1647 PUSH1 0x0 PUSH2 0x2411 JUMP JUMPDEST JUMP JUMPDEST PUSH7 0x38D7EA4C68000 DUP2 JUMP JUMPDEST PUSH1 0x0 DUP1 PUSH1 0x0 SWAP1 SLOAD SWAP1 PUSH2 0x100 EXP SWAP1 DIV PUSH20 0xFFFFFFFFFFFFFFFFFFFFFFFFFFFFFFFFFFFFFFFF AND SWAP1 POP SWAP1 JUMP JUMPDEST PUSH1 0x60 PUSH1 0x4 DUP1 SLOAD PUSH2 0x168C SWAP1 PUSH2 0x3715 JUMP JUMPDEST DUP1 PUSH1 0x1F ADD PUSH1 0x20 DUP1 SWAP2 DIV MUL PUSH1 0x20 ADD PUSH1 0x40 MLOAD SWAP1 DUP2 ADD PUSH1 0x40 MSTORE DUP1 SWAP3 SWAP2 SWAP1 DUP2 DUP2 MSTORE PUSH1 0x20 ADD DUP3 DUP1 SLOAD PUSH2 0x16B8 SWAP1 PUSH2 0x3715 JUMP JUMPDEST DUP1 ISZERO PUSH2 0x1705 JUMPI DUP1 PUSH1 0x1F LT PUSH2 0x16DA JUMPI PUSH2 0x100 DUP1 DUP4 SLOAD DIV MUL DUP4 MSTORE SWAP2 PUSH1 0x20 ADD SWAP2 PUSH2 0x1705 JUMP JUMPDEST DUP3 ADD SWAP2 SWAP1 PUSH1 0x0 MSTORE PUSH1 0x20 PUSH1 0x0 KECCAK256 SWAP1 JUMPDEST DUP2 SLOAD DUP2 MSTORE SWAP1 PUSH1 0x1 ADD SWAP1 PUSH1 0x20 ADD DUP1 DUP4 GT PUSH2 0x16E8 JUMPI DUP3 SWAP1 SUB PUSH1 0x1F AND DUP3 ADD SWAP2 JUMPDEST POP POP POP POP POP SWAP1 POP SWAP1 JUMP JUMPDEST DUP1 PUSH1 0x8 PUSH1 0x0 PUSH2 0x171C PUSH2 0x2113 JUMP JUMPDEST PUSH20 0xFFFFFFFFFFFFFFFFFFFFFFFFFFFFFFFFFFFFFFFF AND PUSH20 0xFFFFFFFFFFFFFFFFFFFFFFFFFFFFFFFFFFFFFFFF AND DUP2 MSTORE PUSH1 0x20 ADD SWAP1 DUP2 MSTORE PUSH1 0x20 ADD PUSH1 0x0 KECCAK256 PUSH1 0x0 DUP5 PUSH20 0xFFFFFFFFFFFFFFFFFFFFFFFFFFFFFFFFFFFFFFFF AND PUSH20 0xFFFFFFFFFFFFFFFFFFFFFFFFFFFFFFFFFFFFFFFF AND DUP2 MSTORE PUSH1 0x20 ADD SWAP1 DUP2 MSTORE PUSH1 0x20 ADD PUSH1 0x0 KECCAK256 PUSH1 0x0 PUSH2 0x100 EXP DUP2 SLOAD DUP2 PUSH1 0xFF MUL NOT AND SWAP1 DUP4 ISZERO ISZERO MUL OR SWAP1 SSTORE POP DUP2 PUSH20 0xFFFFFFFFFFFFFFFFFFFFFFFFFFFFFFFFFFFFFFFF AND PUSH2 0x17C9 PUSH2 0x2113 JUMP JUMPDEST PUSH20 0xFFFFFFFFFFFFFFFFFFFFFFFFFFFFFFFFFFFFFFFF AND PUSH32 0x17307EAB39AB6107E8899845AD3D59BD9653F200F220920489CA2B5937696C31 DUP4 PUSH1 0x40 MLOAD PUSH2 0x180E SWAP2 SWAP1 PUSH2 0x2F6D JUMP JUMPDEST PUSH1 0x40 MLOAD DUP1 SWAP2 SUB SWAP1 LOG3 POP POP JUMP JUMPDEST PUSH1 0x0 TIMESTAMP LT ISZERO PUSH2 0x185E JUMPI PUSH1 0x40 MLOAD PUSH32 0x8C379A000000000000000000000000000000000000000000000000000000000 DUP2 MSTORE PUSH1 0x4 ADD PUSH2 0x1855 SWAP1 PUSH2 0x3BE2 JUMP JUMPDEST PUSH1 0x40 MLOAD DUP1 SWAP2 SUB SWAP1 REVERT JUMPDEST PUSH1 0xC DUP1 PUSH1 0x0 DUP5 PUSH20 0xFFFFFFFFFFFFFFFFFFFFFFFFFFFFFFFFFFFFFFFF AND PUSH20 0xFFFFFFFFFFFFFFFFFFFFFFFFFFFFFFFFFFFFFFFF AND DUP2 MSTORE PUSH1 0x20 ADD SWAP1 DUP2 MSTORE PUSH1 0x20 ADD PUSH1 0x0 KECCAK256 SLOAD DUP3 PUSH2 0x18AA SWAP2 SWAP1 PUSH2 0x3C31 JUMP JUMPDEST GT ISZERO PUSH2 0x18EB JUMPI PUSH1 0x40 MLOAD PUSH32 0x8C379A000000000000000000000000000000000000000000000000000000000 DUP2 MSTORE PUSH1 0x4 ADD PUSH2 0x18E2 SWAP1 PUSH2 0x3F29 JUMP JUMPDEST PUSH1 0x40 MLOAD DUP1 SWAP2 SUB SWAP1 REVERT JUMPDEST PUSH2 0x2710 PUSH1 0x5 DUP3 PUSH2 0x18FB SWAP2 SWAP1 PUSH2 0x3D85 JUMP JUMPDEST PUSH2 0x1903 PUSH2 0xBCA JUMP JUMPDEST PUSH2 0x190D SWAP2 SWAP1 PUSH2 0x3C31 JUMP JUMPDEST GT ISZERO PUSH2 0x194E JUMPI PUSH1 0x40 MLOAD PUSH32 0x8C379A000000000000000000000000000000000000000000000000000000000 DUP2 MSTORE PUSH1 0x4 ADD PUSH2 0x1945 SWAP1 PUSH2 0x3F95 JUMP JUMPDEST PUSH1 0x40 MLOAD DUP1 SWAP2 SUB SWAP1 REVERT JUMPDEST DUP1 PUSH7 0x38D7EA4C68000 PUSH2 0x1961 SWAP2 SWAP1 PUSH2 0x3D85 JUMP JUMPDEST CALLVALUE LT ISZERO PUSH2 0x19A3 JUMPI PUSH1 0x40 MLOAD PUSH32 0x8C379A000000000000000000000000000000000000000000000000000000000 DUP2 MSTORE PUSH1 0x4 ADD PUSH2 0x199A SWAP1 PUSH2 0x3E2B JUMP JUMPDEST PUSH1 0x40 MLOAD DUP1 SWAP2 SUB SWAP1 REVERT JUMPDEST PUSH2 0x19B9 DUP3 PUSH1 0x5 DUP4 PUSH2 0x19B4 SWAP2 SWAP1 PUSH2 0x3D85 JUMP JUMPDEST PUSH2 0x23F3 JUMP JUMPDEST DUP1 PUSH1 0xC PUSH1 0x0 DUP5 PUSH20 0xFFFFFFFFFFFFFFFFFFFFFFFFFFFFFFFFFFFFFFFF AND PUSH20 0xFFFFFFFFFFFFFFFFFFFFFFFFFFFFFFFFFFFFFFFF AND DUP2 MSTORE PUSH1 0x20 ADD SWAP1 DUP2 MSTORE PUSH1 0x20 ADD PUSH1 0x0 KECCAK256 PUSH1 0x0 DUP3 DUP3 SLOAD PUSH2 0x1A08 SWAP2 SWAP1 PUSH2 0x3C31 JUMP JUMPDEST SWAP3 POP POP DUP2 SWAP1 SSTORE POP POP POP JUMP JUMPDEST PUSH1 0xC PUSH1 0x20 MSTORE DUP1 PUSH1 0x0 MSTORE PUSH1 0x40 PUSH1 0x0 KECCAK256 PUSH1 0x0 SWAP2 POP SWAP1 POP SLOAD DUP2 JUMP JUMPDEST PUSH2 0x1A36 DUP5 DUP5 DUP5 PUSH2 0xDDD JUMP JUMPDEST PUSH1 0x0 DUP4 PUSH20 0xFFFFFFFFFFFFFFFFFFFFFFFFFFFFFFFFFFFFFFFF AND EXTCODESIZE EQ PUSH2 0x1A98 JUMPI PUSH2 0x1A61 DUP5 DUP5 DUP5 DUP5 PUSH2 0x24D5 JUMP JUMPDEST PUSH2 0x1A97 JUMPI PUSH1 0x40 MLOAD PUSH32 0xD1A57ED600000000000000000000000000000000000000000000000000000000 DUP2 MSTORE PUSH1 0x4 ADD PUSH1 0x40 MLOAD DUP1 SWAP2 SUB SWAP1 REVERT JUMPDEST JUMPDEST POP POP POP POP JUMP JUMPDEST PUSH1 0x60 PUSH2 0x1AA9 DUP3 PUSH2 0x20B4 JUMP JUMPDEST PUSH2 0x1ADF JUMPI PUSH1 0x40 MLOAD PUSH32 0xA14C4B5000000000000000000000000000000000000000000000000000000000 DUP2 MSTORE PUSH1 0x4 ADD PUSH1 0x40 MLOAD DUP1 SWAP2 SUB SWAP1 REVERT JUMPDEST PUSH1 0x0 PUSH2 0x1AE9 PUSH2 0x2625 JUMP JUMPDEST SWAP1 POP PUSH1 0x0 DUP2 MLOAD SUB PUSH2 0x1B09 JUMPI PUSH1 0x40 MLOAD DUP1 PUSH1 0x20 ADD PUSH1 0x40 MSTORE DUP1 PUSH1 0x0 DUP2 MSTORE POP PUSH2 0x1B34 JUMP JUMPDEST DUP1 PUSH2 0x1B13 DUP5 PUSH2 0x26B7 JUMP JUMPDEST PUSH1 0x40 MLOAD PUSH1 0x20 ADD PUSH2 0x1B24 SWAP3 SWAP2 SWAP1 PUSH2 0x3FF1 JUMP JUMPDEST PUSH1 0x40 MLOAD PUSH1 0x20 DUP2 DUP4 SUB SUB DUP2 MSTORE SWAP1 PUSH1 0x40 MSTORE JUMPDEST SWAP2 POP POP SWAP2 SWAP1 POP JUMP JUMPDEST PUSH20 0x278137E8E2C38111297C9991815507EB16EAF25 PUSH20 0xFFFFFFFFFFFFFFFFFFFFFFFFFFFFFFFFFFFFFFFF AND PUSH2 0x1B6F PUSH2 0x22F7 JUMP JUMPDEST PUSH20 0xFFFFFFFFFFFFFFFFFFFFFFFFFFFFFFFFFFFFFFFF AND EQ DUP1 PUSH2 0x1BCA JUMPI POP PUSH2 0x1B94 PUSH2 0x1654 JUMP JUMPDEST PUSH20 0xFFFFFFFFFFFFFFFFFFFFFFFFFFFFFFFFFFFFFFFF AND PUSH2 0x1BB2 PUSH2 0x22F7 JUMP JUMPDEST PUSH20 0xFFFFFFFFFFFFFFFFFFFFFFFFFFFFFFFFFFFFFFFF AND EQ JUMPDEST PUSH2 0x1C09 JUMPI PUSH1 0x40 MLOAD PUSH32 0x8C379A000000000000000000000000000000000000000000000000000000000 DUP2 MSTORE PUSH1 0x4 ADD PUSH2 0x1C00 SWAP1 PUSH2 0x38F8 JUMP JUMPDEST PUSH1 0x40 MLOAD DUP1 SWAP2 SUB SWAP1 REVERT JUMPDEST PUSH2 0x1F4 DUP2 PUSH1 0xA SLOAD PUSH2 0x1C1A SWAP2 SWAP1 PUSH2 0x3C31 JUMP JUMPDEST GT ISZERO PUSH2 0x1C5B JUMPI PUSH1 0x40 MLOAD PUSH32 0x8C379A000000000000000000000000000000000000000000000000000000000 DUP2 MSTORE PUSH1 0x4 ADD PUSH2 0x1C52 SWAP1 PUSH2 0x4061 JUMP JUMPDEST PUSH1 0x40 MLOAD DUP1 SWAP2 SUB SWAP1 REVERT JUMPDEST PUSH2 0x2710 PUSH1 0x5 DUP3 PUSH2 0x1C6B SWAP2 SWAP1 PUSH2 0x3D85 JUMP JUMPDEST PUSH2 0x1C73 PUSH2 0xBCA JUMP JUMPDEST PUSH2 0x1C7D SWAP2 SWAP1 PUSH2 0x3C31 JUMP JUMPDEST GT ISZERO PUSH2 0x1CBE JUMPI PUSH1 0x40 MLOAD PUSH32 0x8C379A000000000000000000000000000000000000000000000000000000000 DUP2 MSTORE PUSH1 0x4 ADD PUSH2 0x1CB5 SWAP1 PUSH2 0x3F95 JUMP JUMPDEST PUSH1 0x40 MLOAD DUP1 SWAP2 SUB SWAP1 REVERT JUMPDEST PUSH2 0x1CD4 DUP3 PUSH1 0x5 DUP4 PUSH2 0x1CCF SWAP2 SWAP1 PUSH2 0x3D85 JUMP JUMPDEST PUSH2 0x23F3 JUMP JUMPDEST DUP1 PUSH1 0xA PUSH1 0x0 DUP3 DUP3 SLOAD PUSH2 0x1CE6 SWAP2 SWAP1 PUSH2 0x3C31 JUMP JUMPDEST SWAP3 POP POP DUP2 SWAP1 SSTORE POP POP POP JUMP JUMPDEST PUSH2 0x1CFD DUP6 DUP6 DUP6 DUP5 PUSH2 0xBEB JUMP JUMPDEST POP PUSH1 0x0 TIMESTAMP LT ISZERO PUSH2 0x1D42 JUMPI PUSH1 0x40 MLOAD PUSH32 0x8C379A000000000000000000000000000000000000000000000000000000000 DUP2 MSTORE PUSH1 0x4 ADD PUSH2 0x1D39 SWAP1 PUSH2 0x3BE2 JUMP JUMPDEST PUSH1 0x40 MLOAD DUP1 SWAP2 SUB SWAP1 REVERT JUMPDEST PUSH1 0xC PUSH1 0xB PUSH1 0x0 DUP4 PUSH20 0xFFFFFFFFFFFFFFFFFFFFFFFFFFFFFFFFFFFFFFFF AND PUSH20 0xFFFFFFFFFFFFFFFFFFFFFFFFFFFFFFFFFFFFFFFF AND DUP2 MSTORE PUSH1 0x20 ADD SWAP1 DUP2 MSTORE PUSH1 0x20 ADD PUSH1 0x0 KECCAK256 SLOAD DUP4 PUSH2 0x1D8F SWAP2 SWAP1 PUSH2 0x3C31 JUMP JUMPDEST GT ISZERO PUSH2 0x1DD0 JUMPI PUSH1 0x40 MLOAD PUSH32 0x8C379A000000000000000000000000000000000000000000000000000000000 DUP2 MSTORE PUSH1 0x4 ADD PUSH2 0x1DC7 SWAP1 PUSH2 0x3F29 JUMP JUMPDEST PUSH1 0x40 MLOAD DUP1 SWAP2 SUB SWAP1 REVERT JUMPDEST PUSH2 0x2710 PUSH1 0x5 DUP4 PUSH2 0x1DE0 SWAP2 SWAP1 PUSH2 0x3D85 JUMP JUMPDEST PUSH2 0x1DE8 PUSH2 0xBCA JUMP JUMPDEST PUSH2 0x1DF2 SWAP2 SWAP1 PUSH2 0x3C31 JUMP JUMPDEST GT ISZERO PUSH2 0x1E33 JUMPI PUSH1 0x40 MLOAD PUSH32 0x8C379A000000000000000000000000000000000000000000000000000000000 DUP2 MSTORE PUSH1 0x4 ADD PUSH2 0x1E2A SWAP1 PUSH2 0x3F95 JUMP JUMPDEST PUSH1 0x40 MLOAD DUP1 SWAP2 SUB SWAP1 REVERT JUMPDEST DUP2 PUSH7 0x38D7EA4C68000 PUSH2 0x1E46 SWAP2 SWAP1 PUSH2 0x3D85 JUMP JUMPDEST CALLVALUE LT ISZERO PUSH2 0x1E88 JUMPI PUSH1 0x40 MLOAD PUSH32 0x8C379A000000000000000000000000000000000000000000000000000000000 DUP2 MSTORE PUSH1 0x4 ADD PUSH2 0x1E7F SWAP1 PUSH2 0x40CD JUMP JUMPDEST PUSH1 0x40 MLOAD DUP1 SWAP2 SUB SWAP1 REVERT JUMPDEST PUSH2 0x1E9E DUP2 PUSH1 0x5 DUP5 PUSH2 0x1E99 SWAP2 SWAP1 PUSH2 0x3D85 JUMP JUMPDEST PUSH2 0x23F3 JUMP JUMPDEST DUP2 PUSH1 0xB PUSH1 0x0 DUP4 PUSH20 0xFFFFFFFFFFFFFFFFFFFFFFFFFFFFFFFFFFFFFFFF AND PUSH20 0xFFFFFFFFFFFFFFFFFFFFFFFFFFFFFFFFFFFFFFFF AND DUP2 MSTORE PUSH1 0x20 ADD SWAP1 DUP2 MSTORE PUSH1 0x20 ADD PUSH1 0x0 KECCAK256 PUSH1 0x0 DUP3 DUP3 SLOAD PUSH2 0x1EED SWAP2 SWAP1 PUSH2 0x3C31 JUMP JUMPDEST SWAP3 POP POP DUP2 SWAP1 SSTORE POP POP POP POP POP POP JUMP JUMPDEST PUSH4 0x62C3B740 DUP2 JUMP JUMPDEST PUSH20 0x278137E8E2C38111297C9991815507EB16EAF25 DUP2 JUMP JUMPDEST PUSH1 0xA SLOAD DUP2 JUMP JUMPDEST PUSH1 0x0 PUSH1 0x8 PUSH1 0x0 DUP5 PUSH20 0xFFFFFFFFFFFFFFFFFFFFFFFFFFFFFFFFFFFFFFFF AND PUSH20 0xFFFFFFFFFFFFFFFFFFFFFFFFFFFFFFFFFFFFFFFF AND DUP2 MSTORE PUSH1 0x20 ADD SWAP1 DUP2 MSTORE PUSH1 0x20 ADD PUSH1 0x0 KECCAK256 PUSH1 0x0 DUP4 PUSH20 0xFFFFFFFFFFFFFFFFFFFFFFFFFFFFFFFFFFFFFFFF AND PUSH20 0xFFFFFFFFFFFFFFFFFFFFFFFFFFFFFFFFFFFFFFFF AND DUP2 MSTORE PUSH1 0x20 ADD SWAP1 DUP2 MSTORE PUSH1 0x20 ADD PUSH1 0x0 KECCAK256 PUSH1 0x0 SWAP1 SLOAD SWAP1 PUSH2 0x100 EXP SWAP1 DIV PUSH1 0xFF AND SWAP1 POP SWAP3 SWAP2 POP POP JUMP JUMPDEST PUSH2 0x1FBD PUSH2 0x22F7 JUMP JUMPDEST PUSH20 0xFFFFFFFFFFFFFFFFFFFFFFFFFFFFFFFFFFFFFFFF AND PUSH2 0x1FDB PUSH2 0x1654 JUMP JUMPDEST PUSH20 0xFFFFFFFFFFFFFFFFFFFFFFFFFFFFFFFFFFFFFFFF AND EQ PUSH2 0x2031 JUMPI PUSH1 0x40 MLOAD PUSH32 0x8C379A000000000000000000000000000000000000000000000000000000000 DUP2 MSTORE PUSH1 0x4 ADD PUSH2 0x2028 SWAP1 PUSH2 0x3E97 JUMP JUMPDEST PUSH1 0x40 MLOAD DUP1 SWAP2 SUB SWAP1 REVERT JUMPDEST PUSH1 0x0 PUSH20 0xFFFFFFFFFFFFFFFFFFFFFFFFFFFFFFFFFFFFFFFF AND DUP2 PUSH20 0xFFFFFFFFFFFFFFFFFFFFFFFFFFFFFFFFFFFFFFFF AND SUB PUSH2 0x20A0 JUMPI PUSH1 0x40 MLOAD PUSH32 0x8C379A000000000000000000000000000000000000000000000000000000000 DUP2 MSTORE PUSH1 0x4 ADD PUSH2 0x2097 SWAP1 PUSH2 0x415F JUMP JUMPDEST PUSH1 0x40 MLOAD DUP1 SWAP2 SUB SWAP1 REVERT JUMPDEST PUSH2 0x20A9 DUP2 PUSH2 0x2411 JUMP JUMPDEST POP JUMP JUMPDEST PUSH4 0x62D237C0 DUP2 JUMP JUMPDEST PUSH1 0x0 DUP2 PUSH2 0x20BF PUSH2 0x211B JUMP JUMPDEST GT ISZERO DUP1 ISZERO PUSH2 0x20CE JUMPI POP PUSH1 0x1 SLOAD DUP3 LT JUMPDEST DUP1 ISZERO PUSH2 0x210C JUMPI POP PUSH1 0x0 PUSH29 0x100000000000000000000000000000000000000000000000000000000 PUSH1 0x5 PUSH1 0x0 DUP6 DUP2 MSTORE PUSH1 0x20 ADD SWAP1 DUP2 MSTORE PUSH1 0x20 ADD PUSH1 0x0 KECCAK256 SLOAD AND EQ JUMPDEST SWAP1 POP SWAP2 SWAP1 POP JUMP JUMPDEST PUSH1 0x0 CALLER SWAP1 POP SWAP1 JUMP JUMPDEST PUSH1 0x0 SWAP1 JUMP JUMPDEST PUSH1 0x0 PUSH2 0x2133 PUSH2 0x212D PUSH2 0x2707 JUMP JUMPDEST DUP4 PUSH2 0x2821 JUMP JUMPDEST SWAP1 POP SWAP2 SWAP1 POP JUMP JUMPDEST PUSH1 0x0 DUP1 PUSH1 0x0 PUSH2 0x2149 DUP6 DUP6 PUSH2 0x2854 JUMP JUMPDEST SWAP2 POP SWAP2 POP PUSH2 0x2156 DUP2 PUSH2 0x28D5 JUMP JUMPDEST DUP2 SWAP3 POP POP POP SWAP3 SWAP2 POP POP JUMP JUMPDEST PUSH1 0x0 DUP1 DUP3 SWAP1 POP DUP1 PUSH2 0x2170 PUSH2 0x211B JUMP JUMPDEST GT PUSH2 0x21F6 JUMPI PUSH1 0x1 SLOAD DUP2 LT ISZERO PUSH2 0x21F5 JUMPI PUSH1 0x0 PUSH1 0x5 PUSH1 0x0 DUP4 DUP2 MSTORE PUSH1 0x20 ADD SWAP1 DUP2 MSTORE PUSH1 0x20 ADD PUSH1 0x0 KECCAK256 SLOAD SWAP1 POP PUSH1 0x0 PUSH29 0x100000000000000000000000000000000000000000000000000000000 DUP3 AND SUB PUSH2 0x21F3 JUMPI JUMPDEST PUSH1 0x0 DUP2 SUB PUSH2 0x21E9 JUMPI PUSH1 0x5 PUSH1 0x0 DUP4 PUSH1 0x1 SWAP1 SUB SWAP4 POP DUP4 DUP2 MSTORE PUSH1 0x20 ADD SWAP1 DUP2 MSTORE PUSH1 0x20 ADD PUSH1 0x0 KECCAK256 SLOAD SWAP1 POP PUSH2 0x21BF JUMP JUMPDEST DUP1 SWAP3 POP POP POP PUSH2 0x2228 JUMP JUMPDEST POP JUMPDEST JUMPDEST PUSH1 0x40 MLOAD PUSH32 0xDF2D9B4200000000000000000000000000000000000000000000000000000000 DUP2 MSTORE PUSH1 0x4 ADD PUSH1 0x40 MLOAD DUP1 SWAP2 SUB SWAP1 REVERT JUMPDEST SWAP2 SWAP1 POP JUMP JUMPDEST PUSH1 0x0 DUP1 PUSH1 0x0 PUSH1 0x7 PUSH1 0x0 DUP6 DUP2 MSTORE PUSH1 0x20 ADD SWAP1 DUP2 MSTORE PUSH1 0x20 ADD PUSH1 0x0 KECCAK256 SWAP1 POP DUP1 SWAP3 POP DUP3 SLOAD SWAP2 POP POP SWAP2 POP SWAP2 JUMP JUMPDEST PUSH1 0x0 PUSH20 0xFFFFFFFFFFFFFFFFFFFFFFFFFFFFFFFFFFFFFFFF DUP4 AND SWAP3 POP PUSH20 0xFFFFFFFFFFFFFFFFFFFFFFFFFFFFFFFFFFFFFFFF DUP3 AND SWAP2 POP DUP4 DUP3 EQ DUP4 DUP4 EQ OR SWAP1 POP SWAP4 SWAP3 POP POP POP JUMP JUMPDEST POP POP POP POP JUMP JUMPDEST PUSH1 0x0 DUP1 PUSH1 0xE8 DUP4 SWAP1 SHR SWAP1 POP PUSH1 0xE8 PUSH2 0x22B5 DUP7 DUP7 DUP5 PUSH2 0x2AA1 JUMP JUMPDEST PUSH3 0xFFFFFF AND SWAP1 SHL SWAP2 POP POP SWAP4 SWAP3 POP POP POP JUMP JUMPDEST PUSH1 0x0 PUSH20 0xFFFFFFFFFFFFFFFFFFFFFFFFFFFFFFFFFFFFFFFF DUP4 AND SWAP3 POP DUP2 TIMESTAMP PUSH1 0xA0 SHL OR DUP4 OR SWAP1 POP SWAP3 SWAP2 POP POP JUMP JUMPDEST POP POP POP POP JUMP JUMPDEST PUSH1 0x0 CALLER SWAP1 POP SWAP1 JUMP JUMPDEST DUP1 SELFBALANCE LT ISZERO PUSH2 0x2342 JUMPI PUSH1 0x40 MLOAD PUSH32 0x8C379A000000000000000000000000000000000000000000000000000000000 DUP2 MSTORE PUSH1 0x4 ADD PUSH2 0x2339 SWAP1 PUSH2 0x41CB JUMP JUMPDEST PUSH1 0x40 MLOAD DUP1 SWAP2 SUB SWAP1 REVERT JUMPDEST PUSH1 0x0 DUP3 PUSH20 0xFFFFFFFFFFFFFFFFFFFFFFFFFFFFFFFFFFFFFFFF AND DUP3 PUSH1 0x40 MLOAD PUSH2 0x2368 SWAP1 PUSH2 0x421C JUMP JUMPDEST PUSH1 0x0 PUSH1 0x40 MLOAD DUP1 DUP4 SUB DUP2 DUP6 DUP8 GAS CALL SWAP3 POP POP POP RETURNDATASIZE DUP1 PUSH1 0x0 DUP2 EQ PUSH2 0x23A5 JUMPI PUSH1 0x40 MLOAD SWAP2 POP PUSH1 0x1F NOT PUSH1 0x3F RETURNDATASIZE ADD AND DUP3 ADD PUSH1 0x40 MSTORE RETURNDATASIZE DUP3 MSTORE RETURNDATASIZE PUSH1 0x0 PUSH1 0x20 DUP5 ADD RETURNDATACOPY PUSH2 0x23AA JUMP JUMPDEST PUSH1 0x60 SWAP2 POP JUMPDEST POP POP SWAP1 POP DUP1 PUSH2 0x23EE JUMPI PUSH1 0x40 MLOAD PUSH32 0x8C379A000000000000000000000000000000000000000000000000000000000 DUP2 MSTORE PUSH1 0x4 ADD PUSH2 0x23E5 SWAP1 PUSH2 0x42A3 JUMP JUMPDEST PUSH1 0x40 MLOAD DUP1 SWAP2 SUB SWAP1 REVERT JUMPDEST POP POP POP JUMP JUMPDEST PUSH2 0x240D DUP3 DUP3 PUSH1 0x40 MLOAD DUP1 PUSH1 0x20 ADD PUSH1 0x40 MSTORE DUP1 PUSH1 0x0 DUP2 MSTORE POP PUSH2 0x2AAA JUMP JUMPDEST POP POP JUMP JUMPDEST PUSH1 0x0 DUP1 PUSH1 0x0 SWAP1 SLOAD SWAP1 PUSH2 0x100 EXP SWAP1 DIV PUSH20 0xFFFFFFFFFFFFFFFFFFFFFFFFFFFFFFFFFFFFFFFF AND SWAP1 POP DUP2 PUSH1 0x0 DUP1 PUSH2 0x100 EXP DUP2 SLOAD DUP2 PUSH20 0xFFFFFFFFFFFFFFFFFFFFFFFFFFFFFFFFFFFFFFFF MUL NOT AND SWAP1 DUP4 PUSH20 0xFFFFFFFFFFFFFFFFFFFFFFFFFFFFFFFFFFFFFFFF AND MUL OR SWAP1 SSTORE POP DUP2 PUSH20 0xFFFFFFFFFFFFFFFFFFFFFFFFFFFFFFFFFFFFFFFF AND DUP2 PUSH20 0xFFFFFFFFFFFFFFFFFFFFFFFFFFFFFFFFFFFFFFFF AND PUSH32 0x8BE0079C531659141344CD1FD0A4F28419497F9722A3DAAFE3B4186F6B6457E0 PUSH1 0x40 MLOAD PUSH1 0x40 MLOAD DUP1 SWAP2 SUB SWAP1 LOG3 POP POP JUMP JUMPDEST PUSH1 0x0 DUP4 PUSH20 0xFFFFFFFFFFFFFFFFFFFFFFFFFFFFFFFFFFFFFFFF AND PUSH4 0x150B7A02 PUSH2 0x24FB PUSH2 0x2113 JUMP JUMPDEST DUP8 DUP7 DUP7 PUSH1 0x40 MLOAD DUP6 PUSH4 0xFFFFFFFF AND PUSH1 0xE0 SHL DUP2 MSTORE PUSH1 0x4 ADD PUSH2 0x251D SWAP5 SWAP4 SWAP3 SWAP2 SWAP1 PUSH2 0x4318 JUMP JUMPDEST PUSH1 0x20 PUSH1 0x40 MLOAD DUP1 DUP4 SUB DUP2 PUSH1 0x0 DUP8 GAS CALL SWAP3 POP POP POP DUP1 ISZERO PUSH2 0x2559 JUMPI POP PUSH1 0x40 MLOAD RETURNDATASIZE PUSH1 0x1F NOT PUSH1 0x1F DUP3 ADD AND DUP3 ADD DUP1 PUSH1 0x40 MSTORE POP DUP2 ADD SWAP1 PUSH2 0x2556 SWAP2 SWAP1 PUSH2 0x4379 JUMP JUMPDEST PUSH1 0x1 JUMPDEST PUSH2 0x25D2 JUMPI RETURNDATASIZE DUP1 PUSH1 0x0 DUP2 EQ PUSH2 0x2589 JUMPI PUSH1 0x40 MLOAD SWAP2 POP PUSH1 0x1F NOT PUSH1 0x3F RETURNDATASIZE ADD AND DUP3 ADD PUSH1 0x40 MSTORE RETURNDATASIZE DUP3 MSTORE RETURNDATASIZE PUSH1 0x0 PUSH1 0x20 DUP5 ADD RETURNDATACOPY PUSH2 0x258E JUMP JUMPDEST PUSH1 0x60 SWAP2 POP JUMPDEST POP PUSH1 0x0 DUP2 MLOAD SUB PUSH2 0x25CA JUMPI PUSH1 0x40 MLOAD PUSH32 0xD1A57ED600000000000000000000000000000000000000000000000000000000 DUP2 MSTORE PUSH1 0x4 ADD PUSH1 0x40 MLOAD DUP1 SWAP2 SUB SWAP1 REVERT JUMPDEST DUP1 MLOAD DUP2 PUSH1 0x20 ADD REVERT JUMPDEST PUSH4 0x150B7A02 PUSH1 0xE0 SHL PUSH28 0xFFFFFFFFFFFFFFFFFFFFFFFFFFFFFFFFFFFFFFFFFFFFFFFFFFFFFFFF NOT AND DUP2 PUSH28 0xFFFFFFFFFFFFFFFFFFFFFFFFFFFFFFFFFFFFFFFFFFFFFFFFFFFFFFFF NOT AND EQ SWAP2 POP POP SWAP5 SWAP4 POP POP POP POP JUMP JUMPDEST PUSH1 0x60 PUSH1 0x9 DUP1 SLOAD PUSH2 0x2634 SWAP1 PUSH2 0x3715 JUMP JUMPDEST DUP1 PUSH1 0x1F ADD PUSH1 0x20 DUP1 SWAP2 DIV MUL PUSH1 0x20 ADD PUSH1 0x40 MLOAD SWAP1 DUP2 ADD PUSH1 0x40 MSTORE DUP1 SWAP3 SWAP2 SWAP1 DUP2 DUP2 MSTORE PUSH1 0x20 ADD DUP3 DUP1 SLOAD PUSH2 0x2660 SWAP1 PUSH2 0x3715 JUMP JUMPDEST DUP1 ISZERO PUSH2 0x26AD JUMPI DUP1 PUSH1 0x1F LT PUSH2 0x2682 JUMPI PUSH2 0x100 DUP1 DUP4 SLOAD DIV MUL DUP4 MSTORE SWAP2 PUSH1 0x20 ADD SWAP2 PUSH2 0x26AD JUMP JUMPDEST DUP3 ADD SWAP2 SWAP1 PUSH1 0x0 MSTORE PUSH1 0x20 PUSH1 0x0 KECCAK256 SWAP1 JUMPDEST DUP2 SLOAD DUP2 MSTORE SWAP1 PUSH1 0x1 ADD SWAP1 PUSH1 0x20 ADD DUP1 DUP4 GT PUSH2 0x2690 JUMPI DUP3 SWAP1 SUB PUSH1 0x1F AND DUP3 ADD SWAP2 JUMPDEST POP POP POP POP POP SWAP1 POP SWAP1 JUMP JUMPDEST PUSH1 0x60 PUSH1 0xA0 PUSH1 0x40 MLOAD ADD DUP1 PUSH1 0x40 MSTORE PUSH1 0x20 DUP2 SUB SWAP2 POP PUSH1 0x0 DUP3 MSTORE DUP2 DUP4 JUMPDEST PUSH1 0x1 ISZERO PUSH2 0x26F2 JUMPI PUSH1 0x1 DUP5 SUB SWAP4 POP PUSH1 0xA DUP2 MOD PUSH1 0x30 ADD DUP5 MSTORE8 PUSH1 0xA DUP2 DIV SWAP1 POP DUP1 PUSH2 0x26D0 JUMPI JUMPDEST POP DUP3 DUP2 SUB PUSH1 0x20 DUP5 SUB SWAP4 POP DUP1 DUP5 MSTORE POP POP POP SWAP2 SWAP1 POP JUMP JUMPDEST PUSH1 0x0 PUSH32 0x0 PUSH20 0xFFFFFFFFFFFFFFFFFFFFFFFFFFFFFFFFFFFFFFFF AND ADDRESS PUSH20 0xFFFFFFFFFFFFFFFFFFFFFFFFFFFFFFFFFFFFFFFF AND EQ DUP1 ISZERO PUSH2 0x2783 JUMPI POP PUSH32 0x0 CHAINID EQ JUMPDEST ISZERO PUSH2 0x27B0 JUMPI PUSH32 0x0 SWAP1 POP PUSH2 0x281E JUMP JUMPDEST PUSH2 0x281B PUSH32 0x0 PUSH32 0x0 PUSH32 0x0 PUSH2 0x2B48 JUMP JUMPDEST SWAP1 POP JUMPDEST SWAP1 JUMP JUMPDEST PUSH1 0x0 DUP3 DUP3 PUSH1 0x40 MLOAD PUSH1 0x20 ADD PUSH2 0x2836 SWAP3 SWAP2 SWAP1 PUSH2 0x4413 JUMP JUMPDEST PUSH1 0x40 MLOAD PUSH1 0x20 DUP2 DUP4 SUB SUB DUP2 MSTORE SWAP1 PUSH1 0x40 MSTORE DUP1 MLOAD SWAP1 PUSH1 0x20 ADD KECCAK256 SWAP1 POP SWAP3 SWAP2 POP POP JUMP JUMPDEST PUSH1 0x0 DUP1 PUSH1 0x41 DUP4 MLOAD SUB PUSH2 0x2895 JUMPI PUSH1 0x0 DUP1 PUSH1 0x0 PUSH1 0x20 DUP7 ADD MLOAD SWAP3 POP PUSH1 0x40 DUP7 ADD MLOAD SWAP2 POP PUSH1 0x60 DUP7 ADD MLOAD PUSH1 0x0 BYTE SWAP1 POP PUSH2 0x2889 DUP8 DUP3 DUP6 DUP6 PUSH2 0x2B82 JUMP JUMPDEST SWAP5 POP SWAP5 POP POP POP POP PUSH2 0x28CE JUMP JUMPDEST PUSH1 0x40 DUP4 MLOAD SUB PUSH2 0x28C5 JUMPI PUSH1 0x0 DUP1 PUSH1 0x20 DUP6 ADD MLOAD SWAP2 POP PUSH1 0x40 DUP6 ADD MLOAD SWAP1 POP PUSH2 0x28BA DUP7 DUP4 DUP4 PUSH2 0x2C8E JUMP JUMPDEST SWAP4 POP SWAP4 POP POP POP PUSH2 0x28CE JUMP JUMPDEST PUSH1 0x0 PUSH1 0x2 SWAP2 POP SWAP2 POP JUMPDEST SWAP3 POP SWAP3 SWAP1 POP JUMP JUMPDEST PUSH1 0x0 PUSH1 0x4 DUP2 GT ISZERO PUSH2 0x28E9 JUMPI PUSH2 0x28E8 PUSH2 0x444A JUMP JUMPDEST JUMPDEST DUP2 PUSH1 0x4 DUP2 GT ISZERO PUSH2 0x28FC JUMPI PUSH2 0x28FB PUSH2 0x444A JUMP JUMPDEST JUMPDEST SUB ISZERO PUSH2 0x2A9E JUMPI PUSH1 0x1 PUSH1 0x4 DUP2 GT ISZERO PUSH2 0x2916 JUMPI PUSH2 0x2915 PUSH2 0x444A JUMP JUMPDEST JUMPDEST DUP2 PUSH1 0x4 DUP2 GT ISZERO PUSH2 0x2929 JUMPI PUSH2 0x2928 PUSH2 0x444A JUMP JUMPDEST JUMPDEST SUB PUSH2 0x2969 JUMPI PUSH1 0x40 MLOAD PUSH32 0x8C379A000000000000000000000000000000000000000000000000000000000 DUP2 MSTORE PUSH1 0x4 ADD PUSH2 0x2960 SWAP1 PUSH2 0x44C5 JUMP JUMPDEST PUSH1 0x40 MLOAD DUP1 SWAP2 SUB SWAP1 REVERT JUMPDEST PUSH1 0x2 PUSH1 0x4 DUP2 GT ISZERO PUSH2 0x297D JUMPI PUSH2 0x297C PUSH2 0x444A JUMP JUMPDEST JUMPDEST DUP2 PUSH1 0x4 DUP2 GT ISZERO PUSH2 0x2990 JUMPI PUSH2 0x298F PUSH2 0x444A JUMP JUMPDEST JUMPDEST SUB PUSH2 0x29D0 JUMPI PUSH1 0x40 MLOAD PUSH32 0x8C379A000000000000000000000000000000000000000000000000000000000 DUP2 MSTORE PUSH1 0x4 ADD PUSH2 0x29C7 SWAP1 PUSH2 0x4531 JUMP JUMPDEST PUSH1 0x40 MLOAD DUP1 SWAP2 SUB SWAP1 REVERT JUMPDEST PUSH1 0x3 PUSH1 0x4 DUP2 GT ISZERO PUSH2 0x29E4 JUMPI PUSH2 0x29E3 PUSH2 0x444A JUMP JUMPDEST JUMPDEST DUP2 PUSH1 0x4 DUP2 GT ISZERO PUSH2 0x29F7 JUMPI PUSH2 0x29F6 PUSH2 0x444A JUMP JUMPDEST JUMPDEST SUB PUSH2 0x2A37 JUMPI PUSH1 0x40 MLOAD PUSH32 0x8C379A000000000000000000000000000000000000000000000000000000000 DUP2 MSTORE PUSH1 0x4 ADD PUSH2 0x2A2E SWAP1 PUSH2 0x45C3 JUMP JUMPDEST PUSH1 0x40 MLOAD DUP1 SWAP2 SUB SWAP1 REVERT JUMPDEST PUSH1 0x4 DUP1 DUP2 GT ISZERO PUSH2 0x2A4A JUMPI PUSH2 0x2A49 PUSH2 0x444A JUMP JUMPDEST JUMPDEST DUP2 PUSH1 0x4 DUP2 GT ISZERO PUSH2 0x2A5D JUMPI PUSH2 0x2A5C PUSH2 0x444A JUMP JUMPDEST JUMPDEST SUB PUSH2 0x2A9D JUMPI PUSH1 0x40 MLOAD PUSH32 0x8C379A000000000000000000000000000000000000000000000000000000000 DUP2 MSTORE PUSH1 0x4 ADD PUSH2 0x2A94 SWAP1 PUSH2 0x4655 JUMP JUMPDEST PUSH1 0x40 MLOAD DUP1 SWAP2 SUB SWAP1 REVERT JUMPDEST JUMPDEST POP JUMP JUMPDEST PUSH1 0x0 SWAP4 SWAP3 POP POP POP JUMP JUMPDEST PUSH2 0x2AB4 DUP4 DUP4 PUSH2 0x2CED JUMP JUMPDEST PUSH1 0x0 DUP4 PUSH20 0xFFFFFFFFFFFFFFFFFFFFFFFFFFFFFFFFFFFFFFFF AND EXTCODESIZE EQ PUSH2 0x2B43 JUMPI PUSH1 0x0 PUSH1 0x1 SLOAD SWAP1 POP PUSH1 0x0 DUP4 DUP3 SUB SWAP1 POP JUMPDEST PUSH2 0x2AF5 PUSH1 0x0 DUP7 DUP4 DUP1 PUSH1 0x1 ADD SWAP5 POP DUP7 PUSH2 0x24D5 JUMP JUMPDEST PUSH2 0x2B2B JUMPI PUSH1 0x40 MLOAD PUSH32 0xD1A57ED600000000000000000000000000000000000000000000000000000000 DUP2 MSTORE PUSH1 0x4 ADD PUSH1 0x40 MLOAD DUP1 SWAP2 SUB SWAP1 REVERT JUMPDEST DUP2 DUP2 LT PUSH2 0x2AE2 JUMPI DUP2 PUSH1 0x1 SLOAD EQ PUSH2 0x2B40 JUMPI PUSH1 0x0 DUP1 REVERT JUMPDEST POP POP JUMPDEST POP POP POP JUMP JUMPDEST PUSH1 0x0 DUP4 DUP4 DUP4 CHAINID ADDRESS PUSH1 0x40 MLOAD PUSH1 0x20 ADD PUSH2 0x2B63 SWAP6 SWAP5 SWAP4 SWAP3 SWAP2 SWAP1 PUSH2 0x4675 JUMP JUMPDEST PUSH1 0x40 MLOAD PUSH1 0x20 DUP2 DUP4 SUB SUB DUP2 MSTORE SWAP1 PUSH1 0x40 MSTORE DUP1 MLOAD SWAP1 PUSH1 0x20 ADD KECCAK256 SWAP1 POP SWAP4 SWAP3 POP POP POP JUMP JUMPDEST PUSH1 0x0 DUP1 PUSH32 0x7FFFFFFFFFFFFFFFFFFFFFFFFFFFFFFF5D576E7357A4501DDFE92F46681B20A0 DUP4 PUSH1 0x0 SHR GT ISZERO PUSH2 0x2BBD JUMPI PUSH1 0x0 PUSH1 0x3 SWAP2 POP SWAP2 POP PUSH2 0x2C85 JUMP JUMPDEST PUSH1 0x1B DUP6 PUSH1 0xFF AND EQ ISZERO DUP1 ISZERO PUSH2 0x2BD5 JUMPI POP PUSH1 0x1C DUP6 PUSH1 0xFF AND EQ ISZERO JUMPDEST ISZERO PUSH2 0x2BE7 JUMPI PUSH1 0x0 PUSH1 0x4 SWAP2 POP SWAP2 POP PUSH2 0x2C85 JUMP JUMPDEST PUSH1 0x0 PUSH1 0x1 DUP8 DUP8 DUP8 DUP8 PUSH1 0x40 MLOAD PUSH1 0x0 DUP2 MSTORE PUSH1 0x20 ADD PUSH1 0x40 MSTORE PUSH1 0x40 MLOAD PUSH2 0x2C0C SWAP5 SWAP4 SWAP3 SWAP2 SWAP1 PUSH2 0x46E4 JUMP JUMPDEST PUSH1 0x20 PUSH1 0x40 MLOAD PUSH1 0x20 DUP2 SUB SWAP1 DUP1 DUP5 SUB SWAP1 DUP6 GAS STATICCALL ISZERO DUP1 ISZERO PUSH2 0x2C2E JUMPI RETURNDATASIZE PUSH1 0x0 DUP1 RETURNDATACOPY RETURNDATASIZE PUSH1 0x0 REVERT JUMPDEST POP POP POP PUSH1 0x20 PUSH1 0x40 MLOAD SUB MLOAD SWAP1 POP PUSH1 0x0 PUSH20 0xFFFFFFFFFFFFFFFFFFFFFFFFFFFFFFFFFFFFFFFF AND DUP2 PUSH20 0xFFFFFFFFFFFFFFFFFFFFFFFFFFFFFFFFFFFFFFFF AND SUB PUSH2 0x2C7C JUMPI PUSH1 0x0 PUSH1 0x1 SWAP3 POP SWAP3 POP POP PUSH2 0x2C85 JUMP JUMPDEST DUP1 PUSH1 0x0 SWAP3 POP SWAP3 POP POP JUMPDEST SWAP5 POP SWAP5 SWAP3 POP POP POP JUMP JUMPDEST PUSH1 0x0 DUP1 PUSH1 0x0 PUSH32 0x7FFFFFFFFFFFFFFFFFFFFFFFFFFFFFFFFFFFFFFFFFFFFFFFFFFFFFFFFFFFFFFF PUSH1 0x0 SHL DUP5 AND SWAP1 POP PUSH1 0x0 PUSH1 0x1B PUSH1 0xFF DUP7 PUSH1 0x0 SHR SWAP1 SHR PUSH2 0x2CD1 SWAP2 SWAP1 PUSH2 0x3C31 JUMP JUMPDEST SWAP1 POP PUSH2 0x2CDF DUP8 DUP3 DUP9 DUP6 PUSH2 0x2B82 JUMP JUMPDEST SWAP4 POP SWAP4 POP POP POP SWAP4 POP SWAP4 SWAP2 POP POP JUMP JUMPDEST PUSH1 0x0 PUSH1 0x1 SLOAD SWAP1 POP PUSH1 0x0 DUP3 SUB PUSH2 0x2D2E JUMPI PUSH1 0x40 MLOAD PUSH32 0xB562E8DD00000000000000000000000000000000000000000000000000000000 DUP2 MSTORE PUSH1 0x4 ADD PUSH1 0x40 MLOAD DUP1 SWAP2 SUB SWAP1 REVERT JUMPDEST PUSH2 0x2D3B PUSH1 0x0 DUP5 DUP4 DUP6 PUSH2 0x2298 JUMP JUMPDEST PUSH1 0x1 PUSH1 0x40 PUSH1 0x1 SWAP1 SHL OR DUP3 MUL PUSH1 0x6 PUSH1 0x0 DUP6 PUSH20 0xFFFFFFFFFFFFFFFFFFFFFFFFFFFFFFFFFFFFFFFF AND PUSH20 0xFFFFFFFFFFFFFFFFFFFFFFFFFFFFFFFFFFFFFFFF AND DUP2 MSTORE PUSH1 0x20 ADD SWAP1 DUP2 MSTORE PUSH1 0x20 ADD PUSH1 0x0 KECCAK256 PUSH1 0x0 DUP3 DUP3 SLOAD ADD SWAP3 POP POP DUP2 SWAP1 SSTORE POP PUSH2 0x2DB2 DUP4 PUSH2 0x2DA3 PUSH1 0x0 DUP7 PUSH1 0x0 PUSH2 0x229E JUMP JUMPDEST PUSH2 0x2DAC DUP6 PUSH2 0x2EA9 JUMP JUMPDEST OR PUSH2 0x22C6 JUMP JUMPDEST PUSH1 0x5 PUSH1 0x0 DUP4 DUP2 MSTORE PUSH1 0x20 ADD SWAP1 DUP2 MSTORE PUSH1 0x20 ADD PUSH1 0x0 KECCAK256 DUP2 SWAP1 SSTORE POP PUSH1 0x0 DUP1 DUP4 DUP4 ADD SWAP1 POP PUSH20 0xFFFFFFFFFFFFFFFFFFFFFFFFFFFFFFFFFFFFFFFF DUP6 AND SWAP2 POP DUP3 DUP3 PUSH1 0x0 PUSH32 0xDDF252AD1BE2C89B69C2B068FC378DAA952BA7F163C4A11628F55A4DF523B3EF PUSH1 0x0 DUP1 LOG4 PUSH1 0x1 DUP4 ADD JUMPDEST DUP2 DUP2 EQ PUSH2 0x2E53 JUMPI DUP1 DUP4 PUSH1 0x0 PUSH32 0xDDF252AD1BE2C89B69C2B068FC378DAA952BA7F163C4A11628F55A4DF523B3EF PUSH1 0x0 DUP1 LOG4 PUSH1 0x1 DUP2 ADD SWAP1 POP PUSH2 0x2E18 JUMP JUMPDEST POP PUSH1 0x0 DUP3 SUB PUSH2 0x2E8E JUMPI PUSH1 0x40 MLOAD PUSH32 0x2E07630000000000000000000000000000000000000000000000000000000000 DUP2 MSTORE PUSH1 0x4 ADD PUSH1 0x40 MLOAD DUP1 SWAP2 SUB SWAP1 REVERT JUMPDEST DUP1 PUSH1 0x1 DUP2 SWAP1 SSTORE POP POP POP PUSH2 0x2EA4 PUSH1 0x0 DUP5 DUP4 DUP6 PUSH2 0x22F1 JUMP JUMPDEST POP POP POP JUMP JUMPDEST PUSH1 0x0 PUSH1 0x1 DUP3 EQ PUSH1 0xE1 SHL SWAP1 POP SWAP2 SWAP1 POP JUMP JUMPDEST PUSH1 0x0 PUSH1 0x40 MLOAD SWAP1 POP SWAP1 JUMP JUMPDEST PUSH1 0x0 DUP1 REVERT JUMPDEST PUSH1 0x0 DUP1 REVERT JUMPDEST PUSH1 0x0 PUSH32 0xFFFFFFFF00000000000000000000000000000000000000000000000000000000 DUP3 AND SWAP1 POP SWAP2 SWAP1 POP JUMP JUMPDEST PUSH2 0x2F02 DUP2 PUSH2 0x2ECD JUMP JUMPDEST DUP2 EQ PUSH2 0x2F0D JUMPI PUSH1 0x0 DUP1 REVERT JUMPDEST POP JUMP JUMPDEST PUSH1 0x0 DUP2 CALLDATALOAD SWAP1 POP PUSH2 0x2F1F DUP2 PUSH2 0x2EF9 JUMP JUMPDEST SWAP3 SWAP2 POP POP JUMP JUMPDEST PUSH1 0x0 PUSH1 0x20 DUP3 DUP5 SUB SLT ISZERO PUSH2 0x2F3B JUMPI PUSH2 0x2F3A PUSH2 0x2EC3 JUMP JUMPDEST JUMPDEST PUSH1 0x0 PUSH2 0x2F49 DUP5 DUP3 DUP6 ADD PUSH2 0x2F10 JUMP JUMPDEST SWAP2 POP POP SWAP3 SWAP2 POP POP JUMP JUMPDEST PUSH1 0x0 DUP2 ISZERO ISZERO SWAP1 POP SWAP2 SWAP1 POP JUMP JUMPDEST PUSH2 0x2F67 DUP2 PUSH2 0x2F52 JUMP JUMPDEST DUP3 MSTORE POP POP JUMP JUMPDEST PUSH1 0x0 PUSH1 0x20 DUP3 ADD SWAP1 POP PUSH2 0x2F82 PUSH1 0x0 DUP4 ADD DUP5 PUSH2 0x2F5E JUMP JUMPDEST SWAP3 SWAP2 POP POP JUMP JUMPDEST PUSH1 0x0 DUP2 MLOAD SWAP1 POP SWAP2 SWAP1 POP JUMP JUMPDEST PUSH1 0x0 DUP3 DUP3 MSTORE PUSH1 0x20 DUP3 ADD SWAP1 POP SWAP3 SWAP2 POP POP JUMP JUMPDEST PUSH1 0x0 JUMPDEST DUP4 DUP2 LT ISZERO PUSH2 0x2FC2 JUMPI DUP1 DUP3 ADD MLOAD DUP2 DUP5 ADD MSTORE PUSH1 0x20 DUP2 ADD SWAP1 POP PUSH2 0x2FA7 JUMP JUMPDEST DUP4 DUP2 GT ISZERO PUSH2 0x2FD1 JUMPI PUSH1 0x0 DUP5 DUP5 ADD MSTORE JUMPDEST POP POP POP POP JUMP JUMPDEST PUSH1 0x0 PUSH1 0x1F NOT PUSH1 0x1F DUP4 ADD AND SWAP1 POP SWAP2 SWAP1 POP JUMP JUMPDEST PUSH1 0x0 PUSH2 0x2FF3 DUP3 PUSH2 0x2F88 JUMP JUMPDEST PUSH2 0x2FFD DUP2 DUP6 PUSH2 0x2F93 JUMP JUMPDEST SWAP4 POP PUSH2 0x300D DUP2 DUP6 PUSH1 0x20 DUP7 ADD PUSH2 0x2FA4 JUMP JUMPDEST PUSH2 0x3016 DUP2 PUSH2 0x2FD7 JUMP JUMPDEST DUP5 ADD SWAP2 POP POP SWAP3 SWAP2 POP POP JUMP JUMPDEST PUSH1 0x0 PUSH1 0x20 DUP3 ADD SWAP1 POP DUP2 DUP2 SUB PUSH1 0x0 DUP4 ADD MSTORE PUSH2 0x303B DUP2 DUP5 PUSH2 0x2FE8 JUMP JUMPDEST SWAP1 POP SWAP3 SWAP2 POP POP JUMP JUMPDEST PUSH1 0x0 DUP2 SWAP1 POP SWAP2 SWAP1 POP JUMP JUMPDEST PUSH2 0x3056 DUP2 PUSH2 0x3043 JUMP JUMPDEST DUP2 EQ PUSH2 0x3061 JUMPI PUSH1 0x0 DUP1 REVERT JUMPDEST POP JUMP JUMPDEST PUSH1 0x0 DUP2 CALLDATALOAD SWAP1 POP PUSH2 0x3073 DUP2 PUSH2 0x304D JUMP JUMPDEST SWAP3 SWAP2 POP POP JUMP JUMPDEST PUSH1 0x0 PUSH1 0x20 DUP3 DUP5 SUB SLT ISZERO PUSH2 0x308F JUMPI PUSH2 0x308E PUSH2 0x2EC3 JUMP JUMPDEST JUMPDEST PUSH1 0x0 PUSH2 0x309D DUP5 DUP3 DUP6 ADD PUSH2 0x3064 JUMP JUMPDEST SWAP2 POP POP SWAP3 SWAP2 POP POP JUMP JUMPDEST PUSH1 0x0 PUSH20 0xFFFFFFFFFFFFFFFFFFFFFFFFFFFFFFFFFFFFFFFF DUP3 AND SWAP1 POP SWAP2 SWAP1 POP JUMP JUMPDEST PUSH1 0x0 PUSH2 0x30D1 DUP3 PUSH2 0x30A6 JUMP JUMPDEST SWAP1 POP SWAP2 SWAP1 POP JUMP JUMPDEST PUSH2 0x30E1 DUP2 PUSH2 0x30C6 JUMP JUMPDEST DUP3 MSTORE POP POP JUMP JUMPDEST PUSH1 0x0 PUSH1 0x20 DUP3 ADD SWAP1 POP PUSH2 0x30FC PUSH1 0x0 DUP4 ADD DUP5 PUSH2 0x30D8 JUMP JUMPDEST SWAP3 SWAP2 POP POP JUMP JUMPDEST PUSH2 0x310B DUP2 PUSH2 0x3043 JUMP JUMPDEST DUP3 MSTORE POP POP JUMP JUMPDEST PUSH1 0x0 PUSH1 0x20 DUP3 ADD SWAP1 POP PUSH2 0x3126 PUSH1 0x0 DUP4 ADD DUP5 PUSH2 0x3102 JUMP JUMPDEST SWAP3 SWAP2 POP POP JUMP JUMPDEST PUSH2 0x3135 DUP2 PUSH2 0x30C6 JUMP JUMPDEST DUP2 EQ PUSH2 0x3140 JUMPI PUSH1 0x0 DUP1 REVERT JUMPDEST POP JUMP JUMPDEST PUSH1 0x0 DUP2 CALLDATALOAD SWAP1 POP PUSH2 0x3152 DUP2 PUSH2 0x312C JUMP JUMPDEST SWAP3 SWAP2 POP POP JUMP JUMPDEST PUSH1 0x0 DUP1 PUSH1 0x40 DUP4 DUP6 SUB SLT ISZERO PUSH2 0x316F JUMPI PUSH2 0x316E PUSH2 0x2EC3 JUMP JUMPDEST JUMPDEST PUSH1 0x0 PUSH2 0x317D DUP6 DUP3 DUP7 ADD PUSH2 0x3143 JUMP JUMPDEST SWAP3 POP POP PUSH1 0x20 PUSH2 0x318E DUP6 DUP3 DUP7 ADD PUSH2 0x3064 JUMP JUMPDEST SWAP2 POP POP SWAP3 POP SWAP3 SWAP1 POP JUMP JUMPDEST PUSH1 0x0 DUP1 REVERT JUMPDEST PUSH1 0x0 PUSH1 0x20 DUP3 DUP5 SUB SLT ISZERO PUSH2 0x31B3 JUMPI PUSH2 0x31B2 PUSH2 0x3198 JUMP JUMPDEST JUMPDEST DUP2 SWAP1 POP SWAP3 SWAP2 POP POP JUMP JUMPDEST PUSH1 0x0 DUP1 REVERT JUMPDEST PUSH1 0x0 DUP1 REVERT JUMPDEST PUSH1 0x0 DUP1 REVERT JUMPDEST PUSH1 0x0 DUP1 DUP4 PUSH1 0x1F DUP5 ADD SLT PUSH2 0x31E1 JUMPI PUSH2 0x31E0 PUSH2 0x31BC JUMP JUMPDEST JUMPDEST DUP3 CALLDATALOAD SWAP1 POP PUSH8 0xFFFFFFFFFFFFFFFF DUP2 GT ISZERO PUSH2 0x31FE JUMPI PUSH2 0x31FD PUSH2 0x31C1 JUMP JUMPDEST JUMPDEST PUSH1 0x20 DUP4 ADD SWAP2 POP DUP4 PUSH1 0x1 DUP3 MUL DUP4 ADD GT ISZERO PUSH2 0x321A JUMPI PUSH2 0x3219 PUSH2 0x31C6 JUMP JUMPDEST JUMPDEST SWAP3 POP SWAP3 SWAP1 POP JUMP JUMPDEST PUSH1 0x0 DUP1 PUSH1 0x0 DUP1 PUSH1 0x60 DUP6 DUP8 SUB SLT ISZERO PUSH2 0x323B JUMPI PUSH2 0x323A PUSH2 0x2EC3 JUMP JUMPDEST JUMPDEST PUSH1 0x0 PUSH2 0x3249 DUP8 DUP3 DUP9 ADD PUSH2 0x319D JUMP JUMPDEST SWAP5 POP POP PUSH1 0x20 DUP6 ADD CALLDATALOAD PUSH8 0xFFFFFFFFFFFFFFFF DUP2 GT ISZERO PUSH2 0x326A JUMPI PUSH2 0x3269 PUSH2 0x2EC8 JUMP JUMPDEST JUMPDEST PUSH2 0x3276 DUP8 DUP3 DUP9 ADD PUSH2 0x31CB JUMP JUMPDEST SWAP4 POP SWAP4 POP POP PUSH1 0x40 PUSH2 0x3289 DUP8 DUP3 DUP9 ADD PUSH2 0x3143 JUMP JUMPDEST SWAP2 POP POP SWAP3 SWAP6 SWAP2 SWAP5 POP SWAP3 POP JUMP JUMPDEST PUSH1 0x0 PUSH1 0x20 DUP3 DUP5 SUB SLT ISZERO PUSH2 0x32AB JUMPI PUSH2 0x32AA PUSH2 0x2EC3 JUMP JUMPDEST JUMPDEST PUSH1 0x0 PUSH2 0x32B9 DUP5 DUP3 DUP6 ADD PUSH2 0x3143 JUMP JUMPDEST SWAP2 POP POP SWAP3 SWAP2 POP POP JUMP JUMPDEST PUSH1 0x0 DUP1 PUSH1 0x0 PUSH1 0x60 DUP5 DUP7 SUB SLT ISZERO PUSH2 0x32DB JUMPI PUSH2 0x32DA PUSH2 0x2EC3 JUMP JUMPDEST JUMPDEST PUSH1 0x0 PUSH2 0x32E9 DUP7 DUP3 DUP8 ADD PUSH2 0x3143 JUMP JUMPDEST SWAP4 POP POP PUSH1 0x20 PUSH2 0x32FA DUP7 DUP3 DUP8 ADD PUSH2 0x3143 JUMP JUMPDEST SWAP3 POP POP PUSH1 0x40 PUSH2 0x330B DUP7 DUP3 DUP8 ADD PUSH2 0x3064 JUMP JUMPDEST SWAP2 POP POP SWAP3 POP SWAP3 POP SWAP3 JUMP JUMPDEST PUSH1 0x0 DUP1 REVERT JUMPDEST PUSH32 0x4E487B7100000000000000000000000000000000000000000000000000000000 PUSH1 0x0 MSTORE PUSH1 0x41 PUSH1 0x4 MSTORE PUSH1 0x24 PUSH1 0x0 REVERT JUMPDEST PUSH2 0x3352 DUP3 PUSH2 0x2FD7 JUMP JUMPDEST DUP2 ADD DUP2 DUP2 LT PUSH8 0xFFFFFFFFFFFFFFFF DUP3 GT OR ISZERO PUSH2 0x3371 JUMPI PUSH2 0x3370 PUSH2 0x331A JUMP JUMPDEST JUMPDEST DUP1 PUSH1 0x40 MSTORE POP POP POP JUMP JUMPDEST PUSH1 0x0 PUSH2 0x3384 PUSH2 0x2EB9 JUMP JUMPDEST SWAP1 POP PUSH2 0x3390 DUP3 DUP3 PUSH2 0x3349 JUMP JUMPDEST SWAP2 SWAP1 POP JUMP JUMPDEST PUSH1 0x0 PUSH8 0xFFFFFFFFFFFFFFFF DUP3 GT ISZERO PUSH2 0x33B0 JUMPI PUSH2 0x33AF PUSH2 0x331A JUMP JUMPDEST JUMPDEST PUSH2 0x33B9 DUP3 PUSH2 0x2FD7 JUMP JUMPDEST SWAP1 POP PUSH1 0x20 DUP2 ADD SWAP1 POP SWAP2 SWAP1 POP JUMP JUMPDEST DUP3 DUP2 DUP4 CALLDATACOPY PUSH1 0x0 DUP4 DUP4 ADD MSTORE POP POP POP JUMP JUMPDEST PUSH1 0x0 PUSH2 0x33E8 PUSH2 0x33E3 DUP5 PUSH2 0x3395 JUMP JUMPDEST PUSH2 0x337A JUMP JUMPDEST SWAP1 POP DUP3 DUP2 MSTORE PUSH1 0x20 DUP2 ADD DUP5 DUP5 DUP5 ADD GT ISZERO PUSH2 0x3404 JUMPI PUSH2 0x3403 PUSH2 0x3315 JUMP JUMPDEST JUMPDEST PUSH2 0x340F DUP5 DUP3 DUP6 PUSH2 0x33C6 JUMP JUMPDEST POP SWAP4 SWAP3 POP POP POP JUMP JUMPDEST PUSH1 0x0 DUP3 PUSH1 0x1F DUP4 ADD SLT PUSH2 0x342C JUMPI PUSH2 0x342B PUSH2 0x31BC JUMP JUMPDEST JUMPDEST DUP2 CALLDATALOAD PUSH2 0x343C DUP5 DUP3 PUSH1 0x20 DUP7 ADD PUSH2 0x33D5 JUMP JUMPDEST SWAP2 POP POP SWAP3 SWAP2 POP POP JUMP JUMPDEST PUSH1 0x0 PUSH1 0x20 DUP3 DUP5 SUB SLT ISZERO PUSH2 0x345B JUMPI PUSH2 0x345A PUSH2 0x2EC3 JUMP JUMPDEST JUMPDEST PUSH1 0x0 DUP3 ADD CALLDATALOAD PUSH8 0xFFFFFFFFFFFFFFFF DUP2 GT ISZERO PUSH2 0x3479 JUMPI PUSH2 0x3478 PUSH2 0x2EC8 JUMP JUMPDEST JUMPDEST PUSH2 0x3485 DUP5 DUP3 DUP6 ADD PUSH2 0x3417 JUMP JUMPDEST SWAP2 POP POP SWAP3 SWAP2 POP POP JUMP JUMPDEST PUSH2 0x3497 DUP2 PUSH2 0x2F52 JUMP JUMPDEST DUP2 EQ PUSH2 0x34A2 JUMPI PUSH1 0x0 DUP1 REVERT JUMPDEST POP JUMP JUMPDEST PUSH1 0x0 DUP2 CALLDATALOAD SWAP1 POP PUSH2 0x34B4 DUP2 PUSH2 0x348E JUMP JUMPDEST SWAP3 SWAP2 POP POP JUMP JUMPDEST PUSH1 0x0 DUP1 PUSH1 0x40 DUP4 DUP6 SUB SLT ISZERO PUSH2 0x34D1 JUMPI PUSH2 0x34D0 PUSH2 0x2EC3 JUMP JUMPDEST JUMPDEST PUSH1 0x0 PUSH2 0x34DF DUP6 DUP3 DUP7 ADD PUSH2 0x3143 JUMP JUMPDEST SWAP3 POP POP PUSH1 0x20 PUSH2 0x34F0 DUP6 DUP3 DUP7 ADD PUSH2 0x34A5 JUMP JUMPDEST SWAP2 POP POP SWAP3 POP SWAP3 SWAP1 POP JUMP JUMPDEST PUSH1 0x0 PUSH8 0xFFFFFFFFFFFFFFFF DUP3 GT ISZERO PUSH2 0x3515 JUMPI PUSH2 0x3514 PUSH2 0x331A JUMP JUMPDEST JUMPDEST PUSH2 0x351E DUP3 PUSH2 0x2FD7 JUMP JUMPDEST SWAP1 POP PUSH1 0x20 DUP2 ADD SWAP1 POP SWAP2 SWAP1 POP JUMP JUMPDEST PUSH1 0x0 PUSH2 0x353E PUSH2 0x3539 DUP5 PUSH2 0x34FA JUMP JUMPDEST PUSH2 0x337A JUMP JUMPDEST SWAP1 POP DUP3 DUP2 MSTORE PUSH1 0x20 DUP2 ADD DUP5 DUP5 DUP5 ADD GT ISZERO PUSH2 0x355A JUMPI PUSH2 0x3559 PUSH2 0x3315 JUMP JUMPDEST JUMPDEST PUSH2 0x3565 DUP5 DUP3 DUP6 PUSH2 0x33C6 JUMP JUMPDEST POP SWAP4 SWAP3 POP POP POP JUMP JUMPDEST PUSH1 0x0 DUP3 PUSH1 0x1F DUP4 ADD SLT PUSH2 0x3582 JUMPI PUSH2 0x3581 PUSH2 0x31BC JUMP JUMPDEST JUMPDEST DUP2 CALLDATALOAD PUSH2 0x3592 DUP5 DUP3 PUSH1 0x20 DUP7 ADD PUSH2 0x352B JUMP JUMPDEST SWAP2 POP POP SWAP3 SWAP2 POP POP JUMP JUMPDEST PUSH1 0x0 DUP1 PUSH1 0x0 DUP1 PUSH1 0x80 DUP6 DUP8 SUB SLT ISZERO PUSH2 0x35B5 JUMPI PUSH2 0x35B4 PUSH2 0x2EC3 JUMP JUMPDEST JUMPDEST PUSH1 0x0 PUSH2 0x35C3 DUP8 DUP3 DUP9 ADD PUSH2 0x3143 JUMP JUMPDEST SWAP5 POP POP PUSH1 0x20 PUSH2 0x35D4 DUP8 DUP3 DUP9 ADD PUSH2 0x3143 JUMP JUMPDEST SWAP4 POP POP PUSH1 0x40 PUSH2 0x35E5 DUP8 DUP3 DUP9 ADD PUSH2 0x3064 JUMP JUMPDEST SWAP3 POP POP PUSH1 0x60 DUP6 ADD CALLDATALOAD PUSH8 0xFFFFFFFFFFFFFFFF DUP2 GT ISZERO PUSH2 0x3606 JUMPI PUSH2 0x3605 PUSH2 0x2EC8 JUMP JUMPDEST JUMPDEST PUSH2 0x3612 DUP8 DUP3 DUP9 ADD PUSH2 0x356D JUMP JUMPDEST SWAP2 POP POP SWAP3 SWAP6 SWAP2 SWAP5 POP SWAP3 POP JUMP JUMPDEST PUSH1 0x0 DUP1 PUSH1 0x0 DUP1 PUSH1 0x0 PUSH1 0x80 DUP7 DUP9 SUB SLT ISZERO PUSH2 0x363A JUMPI PUSH2 0x3639 PUSH2 0x2EC3 JUMP JUMPDEST JUMPDEST PUSH1 0x0 PUSH2 0x3648 DUP9 DUP3 DUP10 ADD PUSH2 0x319D JUMP JUMPDEST SWAP6 POP POP PUSH1 0x20 DUP7 ADD CALLDATALOAD PUSH8 0xFFFFFFFFFFFFFFFF DUP2 GT ISZERO PUSH2 0x3669 JUMPI PUSH2 0x3668 PUSH2 0x2EC8 JUMP JUMPDEST JUMPDEST PUSH2 0x3675 DUP9 DUP3 DUP10 ADD PUSH2 0x31CB JUMP JUMPDEST SWAP5 POP SWAP5 POP POP PUSH1 0x40 PUSH2 0x3688 DUP9 DUP3 DUP10 ADD PUSH2 0x3064 JUMP JUMPDEST SWAP3 POP POP PUSH1 0x60 PUSH2 0x3699 DUP9 DUP3 DUP10 ADD PUSH2 0x3143 JUMP JUMPDEST SWAP2 POP POP SWAP3 SWAP6 POP SWAP3 SWAP6 SWAP1 SWAP4 POP JUMP JUMPDEST PUSH1 0x0 DUP1 PUSH1 0x40 DUP4 DUP6 SUB SLT ISZERO PUSH2 0x36BD JUMPI PUSH2 0x36BC PUSH2 0x2EC3 JUMP JUMPDEST JUMPDEST PUSH1 0x0 PUSH2 0x36CB DUP6 DUP3 DUP7 ADD PUSH2 0x3143 JUMP JUMPDEST SWAP3 POP POP PUSH1 0x20 PUSH2 0x36DC DUP6 DUP3 DUP7 ADD PUSH2 0x3143 JUMP JUMPDEST SWAP2 POP POP SWAP3 POP SWAP3 SWAP1 POP JUMP JUMPDEST PUSH32 0x4E487B7100000000000000000000000000000000000000000000000000000000 PUSH1 0x0 MSTORE PUSH1 0x22 PUSH1 0x4 MSTORE PUSH1 0x24 PUSH1 0x0 REVERT JUMPDEST PUSH1 0x0 PUSH1 0x2 DUP3 DIV SWAP1 POP PUSH1 0x1 DUP3 AND DUP1 PUSH2 0x372D JUMPI PUSH1 0x7F DUP3 AND SWAP2 POP JUMPDEST PUSH1 0x20 DUP3 LT DUP2 SUB PUSH2 0x3740 JUMPI PUSH2 0x373F PUSH2 0x36E6 JUMP JUMPDEST JUMPDEST POP SWAP2 SWAP1 POP JUMP JUMPDEST PUSH32 0x566F7563686572206E6F74206F776E6564206279207468652072656465656D65 PUSH1 0x0 DUP3 ADD MSTORE PUSH32 0x7200000000000000000000000000000000000000000000000000000000000000 PUSH1 0x20 DUP3 ADD MSTORE POP JUMP JUMPDEST PUSH1 0x0 PUSH2 0x37A2 PUSH1 0x21 DUP4 PUSH2 0x2F93 JUMP JUMPDEST SWAP2 POP PUSH2 0x37AD DUP3 PUSH2 0x3746 JUMP JUMPDEST PUSH1 0x40 DUP3 ADD SWAP1 POP SWAP2 SWAP1 POP JUMP JUMPDEST PUSH1 0x0 PUSH1 0x20 DUP3 ADD SWAP1 POP DUP2 DUP2 SUB PUSH1 0x0 DUP4 ADD MSTORE PUSH2 0x37D1 DUP2 PUSH2 0x3795 JUMP JUMPDEST SWAP1 POP SWAP2 SWAP1 POP JUMP JUMPDEST PUSH1 0x0 DUP2 SWAP1 POP SWAP2 SWAP1 POP JUMP JUMPDEST PUSH2 0x37EB DUP2 PUSH2 0x37D8 JUMP JUMPDEST DUP3 MSTORE POP POP JUMP JUMPDEST PUSH1 0x0 PUSH1 0x40 DUP3 ADD SWAP1 POP PUSH2 0x3806 PUSH1 0x0 DUP4 ADD DUP6 PUSH2 0x37E2 JUMP JUMPDEST PUSH2 0x3813 PUSH1 0x20 DUP4 ADD DUP5 PUSH2 0x30D8 JUMP JUMPDEST SWAP4 SWAP3 POP POP POP JUMP JUMPDEST PUSH32 0x5369676E617475726520696E76616C6964206F7220756E617574686F72697A65 PUSH1 0x0 DUP3 ADD MSTORE PUSH32 0x6400000000000000000000000000000000000000000000000000000000000000 PUSH1 0x20 DUP3 ADD MSTORE POP JUMP JUMPDEST PUSH1 0x0 PUSH2 0x3876 PUSH1 0x21 DUP4 PUSH2 0x2F93 JUMP JUMPDEST SWAP2 POP PUSH2 0x3881 DUP3 PUSH2 0x381A JUMP JUMPDEST PUSH1 0x40 DUP3 ADD SWAP1 POP SWAP2 SWAP1 POP JUMP JUMPDEST PUSH1 0x0 PUSH1 0x20 DUP3 ADD SWAP1 POP DUP2 DUP2 SUB PUSH1 0x0 DUP4 ADD MSTORE PUSH2 0x38A5 DUP2 PUSH2 0x3869 JUMP JUMPDEST SWAP1 POP SWAP2 SWAP1 POP JUMP JUMPDEST PUSH32 0x4E6F2061636365737320746F2072657365727665204E46540000000000000000 PUSH1 0x0 DUP3 ADD MSTORE POP JUMP JUMPDEST PUSH1 0x0 PUSH2 0x38E2 PUSH1 0x18 DUP4 PUSH2 0x2F93 JUMP JUMPDEST SWAP2 POP PUSH2 0x38ED DUP3 PUSH2 0x38AC JUMP JUMPDEST PUSH1 0x20 DUP3 ADD SWAP1 POP SWAP2 SWAP1 POP JUMP JUMPDEST PUSH1 0x0 PUSH1 0x20 DUP3 ADD SWAP1 POP DUP2 DUP2 SUB PUSH1 0x0 DUP4 ADD MSTORE PUSH2 0x3911 DUP2 PUSH2 0x38D5 JUMP JUMPDEST SWAP1 POP SWAP2 SWAP1 POP JUMP JUMPDEST PUSH1 0x0 DUP2 SWAP1 POP DUP2 PUSH1 0x0 MSTORE PUSH1 0x20 PUSH1 0x0 KECCAK256 SWAP1 POP SWAP2 SWAP1 POP JUMP JUMPDEST PUSH1 0x0 PUSH1 0x20 PUSH1 0x1F DUP4 ADD DIV SWAP1 POP SWAP2 SWAP1 POP JUMP JUMPDEST PUSH1 0x0 DUP3 DUP3 SHL SWAP1 POP SWAP3 SWAP2 POP POP JUMP JUMPDEST PUSH1 0x0 PUSH1 0x8 DUP4 MUL PUSH2 0x397A PUSH32 0xFFFFFFFFFFFFFFFFFFFFFFFFFFFFFFFFFFFFFFFFFFFFFFFFFFFFFFFFFFFFFFFF DUP3 PUSH2 0x393D JUMP JUMPDEST PUSH2 0x3984 DUP7 DUP4 PUSH2 0x393D JUMP JUMPDEST SWAP6 POP DUP1 NOT DUP5 AND SWAP4 POP DUP1 DUP7 AND DUP5 OR SWAP3 POP POP POP SWAP4 SWAP3 POP POP POP JUMP JUMPDEST PUSH1 0x0 DUP2 SWAP1 POP SWAP2 SWAP1 POP JUMP JUMPDEST PUSH1 0x0 PUSH2 0x39C1 PUSH2 0x39BC PUSH2 0x39B7 DUP5 PUSH2 0x3043 JUMP JUMPDEST PUSH2 0x399C JUMP JUMPDEST PUSH2 0x3043 JUMP JUMPDEST SWAP1 POP SWAP2 SWAP1 POP JUMP JUMPDEST PUSH1 0x0 DUP2 SWAP1 POP SWAP2 SWAP1 POP JUMP JUMPDEST PUSH2 0x39DB DUP4 PUSH2 0x39A6 JUMP JUMPDEST PUSH2 0x39EF PUSH2 0x39E7 DUP3 PUSH2 0x39C8 JUMP JUMPDEST DUP5 DUP5 SLOAD PUSH2 0x394A JUMP JUMPDEST DUP3 SSTORE POP POP POP POP JUMP JUMPDEST PUSH1 0x0 SWAP1 JUMP JUMPDEST PUSH2 0x3A04 PUSH2 0x39F7 JUMP JUMPDEST PUSH2 0x3A0F DUP2 DUP5 DUP5 PUSH2 0x39D2 JUMP JUMPDEST POP POP POP JUMP JUMPDEST JUMPDEST DUP2 DUP2 LT ISZERO PUSH2 0x3A33 JUMPI PUSH2 0x3A28 PUSH1 0x0 DUP3 PUSH2 0x39FC JUMP JUMPDEST PUSH1 0x1 DUP2 ADD SWAP1 POP PUSH2 0x3A15 JUMP JUMPDEST POP POP JUMP JUMPDEST PUSH1 0x1F DUP3 GT ISZERO PUSH2 0x3A78 JUMPI PUSH2 0x3A49 DUP2 PUSH2 0x3918 JUMP JUMPDEST PUSH2 0x3A52 DUP5 PUSH2 0x392D JUMP JUMPDEST DUP2 ADD PUSH1 0x20 DUP6 LT ISZERO PUSH2 0x3A61 JUMPI DUP2 SWAP1 POP JUMPDEST PUSH2 0x3A75 PUSH2 0x3A6D DUP6 PUSH2 0x392D JUMP JUMPDEST DUP4 ADD DUP3 PUSH2 0x3A14 JUMP JUMPDEST POP POP JUMPDEST POP POP POP JUMP JUMPDEST PUSH1 0x0 DUP3 DUP3 SHR SWAP1 POP SWAP3 SWAP2 POP POP JUMP JUMPDEST PUSH1 0x0 PUSH2 0x3A9B PUSH1 0x0 NOT DUP5 PUSH1 0x8 MUL PUSH2 0x3A7D JUMP JUMPDEST NOT DUP1 DUP4 AND SWAP2 POP POP SWAP3 SWAP2 POP POP JUMP JUMPDEST PUSH1 0x0 PUSH2 0x3AB4 DUP4 DUP4 PUSH2 0x3A8A JUMP JUMPDEST SWAP2 POP DUP3 PUSH1 0x2 MUL DUP3 OR SWAP1 POP SWAP3 SWAP2 POP POP JUMP JUMPDEST PUSH2 0x3ACD DUP3 PUSH2 0x2F88 JUMP JUMPDEST PUSH8 0xFFFFFFFFFFFFFFFF DUP2 GT ISZERO PUSH2 0x3AE6 JUMPI PUSH2 0x3AE5 PUSH2 0x331A JUMP JUMPDEST JUMPDEST PUSH2 0x3AF0 DUP3 SLOAD PUSH2 0x3715 JUMP JUMPDEST PUSH2 0x3AFB DUP3 DUP3 DUP6 PUSH2 0x3A37 JUMP JUMPDEST PUSH1 0x0 PUSH1 0x20 SWAP1 POP PUSH1 0x1F DUP4 GT PUSH1 0x1 DUP2 EQ PUSH2 0x3B2E JUMPI PUSH1 0x0 DUP5 ISZERO PUSH2 0x3B1C JUMPI DUP3 DUP8 ADD MLOAD SWAP1 POP JUMPDEST PUSH2 0x3B26 DUP6 DUP3 PUSH2 0x3AA8 JUMP JUMPDEST DUP7 SSTORE POP PUSH2 0x3B8E JUMP JUMPDEST PUSH1 0x1F NOT DUP5 AND PUSH2 0x3B3C DUP7 PUSH2 0x3918 JUMP JUMPDEST PUSH1 0x0 JUMPDEST DUP3 DUP2 LT ISZERO PUSH2 0x3B64 JUMPI DUP5 DUP10 ADD MLOAD DUP3 SSTORE PUSH1 0x1 DUP3 ADD SWAP2 POP PUSH1 0x20 DUP6 ADD SWAP5 POP PUSH1 0x20 DUP2 ADD SWAP1 POP PUSH2 0x3B3F JUMP JUMPDEST DUP7 DUP4 LT ISZERO PUSH2 0x3B81 JUMPI DUP5 DUP10 ADD MLOAD PUSH2 0x3B7D PUSH1 0x1F DUP10 AND DUP3 PUSH2 0x3A8A JUMP JUMPDEST DUP4 SSTORE POP JUMPDEST PUSH1 0x1 PUSH1 0x2 DUP9 MUL ADD DUP9 SSTORE POP POP POP JUMPDEST POP POP POP POP POP POP JUMP JUMPDEST PUSH32 0x53616C65206E6F74207374617274656400000000000000000000000000000000 PUSH1 0x0 DUP3 ADD MSTORE POP JUMP JUMPDEST PUSH1 0x0 PUSH2 0x3BCC PUSH1 0x10 DUP4 PUSH2 0x2F93 JUMP JUMPDEST SWAP2 POP PUSH2 0x3BD7 DUP3 PUSH2 0x3B96 JUMP JUMPDEST PUSH1 0x20 DUP3 ADD SWAP1 POP SWAP2 SWAP1 POP JUMP JUMPDEST PUSH1 0x0 PUSH1 0x20 DUP3 ADD SWAP1 POP DUP2 DUP2 SUB PUSH1 0x0 DUP4 ADD MSTORE PUSH2 0x3BFB DUP2 PUSH2 0x3BBF JUMP JUMPDEST SWAP1 POP SWAP2 SWAP1 POP JUMP JUMPDEST PUSH32 0x4E487B7100000000000000000000000000000000000000000000000000000000 PUSH1 0x0 MSTORE PUSH1 0x11 PUSH1 0x4 MSTORE PUSH1 0x24 PUSH1 0x0 REVERT JUMPDEST PUSH1 0x0 PUSH2 0x3C3C DUP3 PUSH2 0x3043 JUMP JUMPDEST SWAP2 POP PUSH2 0x3C47 DUP4 PUSH2 0x3043 JUMP JUMPDEST SWAP3 POP DUP3 PUSH32 0xFFFFFFFFFFFFFFFFFFFFFFFFFFFFFFFFFFFFFFFFFFFFFFFFFFFFFFFFFFFFFFFF SUB DUP3 GT ISZERO PUSH2 0x3C7C JUMPI PUSH2 0x3C7B PUSH2 0x3C02 JUMP JUMPDEST JUMPDEST DUP3 DUP3 ADD SWAP1 POP SWAP3 SWAP2 POP POP JUMP JUMPDEST PUSH32 0x4E6F7420656E6F756768206D61784D696E74436F756E74207065722061646472 PUSH1 0x0 DUP3 ADD MSTORE PUSH32 0x6573732070657220616464726573730000000000000000000000000000000000 PUSH1 0x20 DUP3 ADD MSTORE POP JUMP JUMPDEST PUSH1 0x0 PUSH2 0x3CE3 PUSH1 0x2F DUP4 PUSH2 0x2F93 JUMP JUMPDEST SWAP2 POP PUSH2 0x3CEE DUP3 PUSH2 0x3C87 JUMP JUMPDEST PUSH1 0x40 DUP3 ADD SWAP1 POP SWAP2 SWAP1 POP JUMP JUMPDEST PUSH1 0x0 PUSH1 0x20 DUP3 ADD SWAP1 POP DUP2 DUP2 SUB PUSH1 0x0 DUP4 ADD MSTORE PUSH2 0x3D12 DUP2 PUSH2 0x3CD6 JUMP JUMPDEST SWAP1 POP SWAP2 SWAP1 POP JUMP JUMPDEST PUSH32 0x457863656564206D617820746F74616C207570706C7900000000000000000000 PUSH1 0x0 DUP3 ADD MSTORE POP JUMP JUMPDEST PUSH1 0x0 PUSH2 0x3D4F PUSH1 0x16 DUP4 PUSH2 0x2F93 JUMP JUMPDEST SWAP2 POP PUSH2 0x3D5A DUP3 PUSH2 0x3D19 JUMP JUMPDEST PUSH1 0x20 DUP3 ADD SWAP1 POP SWAP2 SWAP1 POP JUMP JUMPDEST PUSH1 0x0 PUSH1 0x20 DUP3 ADD SWAP1 POP DUP2 DUP2 SUB PUSH1 0x0 DUP4 ADD MSTORE PUSH2 0x3D7E DUP2 PUSH2 0x3D42 JUMP JUMPDEST SWAP1 POP SWAP2 SWAP1 POP JUMP JUMPDEST PUSH1 0x0 PUSH2 0x3D90 DUP3 PUSH2 0x3043 JUMP JUMPDEST SWAP2 POP PUSH2 0x3D9B DUP4 PUSH2 0x3043 JUMP JUMPDEST SWAP3 POP DUP2 PUSH32 0xFFFFFFFFFFFFFFFFFFFFFFFFFFFFFFFFFFFFFFFFFFFFFFFFFFFFFFFFFFFFFFFF DIV DUP4 GT DUP3 ISZERO ISZERO AND ISZERO PUSH2 0x3DD4 JUMPI PUSH2 0x3DD3 PUSH2 0x3C02 JUMP JUMPDEST JUMPDEST DUP3 DUP3 MUL SWAP1 POP SWAP3 SWAP2 POP POP JUMP JUMPDEST PUSH32 0x4E6F7420656E6F7567682066756E6420746F206D696E74204E46540000000000 PUSH1 0x0 DUP3 ADD MSTORE POP JUMP JUMPDEST PUSH1 0x0 PUSH2 0x3E15 PUSH1 0x1B DUP4 PUSH2 0x2F93 JUMP JUMPDEST SWAP2 POP PUSH2 0x3E20 DUP3 PUSH2 0x3DDF JUMP JUMPDEST PUSH1 0x20 DUP3 ADD SWAP1 POP SWAP2 SWAP1 POP JUMP JUMPDEST PUSH1 0x0 PUSH1 0x20 DUP3 ADD SWAP1 POP DUP2 DUP2 SUB PUSH1 0x0 DUP4 ADD MSTORE PUSH2 0x3E44 DUP2 PUSH2 0x3E08 JUMP JUMPDEST SWAP1 POP SWAP2 SWAP1 POP JUMP JUMPDEST PUSH32 0x4F776E61626C653A2063616C6C6572206973206E6F7420746865206F776E6572 PUSH1 0x0 DUP3 ADD MSTORE POP JUMP JUMPDEST PUSH1 0x0 PUSH2 0x3E81 PUSH1 0x20 DUP4 PUSH2 0x2F93 JUMP JUMPDEST SWAP2 POP PUSH2 0x3E8C DUP3 PUSH2 0x3E4B JUMP JUMPDEST PUSH1 0x20 DUP3 ADD SWAP1 POP SWAP2 SWAP1 POP JUMP JUMPDEST PUSH1 0x0 PUSH1 0x20 DUP3 ADD SWAP1 POP DUP2 DUP2 SUB PUSH1 0x0 DUP4 ADD MSTORE PUSH2 0x3EB0 DUP2 PUSH2 0x3E74 JUMP JUMPDEST SWAP1 POP SWAP2 SWAP1 POP JUMP JUMPDEST PUSH32 0x4E6F7420656E6F756768206D61784D696E74436F756E74207065722061646472 PUSH1 0x0 DUP3 ADD MSTORE PUSH32 0x6573730000000000000000000000000000000000000000000000000000000000 PUSH1 0x20 DUP3 ADD MSTORE POP JUMP JUMPDEST PUSH1 0x0 PUSH2 0x3F13 PUSH1 0x23 DUP4 PUSH2 0x2F93 JUMP JUMPDEST SWAP2 POP PUSH2 0x3F1E DUP3 PUSH2 0x3EB7 JUMP JUMPDEST PUSH1 0x40 DUP3 ADD SWAP1 POP SWAP2 SWAP1 POP JUMP JUMPDEST PUSH1 0x0 PUSH1 0x20 DUP3 ADD SWAP1 POP DUP2 DUP2 SUB PUSH1 0x0 DUP4 ADD MSTORE PUSH2 0x3F42 DUP2 PUSH2 0x3F06 JUMP JUMPDEST SWAP1 POP SWAP2 SWAP1 POP JUMP JUMPDEST PUSH32 0x457863656564206D617820746F74616C20737570706C79000000000000000000 PUSH1 0x0 DUP3 ADD MSTORE POP JUMP JUMPDEST PUSH1 0x0 PUSH2 0x3F7F PUSH1 0x17 DUP4 PUSH2 0x2F93 JUMP JUMPDEST SWAP2 POP PUSH2 0x3F8A DUP3 PUSH2 0x3F49 JUMP JUMPDEST PUSH1 0x20 DUP3 ADD SWAP1 POP SWAP2 SWAP1 POP JUMP JUMPDEST PUSH1 0x0 PUSH1 0x20 DUP3 ADD SWAP1 POP DUP2 DUP2 SUB PUSH1 0x0 DUP4 ADD MSTORE PUSH2 0x3FAE DUP2 PUSH2 0x3F72 JUMP JUMPDEST SWAP1 POP SWAP2 SWAP1 POP JUMP JUMPDEST PUSH1 0x0 DUP2 SWAP1 POP SWAP3 SWAP2 POP POP JUMP JUMPDEST PUSH1 0x0 PUSH2 0x3FCB DUP3 PUSH2 0x2F88 JUMP JUMPDEST PUSH2 0x3FD5 DUP2 DUP6 PUSH2 0x3FB5 JUMP JUMPDEST SWAP4 POP PUSH2 0x3FE5 DUP2 DUP6 PUSH1 0x20 DUP7 ADD PUSH2 0x2FA4 JUMP JUMPDEST DUP1 DUP5 ADD SWAP2 POP POP SWAP3 SWAP2 POP POP JUMP JUMPDEST PUSH1 0x0 PUSH2 0x3FFD DUP3 DUP6 PUSH2 0x3FC0 JUMP JUMPDEST SWAP2 POP PUSH2 0x4009 DUP3 DUP5 PUSH2 0x3FC0 JUMP JUMPDEST SWAP2 POP DUP2 SWAP1 POP SWAP4 SWAP3 POP POP POP JUMP JUMPDEST PUSH32 0x4578636565642066726565206D696E74206C696D697400000000000000000000 PUSH1 0x0 DUP3 ADD MSTORE POP JUMP JUMPDEST PUSH1 0x0 PUSH2 0x404B PUSH1 0x16 DUP4 PUSH2 0x2F93 JUMP JUMPDEST SWAP2 POP PUSH2 0x4056 DUP3 PUSH2 0x4015 JUMP JUMPDEST PUSH1 0x20 DUP3 ADD SWAP1 POP SWAP2 SWAP1 POP JUMP JUMPDEST PUSH1 0x0 PUSH1 0x20 DUP3 ADD SWAP1 POP DUP2 DUP2 SUB PUSH1 0x0 DUP4 ADD MSTORE PUSH2 0x407A DUP2 PUSH2 0x403E JUMP JUMPDEST SWAP1 POP SWAP2 SWAP1 POP JUMP JUMPDEST PUSH32 0x4E6F7420656E6F7567682066756E640000000000000000000000000000000000 PUSH1 0x0 DUP3 ADD MSTORE POP JUMP JUMPDEST PUSH1 0x0 PUSH2 0x40B7 PUSH1 0xF DUP4 PUSH2 0x2F93 JUMP JUMPDEST SWAP2 POP PUSH2 0x40C2 DUP3 PUSH2 0x4081 JUMP JUMPDEST PUSH1 0x20 DUP3 ADD SWAP1 POP SWAP2 SWAP1 POP JUMP JUMPDEST PUSH1 0x0 PUSH1 0x20 DUP3 ADD SWAP1 POP DUP2 DUP2 SUB PUSH1 0x0 DUP4 ADD MSTORE PUSH2 0x40E6 DUP2 PUSH2 0x40AA JUMP JUMPDEST SWAP1 POP SWAP2 SWAP1 POP JUMP JUMPDEST PUSH32 0x4F776E61626C653A206E6577206F776E657220697320746865207A65726F2061 PUSH1 0x0 DUP3 ADD MSTORE PUSH32 0x6464726573730000000000000000000000000000000000000000000000000000 PUSH1 0x20 DUP3 ADD MSTORE POP JUMP JUMPDEST PUSH1 0x0 PUSH2 0x4149 PUSH1 0x26 DUP4 PUSH2 0x2F93 JUMP JUMPDEST SWAP2 POP PUSH2 0x4154 DUP3 PUSH2 0x40ED JUMP JUMPDEST PUSH1 0x40 DUP3 ADD SWAP1 POP SWAP2 SWAP1 POP JUMP JUMPDEST PUSH1 0x0 PUSH1 0x20 DUP3 ADD SWAP1 POP DUP2 DUP2 SUB PUSH1 0x0 DUP4 ADD MSTORE PUSH2 0x4178 DUP2 PUSH2 0x413C JUMP JUMPDEST SWAP1 POP SWAP2 SWAP1 POP JUMP JUMPDEST PUSH32 0x416464726573733A20696E73756666696369656E742062616C616E6365000000 PUSH1 0x0 DUP3 ADD MSTORE POP JUMP JUMPDEST PUSH1 0x0 PUSH2 0x41B5 PUSH1 0x1D DUP4 PUSH2 0x2F93 JUMP JUMPDEST SWAP2 POP PUSH2 0x41C0 DUP3 PUSH2 0x417F JUMP JUMPDEST PUSH1 0x20 DUP3 ADD SWAP1 POP SWAP2 SWAP1 POP JUMP JUMPDEST PUSH1 0x0 PUSH1 0x20 DUP3 ADD SWAP1 POP DUP2 DUP2 SUB PUSH1 0x0 DUP4 ADD MSTORE PUSH2 0x41E4 DUP2 PUSH2 0x41A8 JUMP JUMPDEST SWAP1 POP SWAP2 SWAP1 POP JUMP JUMPDEST PUSH1 0x0 DUP2 SWAP1 POP SWAP3 SWAP2 POP POP JUMP JUMPDEST POP JUMP JUMPDEST PUSH1 0x0 PUSH2 0x4206 PUSH1 0x0 DUP4 PUSH2 0x41EB JUMP JUMPDEST SWAP2 POP PUSH2 0x4211 DUP3 PUSH2 0x41F6 JUMP JUMPDEST PUSH1 0x0 DUP3 ADD SWAP1 POP SWAP2 SWAP1 POP JUMP JUMPDEST PUSH1 0x0 PUSH2 0x4227 DUP3 PUSH2 0x41F9 JUMP JUMPDEST SWAP2 POP DUP2 SWAP1 POP SWAP2 SWAP1 POP JUMP JUMPDEST PUSH32 0x416464726573733A20756E61626C6520746F2073656E642076616C75652C2072 PUSH1 0x0 DUP3 ADD MSTORE PUSH32 0x6563697069656E74206D61792068617665207265766572746564000000000000 PUSH1 0x20 DUP3 ADD MSTORE POP JUMP JUMPDEST PUSH1 0x0 PUSH2 0x428D PUSH1 0x3A DUP4 PUSH2 0x2F93 JUMP JUMPDEST SWAP2 POP PUSH2 0x4298 DUP3 PUSH2 0x4231 JUMP JUMPDEST PUSH1 0x40 DUP3 ADD SWAP1 POP SWAP2 SWAP1 POP JUMP JUMPDEST PUSH1 0x0 PUSH1 0x20 DUP3 ADD SWAP1 POP DUP2 DUP2 SUB PUSH1 0x0 DUP4 ADD MSTORE PUSH2 0x42BC DUP2 PUSH2 0x4280 JUMP JUMPDEST SWAP1 POP SWAP2 SWAP1 POP JUMP JUMPDEST PUSH1 0x0 DUP2 MLOAD SWAP1 POP SWAP2 SWAP1 POP JUMP JUMPDEST PUSH1 0x0 DUP3 DUP3 MSTORE PUSH1 0x20 DUP3 ADD SWAP1 POP SWAP3 SWAP2 POP POP JUMP JUMPDEST PUSH1 0x0 PUSH2 0x42EA DUP3 PUSH2 0x42C3 JUMP JUMPDEST PUSH2 0x42F4 DUP2 DUP6 PUSH2 0x42CE JUMP JUMPDEST SWAP4 POP PUSH2 0x4304 DUP2 DUP6 PUSH1 0x20 DUP7 ADD PUSH2 0x2FA4 JUMP JUMPDEST PUSH2 0x430D DUP2 PUSH2 0x2FD7 JUMP JUMPDEST DUP5 ADD SWAP2 POP POP SWAP3 SWAP2 POP POP JUMP JUMPDEST PUSH1 0x0 PUSH1 0x80 DUP3 ADD SWAP1 POP PUSH2 0x432D PUSH1 0x0 DUP4 ADD DUP8 PUSH2 0x30D8 JUMP JUMPDEST PUSH2 0x433A PUSH1 0x20 DUP4 ADD DUP7 PUSH2 0x30D8 JUMP JUMPDEST PUSH2 0x4347 PUSH1 0x40 DUP4 ADD DUP6 PUSH2 0x3102 JUMP JUMPDEST DUP2 DUP2 SUB PUSH1 0x60 DUP4 ADD MSTORE PUSH2 0x4359 DUP2 DUP5 PUSH2 0x42DF JUMP JUMPDEST SWAP1 POP SWAP6 SWAP5 POP POP POP POP POP JUMP JUMPDEST PUSH1 0x0 DUP2 MLOAD SWAP1 POP PUSH2 0x4373 DUP2 PUSH2 0x2EF9 JUMP JUMPDEST SWAP3 SWAP2 POP POP JUMP JUMPDEST PUSH1 0x0 PUSH1 0x20 DUP3 DUP5 SUB SLT ISZERO PUSH2 0x438F JUMPI PUSH2 0x438E PUSH2 0x2EC3 JUMP JUMPDEST JUMPDEST PUSH1 0x0 PUSH2 0x439D DUP5 DUP3 DUP6 ADD PUSH2 0x4364 JUMP JUMPDEST SWAP2 POP POP SWAP3 SWAP2 POP POP JUMP JUMPDEST PUSH32 0x1901000000000000000000000000000000000000000000000000000000000000 PUSH1 0x0 DUP3 ADD MSTORE POP JUMP JUMPDEST PUSH1 0x0 PUSH2 0x43DC PUSH1 0x2 DUP4 PUSH2 0x3FB5 JUMP JUMPDEST SWAP2 POP PUSH2 0x43E7 DUP3 PUSH2 0x43A6 JUMP JUMPDEST PUSH1 0x2 DUP3 ADD SWAP1 POP SWAP2 SWAP1 POP JUMP JUMPDEST PUSH1 0x0 DUP2 SWAP1 POP SWAP2 SWAP1 POP JUMP JUMPDEST PUSH2 0x440D PUSH2 0x4408 DUP3 PUSH2 0x37D8 JUMP JUMPDEST PUSH2 0x43F2 JUMP JUMPDEST DUP3 MSTORE POP POP JUMP JUMPDEST PUSH1 0x0 PUSH2 0x441E DUP3 PUSH2 0x43CF JUMP JUMPDEST SWAP2 POP PUSH2 0x442A DUP3 DUP6 PUSH2 0x43FC JUMP JUMPDEST PUSH1 0x20 DUP3 ADD SWAP2 POP PUSH2 0x443A DUP3 DUP5 PUSH2 0x43FC JUMP JUMPDEST PUSH1 0x20 DUP3 ADD SWAP2 POP DUP2 SWAP1 POP SWAP4 SWAP3 POP POP POP JUMP JUMPDEST PUSH32 0x4E487B7100000000000000000000000000000000000000000000000000000000 PUSH1 0x0 MSTORE PUSH1 0x21 PUSH1 0x4 MSTORE PUSH1 0x24 PUSH1 0x0 REVERT JUMPDEST PUSH32 0x45434453413A20696E76616C6964207369676E61747572650000000000000000 PUSH1 0x0 DUP3 ADD MSTORE POP JUMP JUMPDEST PUSH1 0x0 PUSH2 0x44AF PUSH1 0x18 DUP4 PUSH2 0x2F93 JUMP JUMPDEST SWAP2 POP PUSH2 0x44BA DUP3 PUSH2 0x4479 JUMP JUMPDEST PUSH1 0x20 DUP3 ADD SWAP1 POP SWAP2 SWAP1 POP JUMP JUMPDEST PUSH1 0x0 PUSH1 0x20 DUP3 ADD SWAP1 POP DUP2 DUP2 SUB PUSH1 0x0 DUP4 ADD MSTORE PUSH2 0x44DE DUP2 PUSH2 0x44A2 JUMP JUMPDEST SWAP1 POP SWAP2 SWAP1 POP JUMP JUMPDEST PUSH32 0x45434453413A20696E76616C6964207369676E6174757265206C656E67746800 PUSH1 0x0 DUP3 ADD MSTORE POP JUMP JUMPDEST PUSH1 0x0 PUSH2 0x451B PUSH1 0x1F DUP4 PUSH2 0x2F93 JUMP JUMPDEST SWAP2 POP PUSH2 0x4526 DUP3 PUSH2 0x44E5 JUMP JUMPDEST PUSH1 0x20 DUP3 ADD SWAP1 POP SWAP2 SWAP1 POP JUMP JUMPDEST PUSH1 0x0 PUSH1 0x20 DUP3 ADD SWAP1 POP DUP2 DUP2 SUB PUSH1 0x0 DUP4 ADD MSTORE PUSH2 0x454A DUP2 PUSH2 0x450E JUMP JUMPDEST SWAP1 POP SWAP2 SWAP1 POP JUMP JUMPDEST PUSH32 0x45434453413A20696E76616C6964207369676E6174757265202773272076616C PUSH1 0x0 DUP3 ADD MSTORE PUSH32 0x7565000000000000000000000000000000000000000000000000000000000000 PUSH1 0x20 DUP3 ADD MSTORE POP JUMP JUMPDEST PUSH1 0x0 PUSH2 0x45AD PUSH1 0x22 DUP4 PUSH2 0x2F93 JUMP JUMPDEST SWAP2 POP PUSH2 0x45B8 DUP3 PUSH2 0x4551 JUMP JUMPDEST PUSH1 0x40 DUP3 ADD SWAP1 POP SWAP2 SWAP1 POP JUMP JUMPDEST PUSH1 0x0 PUSH1 0x20 DUP3 ADD SWAP1 POP DUP2 DUP2 SUB PUSH1 0x0 DUP4 ADD MSTORE PUSH2 0x45DC DUP2 PUSH2 0x45A0 JUMP JUMPDEST SWAP1 POP SWAP2 SWAP1 POP JUMP JUMPDEST PUSH32 0x45434453413A20696E76616C6964207369676E6174757265202776272076616C PUSH1 0x0 DUP3 ADD MSTORE PUSH32 0x7565000000000000000000000000000000000000000000000000000000000000 PUSH1 0x20 DUP3 ADD MSTORE POP JUMP JUMPDEST PUSH1 0x0 PUSH2 0x463F PUSH1 0x22 DUP4 PUSH2 0x2F93 JUMP JUMPDEST SWAP2 POP PUSH2 0x464A DUP3 PUSH2 0x45E3 JUMP JUMPDEST PUSH1 0x40 DUP3 ADD SWAP1 POP SWAP2 SWAP1 POP JUMP JUMPDEST PUSH1 0x0 PUSH1 0x20 DUP3 ADD SWAP1 POP DUP2 DUP2 SUB PUSH1 0x0 DUP4 ADD MSTORE PUSH2 0x466E DUP2 PUSH2 0x4632 JUMP JUMPDEST SWAP1 POP SWAP2 SWAP1 POP JUMP JUMPDEST PUSH1 0x0 PUSH1 0xA0 DUP3 ADD SWAP1 POP PUSH2 0x468A PUSH1 0x0 DUP4 ADD DUP9 PUSH2 0x37E2 JUMP JUMPDEST PUSH2 0x4697 PUSH1 0x20 DUP4 ADD DUP8 PUSH2 0x37E2 JUMP JUMPDEST PUSH2 0x46A4 PUSH1 0x40 DUP4 ADD DUP7 PUSH2 0x37E2 JUMP JUMPDEST PUSH2 0x46B1 PUSH1 0x60 DUP4 ADD DUP6 PUSH2 0x3102 JUMP JUMPDEST PUSH2 0x46BE PUSH1 0x80 DUP4 ADD DUP5 PUSH2 0x30D8 JUMP JUMPDEST SWAP7 SWAP6 POP POP POP POP POP POP JUMP JUMPDEST PUSH1 0x0 PUSH1 0xFF DUP3 AND SWAP1 POP SWAP2 SWAP1 POP JUMP JUMPDEST PUSH2 0x46DE DUP2 PUSH2 0x46C8 JUMP JUMPDEST DUP3 MSTORE POP POP JUMP JUMPDEST PUSH1 0x0 PUSH1 0x80 DUP3 ADD SWAP1 POP PUSH2 0x46F9 PUSH1 0x0 DUP4 ADD DUP8 PUSH2 0x37E2 JUMP JUMPDEST PUSH2 0x4706 PUSH1 0x20 DUP4 ADD DUP7 PUSH2 0x46D5 JUMP JUMPDEST PUSH2 0x4713 PUSH1 0x40 DUP4 ADD DUP6 PUSH2 0x37E2 JUMP JUMPDEST PUSH2 0x4720 PUSH1 0x60 DUP4 ADD DUP5 PUSH2 0x37E2 JUMP JUMPDEST SWAP6 SWAP5 POP POP POP POP POP JUMP INVALID LOG2 PUSH5 0x6970667358 0x22 SLT KECCAK256 PUSH32 0x98157471E093BD34B4DAAB1C7BE4D2ABAB1B92B28F77D270E3C55640E06B1D64 PUSH20 0x6F6C634300080F00330000000000000000000000 "},"methodIdentifiers":{"MAX_SUPPLY()":"32cb6b0c","_mintedCounts(address)":"21489288","_mintedCountsPublic(address)":"b7764688","_mintedCountsPublicSecond(address)":"4b6a223e","approve(address,uint256)":"095ea7b3","balanceOf(address)":"70a08231","freeMintCount()":"e55f58bb","freeMintLimit()":"08346d85","getApproved(uint256)":"081812fc","isApprovedForAll(address,address)":"e985e9c5","maxPublicMintSecondLimitPerAddr()":"3798470a","maxWhitelistMintLimitPerAddr()":"188cf2d1","mintPrice()":"6817c76c","mintPriceSecond()":"79ac23b2","name()":"06fdde03","owner()":"8da5cb5b","ownerOf(uint256)":"6352211e","publicMintFirst(address,uint256)":"afe11c03","publicMintSecond(address,uint256)":"6dab9cd2","publicMintSecondStartTime()":"f43463f7","publicMintStartTime()":"d3cf00a3","renounceOwnership()":"715018a6","reserve(address,uint256)":"cc47a40b","reserver()":"dcd315eb","safeTransferFrom(address,address,uint256)":"42842e0e","safeTransferFrom(address,address,uint256,bytes)":"b88d4fde","setApprovalForAll(address,bool)":"a22cb465","setBaseURI(string)":"55f804b3","supportsInterface(bytes4)":"01ffc9a7","symbol()":"95d89b41","testMintStartTime()":"1892feb1","tokenURI(uint256)":"c87b56dd","totalSupply()":"18160ddd","transferFrom(address,address,uint256)":"23b872dd","transferOwnership(address)":"f2fde38b","verify((address),bytes,address)":"19da5b8a","whitelistMint((address),bytes,uint256,address)":"d27adb6c","whitelistMintStartTime()":"2bb1a91a","withdraw()":"3ccfd60b"}},"storageLayout":{"storage":[{"astId":7,"contract":"contracts/NFT.sol:NFT","label":"_owner","offset":0,"slot":"0","type":"t_address"},{"astId":1731,"contract":"contracts/NFT.sol:NFT","label":"_currentIndex","offset":0,"slot":"1","type":"t_uint256"},{"astId":1733,"contract":"contracts/NFT.sol:NFT","label":"_burnCounter","offset":0,"slot":"2","type":"t_uint256"},{"astId":1735,"contract":"contracts/NFT.sol:NFT","label":"_name","offset":0,"slot":"3","type":"t_string_storage"},{"astId":1737,"contract":"contracts/NFT.sol:NFT","label":"_symbol","offset":0,"slot":"4","type":"t_string_storage"},{"astId":1741,"contract":"contracts/NFT.sol:NFT","label":"_packedOwnerships","offset":0,"slot":"5","type":"t_mapping(t_uint256,t_uint256)"},{"astId":1745,"contract":"contracts/NFT.sol:NFT","label":"_packedAddressData","offset":0,"slot":"6","type":"t_mapping(t_address,t_uint256)"},{"astId":1750,"contract":"contracts/NFT.sol:NFT","label":"_tokenApprovals","offset":0,"slot":"7","type":"t_mapping(t_uint256,t_struct(TokenApprovalRef)1663_storage)"},{"astId":1756,"contract":"contracts/NFT.sol:NFT","label":"_operatorApprovals","offset":0,"slot":"8","type":"t_mapping(t_address,t_mapping(t_address,t_bool))"},{"astId":1205,"contract":"contracts/NFT.sol:NFT","label":"baseTokenURI","offset":0,"slot":"9","type":"t_string_storage"},{"astId":1241,"contract":"contracts/NFT.sol:NFT","label":"freeMintCount","offset":0,"slot":"10","type":"t_uint256"},{"astId":1245,"contract":"contracts/NFT.sol:NFT","label":"_mintedCounts","offset":0,"slot":"11","type":"t_mapping(t_address,t_uint256)"},{"astId":1249,"contract":"contracts/NFT.sol:NFT","label":"_mintedCountsPublic","offset":0,"slot":"12","type":"t_mapping(t_address,t_uint256)"},{"astId":1253,"contract":"contracts/NFT.sol:NFT","label":"_mintedCountsPublicSecond","offset":0,"slot":"13","type":"t_mapping(t_address,t_uint256)"}],"types":{"t_address":{"encoding":"inplace","label":"address","numberOfBytes":"20"},"t_bool":{"encoding":"inplace","label":"bool","numberOfBytes":"1"},"t_mapping(t_address,t_bool)":{"encoding":"mapping","key":"t_address","label":"mapping(address => bool)","numberOfBytes":"32","value":"t_bool"},"t_mapping(t_address,t_mapping(t_address,t_bool))":{"encoding":"mapping","key":"t_address","label":"mapping(address => mapping(address => bool))","numberOfBytes":"32","value":"t_mapping(t_address,t_bool)"},"t_mapping(t_address,t_uint256)":{"encoding":"mapping","key":"t_address","label":"mapping(address => uint256)","numberOfBytes":"32","value":"t_uint256"},"t_mapping(t_uint256,t_struct(TokenApprovalRef)1663_storage)":{"encoding":"mapping","key":"t_uint256","label":"mapping(uint256 => struct ERC721A.TokenApprovalRef)","numberOfBytes":"32","value":"t_struct(TokenApprovalRef)1663_storage"},"t_mapping(t_uint256,t_uint256)":{"encoding":"mapping","key":"t_uint256","label":"mapping(uint256 => uint256)","numberOfBytes":"32","value":"t_uint256"},"t_string_storage":{"encoding":"bytes","label":"string","numberOfBytes":"32"},"t_struct(TokenApprovalRef)1663_storage":{"encoding":"inplace","label":"struct ERC721A.TokenApprovalRef","members":[{"astId":1662,"contract":"contracts/NFT.sol:NFT","label":"value","offset":0,"slot":"0","type":"t_address"}],"numberOfBytes":"32"},"t_uint256":{"encoding":"inplace","label":"uint256","numberOfBytes":"32"}}}}}}